{
  "contractName": "LocalBusiness",
  "abi": [
    {
      "inputs": [
        {
          "internalType": "address",
          "name": "_businessAddress",
          "type": "address"
        },
        {
          "internalType": "string",
          "name": "_businessName",
          "type": "string"
        }
      ],
      "payable": false,
      "stateMutability": "nonpayable",
      "type": "constructor"
    },
    {
      "anonymous": false,
      "inputs": [
        {
          "indexed": false,
          "internalType": "string",
          "name": "businessName",
          "type": "string"
        },
        {
          "indexed": false,
          "internalType": "address",
          "name": "businessAddress",
          "type": "address"
        },
        {
          "indexed": false,
          "internalType": "address",
          "name": "tokenContractAddress",
          "type": "address"
        },
        {
          "indexed": false,
          "internalType": "string",
          "name": "dealName",
          "type": "string"
        },
        {
          "indexed": false,
          "internalType": "string",
          "name": "dealDetails",
          "type": "string"
        },
        {
          "indexed": false,
          "internalType": "uint256",
          "name": "price",
          "type": "uint256"
        },
        {
          "indexed": false,
          "internalType": "uint256",
          "name": "expiryDate",
          "type": "uint256"
        },
        {
          "indexed": false,
          "internalType": "bool",
          "name": "active",
          "type": "bool"
        }
      ],
      "name": "DealCreated",
      "type": "event"
    },
    {
      "constant": true,
      "inputs": [],
      "name": "LoveEconomyAddress",
      "outputs": [
        {
          "internalType": "address payable",
          "name": "",
          "type": "address"
        }
      ],
      "payable": false,
      "stateMutability": "view",
      "type": "function"
    },
    {
      "constant": true,
      "inputs": [],
      "name": "businessName",
      "outputs": [
        {
          "internalType": "string",
          "name": "",
          "type": "string"
        }
      ],
      "payable": false,
      "stateMutability": "view",
      "type": "function"
    },
    {
      "constant": true,
      "inputs": [],
      "name": "owner",
      "outputs": [
        {
          "internalType": "address",
          "name": "",
          "type": "address"
        }
      ],
      "payable": false,
      "stateMutability": "view",
      "type": "function"
    },
    {
      "constant": true,
      "inputs": [],
      "name": "paid",
      "outputs": [
        {
          "internalType": "bool",
          "name": "",
          "type": "bool"
        }
      ],
      "payable": false,
      "stateMutability": "view",
      "type": "function"
    },
    {
      "constant": true,
      "inputs": [
        {
          "internalType": "address",
          "name": "",
          "type": "address"
        }
      ],
      "name": "tokenAddressToDeal",
      "outputs": [
        {
          "internalType": "string",
          "name": "businessName",
          "type": "string"
        },
        {
          "internalType": "address",
          "name": "businessContractAddress",
          "type": "address"
        },
        {
          "internalType": "address",
          "name": "tokenContractAddress",
          "type": "address"
        },
        {
          "internalType": "string",
          "name": "dealName",
          "type": "string"
        },
        {
          "internalType": "string",
          "name": "dealDetails",
          "type": "string"
        },
        {
          "internalType": "uint256",
          "name": "price",
          "type": "uint256"
        },
        {
          "internalType": "uint256",
          "name": "expiryDate",
          "type": "uint256"
        },
        {
          "internalType": "bool",
          "name": "active",
          "type": "bool"
        }
      ],
      "payable": false,
      "stateMutability": "view",
      "type": "function"
    },
    {
      "constant": true,
      "inputs": [
        {
          "internalType": "uint256",
          "name": "",
          "type": "uint256"
        }
      ],
      "name": "tokenContracts",
      "outputs": [
        {
          "internalType": "address",
          "name": "",
          "type": "address"
        }
      ],
      "payable": false,
      "stateMutability": "view",
      "type": "function"
    },
    {
      "constant": false,
      "inputs": [],
      "name": "activateContract",
      "outputs": [],
      "payable": true,
      "stateMutability": "payable",
      "type": "function"
    },
    {
      "constant": false,
      "inputs": [
        {
          "internalType": "string",
          "name": "_dealName",
          "type": "string"
        },
        {
          "internalType": "string",
          "name": "_dealDetails",
          "type": "string"
        },
        {
          "internalType": "uint256",
          "name": "_expiryDate",
          "type": "uint256"
        },
        {
          "internalType": "uint8",
          "name": "_price",
          "type": "uint8"
        }
      ],
      "name": "addDeal",
      "outputs": [
        {
          "internalType": "address",
          "name": "",
          "type": "address"
        }
      ],
      "payable": true,
      "stateMutability": "payable",
      "type": "function"
    },
    {
      "constant": true,
      "inputs": [],
      "name": "getDealCount",
      "outputs": [
        {
          "internalType": "uint256",
          "name": "",
          "type": "uint256"
        }
      ],
      "payable": false,
      "stateMutability": "view",
      "type": "function"
    },
    {
      "constant": true,
      "inputs": [
        {
          "internalType": "address",
          "name": "_tokenAddress",
          "type": "address"
        },
        {
          "internalType": "bool",
          "name": "_active",
          "type": "bool"
        }
      ],
      "name": "setDealActiveFlag",
      "outputs": [],
      "payable": false,
      "stateMutability": "view",
      "type": "function"
    },
    {
      "constant": true,
      "inputs": [],
      "name": "getBusinessAddress",
      "outputs": [
        {
          "internalType": "address",
          "name": "",
          "type": "address"
        }
      ],
      "payable": false,
      "stateMutability": "view",
      "type": "function"
    },
    {
      "constant": true,
      "inputs": [],
      "name": "getAllDeals",
      "outputs": [
        {
          "internalType": "address[]",
          "name": "",
          "type": "address[]"
        }
      ],
      "payable": false,
      "stateMutability": "view",
      "type": "function"
    },
    {
      "constant": true,
      "inputs": [
        {
          "internalType": "address",
          "name": "_tokenAddress",
          "type": "address"
        }
      ],
      "name": "getDealDetails",
      "outputs": [
        {
          "internalType": "string",
          "name": "",
          "type": "string"
        },
        {
          "internalType": "address",
          "name": "",
          "type": "address"
        },
        {
          "internalType": "string",
          "name": "",
          "type": "string"
        },
        {
          "internalType": "string",
          "name": "",
          "type": "string"
        },
        {
          "internalType": "uint256",
          "name": "",
          "type": "uint256"
        },
        {
          "internalType": "uint256",
          "name": "",
          "type": "uint256"
        }
      ],
      "payable": false,
      "stateMutability": "view",
      "type": "function"
    }
  ],
  "bytecode": "0x60806040526000600160146101000a81548160ff0219169083151502179055503480156200002c57600080fd5b50604051620040c7380380620040c7833981810160405260408110156200005257600080fd5b8101908080519060200190929190805160405193929190846401000000008211156200007d57600080fd5b838201915060208201858111156200009457600080fd5b8251866001820283011164010000000082111715620000b257600080fd5b8083526020830192505050908051906020019080838360005b83811015620000e8578082015181840152602081019050620000cb565b50505050905090810190601f168015620001165780820380516001836020036101000a031916815260200191505b5060405250505033600160006101000a81548173ffffffffffffffffffffffffffffffffffffffff021916908373ffffffffffffffffffffffffffffffffffffffff160217905550816000806101000a81548173ffffffffffffffffffffffffffffffffffffffff021916908373ffffffffffffffffffffffffffffffffffffffff1602179055508060039080519060200190620001b692919062000222565b50600160009054906101000a900473ffffffffffffffffffffffffffffffffffffffff16600260006101000a81548173ffffffffffffffffffffffffffffffffffffffff021916908373ffffffffffffffffffffffffffffffffffffffff1602179055505050620002d1565b828054600181600116156101000203166002900490600052602060002090601f016020900481019282601f106200026557805160ff191683800117855562000296565b8280016001018555821562000296579182015b828111156200029557825182559160200191906001019062000278565b5b509050620002a59190620002a9565b5090565b620002ce91905b80821115620002ca576000816000905550600101620002b0565b5090565b90565b613de680620002e16000396000f3fe608060405260043610620000d45760003560e01c8063784dbe3b116200008b578063918269051162000061578063918269051462000884578063baecf66314620008de578063d514bbd31462000938578063e9b2e48e14620009a957620000d4565b8063784dbe3b14620005f05780638da5cb5b146200081e5780638fda356d146200087857620000d4565b80631634937f14620000d95780631d9fb309146200028b578063295b4e17146200030a578063390ee728146200033c5780634a3a8383146200052c5780635951a7f6146200055a575b600080fd5b6200024960048036036080811015620000f157600080fd5b81019080803590602001906401000000008111156200010f57600080fd5b8201836020820111156200012257600080fd5b803590602001918460018302840111640100000000831117156200014557600080fd5b91908080601f016020809104026020016040519081016040528093929190818152602001838380828437600081840152601f19601f82011690508083019250505050505050919291929080359060200190640100000000811115620001a957600080fd5b820183602082011115620001bc57600080fd5b80359060200191846001830284011164010000000083111715620001df57600080fd5b91908080601f016020809104026020016040519081016040528093929190818152602001838380828437600081840152601f19601f82011690508083019250505050505050919291929080359060200190929190803560ff16906020019092919050505062000a0a565b604051808273ffffffffffffffffffffffffffffffffffffffff1673ffffffffffffffffffffffffffffffffffffffff16815260200191505060405180910390f35b3480156200029857600080fd5b50620002c860048036036020811015620002b157600080fd5b810190808035906020019092919050505062001216565b604051808273ffffffffffffffffffffffffffffffffffffffff1673ffffffffffffffffffffffffffffffffffffffff16815260200191505060405180910390f35b3480156200031757600080fd5b506200032262001253565b604051808215151515815260200191505060405180910390f35b3480156200034957600080fd5b506200038f600480360360208110156200036257600080fd5b81019080803573ffffffffffffffffffffffffffffffffffffffff16906020019092919050505062001266565b60405180806020018773ffffffffffffffffffffffffffffffffffffffff1673ffffffffffffffffffffffffffffffffffffffff168152602001806020018060200186815260200185815260200184810384528a818151815260200191508051906020019080838360005b8381101562000417578082015181840152602081019050620003fa565b50505050905090810190601f168015620004455780820380516001836020036101000a031916815260200191505b50848103835288818151815260200191508051906020019080838360005b838110156200048057808201518184015260208101905062000463565b50505050905090810190601f168015620004ae5780820380516001836020036101000a031916815260200191505b50848103825287818151815260200191508051906020019080838360005b83811015620004e9578082015181840152602081019050620004cc565b50505050905090810190601f168015620005175780820380516001836020036101000a031916815260200191505b50995050505050505050505060405180910390f35b3480156200053957600080fd5b506200054462001614565b6040518082815260200191505060405180910390f35b3480156200056757600080fd5b506200057262001621565b6040518080602001828103825283818151815260200191508051906020019080838360005b83811015620005b457808201518184015260208101905062000597565b50505050905090810190601f168015620005e25780820380516001836020036101000a031916815260200191505b509250505060405180910390f35b348015620005fd57600080fd5b5062000643600480360360208110156200061657600080fd5b81019080803573ffffffffffffffffffffffffffffffffffffffff169060200190929190505050620016c3565b60405180806020018973ffffffffffffffffffffffffffffffffffffffff1673ffffffffffffffffffffffffffffffffffffffff1681526020018873ffffffffffffffffffffffffffffffffffffffff1673ffffffffffffffffffffffffffffffffffffffff16815260200180602001806020018781526020018681526020018515151515815260200184810384528c818151815260200191508051906020019080838360005b8381101562000707578082015181840152602081019050620006ea565b50505050905090810190601f168015620007355780820380516001836020036101000a031916815260200191505b50848103835289818151815260200191508051906020019080838360005b838110156200077057808201518184015260208101905062000753565b50505050905090810190601f1680156200079e5780820380516001836020036101000a031916815260200191505b50848103825288818151815260200191508051906020019080838360005b83811015620007d9578082015181840152602081019050620007bc565b50505050905090810190601f168015620008075780820380516001836020036101000a031916815260200191505b509b50505050505050505050505060405180910390f35b3480156200082b57600080fd5b50620008366200192c565b604051808273ffffffffffffffffffffffffffffffffffffffff1673ffffffffffffffffffffffffffffffffffffffff16815260200191505060405180910390f35b6200088262001951565b005b3480156200089157600080fd5b506200089c62001c03565b604051808273ffffffffffffffffffffffffffffffffffffffff1673ffffffffffffffffffffffffffffffffffffffff16815260200191505060405180910390f35b348015620008eb57600080fd5b50620008f662001c2c565b604051808273ffffffffffffffffffffffffffffffffffffffff1673ffffffffffffffffffffffffffffffffffffffff16815260200191505060405180910390f35b3480156200094557600080fd5b506200095062001c52565b6040518080602001828103825283818151815260200191508051906020019060200280838360005b838110156200099557808201518184015260208101905062000978565b505050509050019250505060405180910390f35b348015620009b657600080fd5b5062000a0860048036036040811015620009cf57600080fd5b81019080803573ffffffffffffffffffffffffffffffffffffffff16906020019092919080351515906020019092919050505062001ce2565b005b60008060009054906101000a900473ffffffffffffffffffffffffffffffffffffffff1673ffffffffffffffffffffffffffffffffffffffff163373ffffffffffffffffffffffffffffffffffffffff161462000ab3576040517f08c379a000000000000000000000000000000000000000000000000000000000815260040180806020018281038252603581526020018062003cf36035913960400191505060405180910390fd5b60011515600260009054906101000a900473ffffffffffffffffffffffffffffffffffffffff1673ffffffffffffffffffffffffffffffffffffffff16639f8a13d7336040518263ffffffff1660e01b8152600401808273ffffffffffffffffffffffffffffffffffffffff1673ffffffffffffffffffffffffffffffffffffffff16815260200191505060206040518083038186803b15801562000b5757600080fd5b505afa15801562000b6c573d6000803e3d6000fd5b505050506040513d602081101562000b8357600080fd5b810190808051906020019092919050505015151462000bee576040517f08c379a000000000000000000000000000000000000000000000000000000000815260040180806020018281038252602581526020018062003d286025913960400191505060405180910390fd5b60011515600160149054906101000a900460ff1615151462000c5c576040517f08c379a000000000000000000000000000000000000000000000000000000000815260040180806020018281038252604781526020018062003c8b6047913960600191505060405180910390fd5b6000858360405162000c6e9062001d38565b80806020018360ff1660ff168152602001828103825284818151815260200191508051906020019080838360005b8381101562000cb957808201518184015260208101905062000c9c565b50505050905090810190601f16801562000ce75780820380516001836020036101000a031916815260200191505b509350505050604051809103906000f08015801562000d0a573d6000803e3d6000fd5b509050600081905060048190806001815401808255809150509060018203906000526020600020016000909192909190916101000a81548173ffffffffffffffffffffffffffffffffffffffff021916908373ffffffffffffffffffffffffffffffffffffffff1602179055505060405180610100016040528060038054600181600116156101000203166002900480601f01602080910402602001604051908101604052809291908181526020018280546001816001161561010002031660029004801562000e1e5780601f1062000df25761010080835404028352916020019162000e1e565b820191906000526020600020905b81548152906001019060200180831162000e0057829003601f168201915b505050505081526020013073ffffffffffffffffffffffffffffffffffffffff1681526020018273ffffffffffffffffffffffffffffffffffffffff1681526020018881526020018781526020018560ff16815260200186815260200160011515815250600560008373ffffffffffffffffffffffffffffffffffffffff1673ffffffffffffffffffffffffffffffffffffffff168152602001908152602001600020600082015181600001908051906020019062000edf92919062001d46565b5060208201518160010160006101000a81548173ffffffffffffffffffffffffffffffffffffffff021916908373ffffffffffffffffffffffffffffffffffffffff16021790555060408201518160020160006101000a81548173ffffffffffffffffffffffffffffffffffffffff021916908373ffffffffffffffffffffffffffffffffffffffff160217905550606082015181600301908051906020019062000f8c92919062001d46565b50608082015181600401908051906020019062000fab92919062001d46565b5060a0820151816005015560c0820151816006015560e08201518160070160006101000a81548160ff0219169083151502179055509050507fd5138ef107625b064613ede5a900f87da7618e57c214f8018954298d4497fcc7600333838a8a898b600160405180806020018973ffffffffffffffffffffffffffffffffffffffff1673ffffffffffffffffffffffffffffffffffffffff1681526020018873ffffffffffffffffffffffffffffffffffffffff1673ffffffffffffffffffffffffffffffffffffffff16815260200180602001806020018760ff1681526020018681526020018515151515815260200184810384528c818154600181600116156101000203166002900481526020019150805460018160011615610100020316600290048015620011205780601f10620010f45761010080835404028352916020019162001120565b820191906000526020600020905b8154815290600101906020018083116200110257829003601f168201915b5050848103835289818151815260200191508051906020019080838360005b838110156200115c5780820151818401526020810190506200113f565b50505050905090810190601f1680156200118a5780820380516001836020036101000a031916815260200191505b50848103825288818151815260200191508051906020019080838360005b83811015620011c5578082015181840152602081019050620011a8565b50505050905090810190601f168015620011f35780820380516001836020036101000a031916815260200191505b509b50505050505050505050505060405180910390a18092505050949350505050565b600481815481106200122457fe5b906000526020600020016000915054906101000a900473ffffffffffffffffffffffffffffffffffffffff1681565b600160149054906101000a900460ff1681565b60606000606080600080600560008873ffffffffffffffffffffffffffffffffffffffff1673ffffffffffffffffffffffffffffffffffffffff168152602001908152602001600020600001600560008973ffffffffffffffffffffffffffffffffffffffff1673ffffffffffffffffffffffffffffffffffffffff16815260200190815260200160002060020160009054906101000a900473ffffffffffffffffffffffffffffffffffffffff16600560008a73ffffffffffffffffffffffffffffffffffffffff1673ffffffffffffffffffffffffffffffffffffffff168152602001908152602001600020600301600560008b73ffffffffffffffffffffffffffffffffffffffff1673ffffffffffffffffffffffffffffffffffffffff168152602001908152602001600020600401600560008c73ffffffffffffffffffffffffffffffffffffffff1673ffffffffffffffffffffffffffffffffffffffff16815260200190815260200160002060050154600560008d73ffffffffffffffffffffffffffffffffffffffff1673ffffffffffffffffffffffffffffffffffffffff16815260200190815260200160002060060154858054600181600116156101000203166002900480601f016020809104026020016040519081016040528092919081815260200182805460018160011615610100020316600290048015620014b85780601f106200148c57610100808354040283529160200191620014b8565b820191906000526020600020905b8154815290600101906020018083116200149a57829003601f168201915b50505050509550838054600181600116156101000203166002900480601f016020809104026020016040519081016040528092919081815260200182805460018160011615610100020316600290048015620015585780601f106200152c5761010080835404028352916020019162001558565b820191906000526020600020905b8154815290600101906020018083116200153a57829003601f168201915b50505050509350828054600181600116156101000203166002900480601f016020809104026020016040519081016040528092919081815260200182805460018160011615610100020316600290048015620015f85780601f10620015cc57610100808354040283529160200191620015f8565b820191906000526020600020905b815481529060010190602001808311620015da57829003601f168201915b5050505050925095509550955095509550955091939550919395565b6000600480549050905090565b60038054600181600116156101000203166002900480601f016020809104026020016040519081016040528092919081815260200182805460018160011615610100020316600290048015620016bb5780601f106200168f57610100808354040283529160200191620016bb565b820191906000526020600020905b8154815290600101906020018083116200169d57829003601f168201915b505050505081565b6005602052806000526040600020600091509050806000018054600181600116156101000203166002900480601f016020809104026020016040519081016040528092919081815260200182805460018160011615610100020316600290048015620017735780601f10620017475761010080835404028352916020019162001773565b820191906000526020600020905b8154815290600101906020018083116200175557829003601f168201915b5050505050908060010160009054906101000a900473ffffffffffffffffffffffffffffffffffffffff16908060020160009054906101000a900473ffffffffffffffffffffffffffffffffffffffff1690806003018054600181600116156101000203166002900480601f016020809104026020016040519081016040528092919081815260200182805460018160011615610100020316600290048015620018615780601f10620018355761010080835404028352916020019162001861565b820191906000526020600020905b8154815290600101906020018083116200184357829003601f168201915b505050505090806004018054600181600116156101000203166002900480601f016020809104026020016040519081016040528092919081815260200182805460018160011615610100020316600290048015620019035780601f10620018d75761010080835404028352916020019162001903565b820191906000526020600020905b815481529060010190602001808311620018e557829003601f168201915b5050505050908060050154908060060154908060070160009054906101000a900460ff16905088565b6000809054906101000a900473ffffffffffffffffffffffffffffffffffffffff1681565b6000809054906101000a900473ffffffffffffffffffffffffffffffffffffffff1673ffffffffffffffffffffffffffffffffffffffff163373ffffffffffffffffffffffffffffffffffffffff1614620019f8576040517f08c379a000000000000000000000000000000000000000000000000000000000815260040180806020018281038252603081526020018062003d4d6030913960400191505060405180910390fd5b670de0b6b3a7640000600260009054906101000a900473ffffffffffffffffffffffffffffffffffffffff1673ffffffffffffffffffffffffffffffffffffffff16638e5ae9886040518163ffffffff1660e01b815260040160206040518083038186803b15801562001a6a57600080fd5b505afa15801562001a7f573d6000803e3d6000fd5b505050506040513d602081101562001a9657600080fd5b810190808051906020019092919050505060ff160267ffffffffffffffff1634101562001b0f576040517f08c379a000000000000000000000000000000000000000000000000000000000815260040180806020018281038252603581526020018062003d7d6035913960400191505060405180910390fd5b60001515600160149054906101000a900460ff1615151462001b7d576040517f08c379a000000000000000000000000000000000000000000000000000000000815260040180806020018281038252602181526020018062003cd26021913960400191505060405180910390fd5b60018060146101000a81548160ff021916908315150217905550600160009054906101000a900473ffffffffffffffffffffffffffffffffffffffff1673ffffffffffffffffffffffffffffffffffffffff166108fc349081150290604051600060405180830381858888f1935050505015801562001c00573d6000803e3d6000fd5b50565b60008060009054906101000a900473ffffffffffffffffffffffffffffffffffffffff16905090565b600160009054906101000a900473ffffffffffffffffffffffffffffffffffffffff1681565b6060600480548060200260200160405190810160405280929190818152602001828054801562001cd857602002820191906000526020600020905b8160009054906101000a900473ffffffffffffffffffffffffffffffffffffffff1673ffffffffffffffffffffffffffffffffffffffff168152602001906001019080831162001c8d575b5050505050905090565b801515600560008473ffffffffffffffffffffffffffffffffffffffff1673ffffffffffffffffffffffffffffffffffffffff16815260200190815260200160002060070160009054906101000a905050505050565b611e958062001df683390190565b828054600181600116156101000203166002900490600052602060002090601f016020900481019282601f1062001d8957805160ff191683800117855562001dba565b8280016001018555821562001dba579182015b8281111562001db957825182559160200191906001019062001d9c565b5b50905062001dc9919062001dcd565b5090565b62001df291905b8082111562001dee57600081600090555060010162001dd4565b5090565b9056fe60806040523480156200001157600080fd5b5060405162001e9538038062001e95833981810160405260408110156200003757600080fd5b81019080805160405193929190846401000000008211156200005857600080fd5b838201915060208201858111156200006f57600080fd5b82518660018202830111640100000000821117156200008d57600080fd5b8083526020830192505050908051906020019080838360005b83811015620000c3578082015181840152602081019050620000a6565b50505050905090810190601f168015620000f15780820380516001836020036101000a031916815260200191505b506040526020018051906020019092919050505033600360006101000a81548173ffffffffffffffffffffffffffffffffffffffff021916908373ffffffffffffffffffffffffffffffffffffffff16021790555030600460006101000a81548173ffffffffffffffffffffffffffffffffffffffff021916908373ffffffffffffffffffffffffffffffffffffffff160217905550600360009054906101000a900473ffffffffffffffffffffffffffffffffffffffff16600660046101000a81548173ffffffffffffffffffffffffffffffffffffffff021916908373ffffffffffffffffffffffffffffffffffffffff16021790555081600590805190602001906200020292919062000226565b5080600660006101000a81548160ff021916908360ff1602179055505050620002d5565b828054600181600116156101000203166002900490600052602060002090601f016020900481019282601f106200026957805160ff19168380011785556200029a565b828001600101855582156200029a579182015b82811115620002995782518255916020019190600101906200027c565b5b509050620002a99190620002ad565b5090565b620002d291905b80821115620002ce576000816000905550600101620002b4565b5090565b90565b611bb080620002e56000396000f3fe60806040526004361061011f5760003560e01c806370a08231116100a0578063cca3e83211610064578063cca3e83214610633578063d421ebbb14610698578063dd4549b7146106ef578063dd62ed3e1461073d578063f2a86517146107c25761011f565b806370a082311461046057806371eba703146104c557806382edaf94146104f6578063a457c2d71461054d578063a9059cbb146105c05761011f565b806339509351116100e757806339509351146102fd5780633ef0f8461461037057806360ce4ad01461039b57806364082413146103a5578063659728ce146103d05761011f565b8063095ea7b31461012457806318160ddd1461019757806323b872dd146101c25780632d182a1d146102555780633474e3b5146102ac575b600080fd5b34801561013057600080fd5b5061017d6004803603604081101561014757600080fd5b81019080803573ffffffffffffffffffffffffffffffffffffffff169060200190929190803590602001909291905050506107f7565b604051808215151515815260200191505060405180910390f35b3480156101a357600080fd5b506101ac610815565b6040518082815260200191505060405180910390f35b3480156101ce57600080fd5b5061023b600480360360608110156101e557600080fd5b81019080803573ffffffffffffffffffffffffffffffffffffffff169060200190929190803573ffffffffffffffffffffffffffffffffffffffff1690602001909291908035906020019092919050505061081f565b604051808215151515815260200191505060405180910390f35b34801561026157600080fd5b5061026a6108f8565b604051808273ffffffffffffffffffffffffffffffffffffffff1673ffffffffffffffffffffffffffffffffffffffff16815260200191505060405180910390f35b3480156102b857600080fd5b506102fb600480360360208110156102cf57600080fd5b81019080803573ffffffffffffffffffffffffffffffffffffffff16906020019092919050505061091e565b005b34801561030957600080fd5b506103566004803603604081101561032057600080fd5b81019080803573ffffffffffffffffffffffffffffffffffffffff16906020019092919080359060200190929190505050610a52565b604051808215151515815260200191505060405180910390f35b34801561037c57600080fd5b50610385610b05565b6040518082815260200191505060405180910390f35b6103a3610b1f565b005b3480156103b157600080fd5b506103ba610bd5565b6040518082815260200191505060405180910390f35b3480156103dc57600080fd5b506103e5610bf3565b6040518080602001828103825283818151815260200191508051906020019080838360005b8381101561042557808201518184015260208101905061040a565b50505050905090810190601f1680156104525780820380516001836020036101000a031916815260200191505b509250505060405180910390f35b34801561046c57600080fd5b506104af6004803603602081101561048357600080fd5b81019080803573ffffffffffffffffffffffffffffffffffffffff169060200190929190505050610c91565b6040518082815260200191505060405180910390f35b3480156104d157600080fd5b506104da610cd9565b604051808260ff1660ff16815260200191505060405180910390f35b34801561050257600080fd5b5061050b610cec565b604051808273ffffffffffffffffffffffffffffffffffffffff1673ffffffffffffffffffffffffffffffffffffffff16815260200191505060405180910390f35b34801561055957600080fd5b506105a66004803603604081101561057057600080fd5b81019080803573ffffffffffffffffffffffffffffffffffffffff16906020019092919080359060200190929190505050610d12565b604051808215151515815260200191505060405180910390f35b3480156105cc57600080fd5b50610619600480360360408110156105e357600080fd5b81019080803573ffffffffffffffffffffffffffffffffffffffff16906020019092919080359060200190929190505050610ddf565b604051808215151515815260200191505060405180910390f35b34801561063f57600080fd5b506106826004803603602081101561065657600080fd5b81019080803573ffffffffffffffffffffffffffffffffffffffff169060200190929190505050610dfd565b6040518082815260200191505060405180910390f35b3480156106a457600080fd5b506106ad610e0f565b604051808273ffffffffffffffffffffffffffffffffffffffff1673ffffffffffffffffffffffffffffffffffffffff16815260200191505060405180910390f35b61073b6004803603604081101561070557600080fd5b8101908080359060200190929190803573ffffffffffffffffffffffffffffffffffffffff169060200190929190505050610e39565b005b34801561074957600080fd5b506107ac6004803603604081101561076057600080fd5b81019080803573ffffffffffffffffffffffffffffffffffffffff169060200190929190803573ffffffffffffffffffffffffffffffffffffffff169060200190929190505050610f2e565b6040518082815260200191505060405180910390f35b3480156107ce57600080fd5b506107d7610fb5565b604051808262ffffff1662ffffff16815260200191505060405180910390f35b600061080b610804610fca565b8484610fd2565b6001905092915050565b6000600254905090565b600061082c8484846111c9565b6108ed84610838610fca565b6108e885604051806060016040528060288152602001611a1260289139600160008b73ffffffffffffffffffffffffffffffffffffffff1673ffffffffffffffffffffffffffffffffffffffff168152602001908152602001600020600061089e610fca565b73ffffffffffffffffffffffffffffffffffffffff1673ffffffffffffffffffffffffffffffffffffffff1681526020019081526020016000205461147f9092919063ffffffff16565b610fd2565b600190509392505050565b600360009054906101000a900473ffffffffffffffffffffffffffffffffffffffff1681565b600660049054906101000a900473ffffffffffffffffffffffffffffffffffffffff1673ffffffffffffffffffffffffffffffffffffffff1663918269056040518163ffffffff1660e01b815260040160206040518083038186803b15801561098657600080fd5b505afa15801561099a573d6000803e3d6000fd5b505050506040513d60208110156109b057600080fd5b810190808051906020019092919050505073ffffffffffffffffffffffffffffffffffffffff163373ffffffffffffffffffffffffffffffffffffffff1614610a44576040517f08c379a0000000000000000000000000000000000000000000000000000000008152600401808060200182810382526049815260200180611aa46049913960600191505060405180910390fd5b610a4f81600161153f565b50565b6000610afb610a5f610fca565b84610af68560016000610a70610fca565b73ffffffffffffffffffffffffffffffffffffffff1673ffffffffffffffffffffffffffffffffffffffff16815260200190815260200160002060008973ffffffffffffffffffffffffffffffffffffffff1673ffffffffffffffffffffffffffffffffffffffff168152602001908152602001600020546116f790919063ffffffff16565b610fd2565b6001905092915050565b6000600660009054906101000a900460ff1660ff16905090565b600660009054906101000a900460ff1660ff16341015610b8a576040517f08c379a0000000000000000000000000000000000000000000000000000000008152600401808060200182810382526032815260200180611aed6032913960400191505060405180910390fd5b60003390506006600181819054906101000a900462ffffff168092919060010191906101000a81548162ffffff021916908362ffffff16021790555050610bd281600161177f565b50565b6000600660019054906101000a900462ffffff1662ffffff16905090565b60058054600181600116156101000203166002900480601f016020809104026020016040519081016040528092919081815260200182805460018160011615610100020316600290048015610c895780601f10610c5e57610100808354040283529160200191610c89565b820191906000526020600020905b815481529060010190602001808311610c6c57829003601f168201915b505050505081565b60008060008373ffffffffffffffffffffffffffffffffffffffff1673ffffffffffffffffffffffffffffffffffffffff168152602001908152602001600020549050919050565b600660009054906101000a900460ff1681565b600460009054906101000a900473ffffffffffffffffffffffffffffffffffffffff1681565b6000610dd5610d1f610fca565b84610dd085604051806060016040528060258152602001611b576025913960016000610d49610fca565b73ffffffffffffffffffffffffffffffffffffffff1673ffffffffffffffffffffffffffffffffffffffff16815260200190815260200160002060008a73ffffffffffffffffffffffffffffffffffffffff1673ffffffffffffffffffffffffffffffffffffffff1681526020019081526020016000205461147f9092919063ffffffff16565b610fd2565b6001905092915050565b6000610df3610dec610fca565b84846111c9565b6001905092915050565b6000610e0882610c91565b9050919050565b6000600360009054906101000a900473ffffffffffffffffffffffffffffffffffffffff16905090565b600073ffffffffffffffffffffffffffffffffffffffff163373ffffffffffffffffffffffffffffffffffffffff1614158015610ec45750600460009054906101000a900473ffffffffffffffffffffffffffffffffffffffff1673ffffffffffffffffffffffffffffffffffffffff163373ffffffffffffffffffffffffffffffffffffffff1614155b610f19576040517f08c379a0000000000000000000000000000000000000000000000000000000008152600401808060200182810382526038815260200180611b1f6038913960400191505060405180910390fd5b6000339050610f298183856111c9565b505050565b6000600160008473ffffffffffffffffffffffffffffffffffffffff1673ffffffffffffffffffffffffffffffffffffffff16815260200190815260200160002060008373ffffffffffffffffffffffffffffffffffffffff1673ffffffffffffffffffffffffffffffffffffffff16815260200190815260200160002054905092915050565b600660019054906101000a900462ffffff1681565b600033905090565b600073ffffffffffffffffffffffffffffffffffffffff168373ffffffffffffffffffffffffffffffffffffffff161415611058576040517f08c379a0000000000000000000000000000000000000000000000000000000008152600401808060200182810382526024815260200180611a806024913960400191505060405180910390fd5b600073ffffffffffffffffffffffffffffffffffffffff168273ffffffffffffffffffffffffffffffffffffffff1614156110de576040517f08c379a00000000000000000000000000000000000000000000000000000000081526004018080602001828103825260228152602001806119ca6022913960400191505060405180910390fd5b80600160008573ffffffffffffffffffffffffffffffffffffffff1673ffffffffffffffffffffffffffffffffffffffff16815260200190815260200160002060008473ffffffffffffffffffffffffffffffffffffffff1673ffffffffffffffffffffffffffffffffffffffff168152602001908152602001600020819055508173ffffffffffffffffffffffffffffffffffffffff168373ffffffffffffffffffffffffffffffffffffffff167f8c5be1e5ebec7d5bd14f71427d1e84f3dd0314c0f7b2291e5b200ac8c7c3b925836040518082815260200191505060405180910390a3505050565b600073ffffffffffffffffffffffffffffffffffffffff168373ffffffffffffffffffffffffffffffffffffffff16141561124f576040517f08c379a0000000000000000000000000000000000000000000000000000000008152600401808060200182810382526025815260200180611a5b6025913960400191505060405180910390fd5b600073ffffffffffffffffffffffffffffffffffffffff168273ffffffffffffffffffffffffffffffffffffffff1614156112d5576040517f08c379a00000000000000000000000000000000000000000000000000000000081526004018080602001828103825260238152602001806119856023913960400191505060405180910390fd5b611340816040518060600160405280602681526020016119ec602691396000808773ffffffffffffffffffffffffffffffffffffffff1673ffffffffffffffffffffffffffffffffffffffff1681526020019081526020016000205461147f9092919063ffffffff16565b6000808573ffffffffffffffffffffffffffffffffffffffff1673ffffffffffffffffffffffffffffffffffffffff168152602001908152602001600020819055506113d3816000808573ffffffffffffffffffffffffffffffffffffffff1673ffffffffffffffffffffffffffffffffffffffff168152602001908152602001600020546116f790919063ffffffff16565b6000808473ffffffffffffffffffffffffffffffffffffffff1673ffffffffffffffffffffffffffffffffffffffff168152602001908152602001600020819055508173ffffffffffffffffffffffffffffffffffffffff168373ffffffffffffffffffffffffffffffffffffffff167fddf252ad1be2c89b69c2b068fc378daa952ba7f163c4a11628f55a4df523b3ef836040518082815260200191505060405180910390a3505050565b600083831115829061152c576040517f08c379a00000000000000000000000000000000000000000000000000000000081526004018080602001828103825283818151815260200191508051906020019080838360005b838110156114f15780820151818401526020810190506114d6565b50505050905090810190601f16801561151e5780820380516001836020036101000a031916815260200191505b509250505060405180910390fd5b5060008385039050809150509392505050565b600073ffffffffffffffffffffffffffffffffffffffff168273ffffffffffffffffffffffffffffffffffffffff1614156115c5576040517f08c379a0000000000000000000000000000000000000000000000000000000008152600401808060200182810382526021815260200180611a3a6021913960400191505060405180910390fd5b611630816040518060600160405280602281526020016119a8602291396000808673ffffffffffffffffffffffffffffffffffffffff1673ffffffffffffffffffffffffffffffffffffffff1681526020019081526020016000205461147f9092919063ffffffff16565b6000808473ffffffffffffffffffffffffffffffffffffffff1673ffffffffffffffffffffffffffffffffffffffff168152602001908152602001600020819055506116878160025461193a90919063ffffffff16565b600281905550600073ffffffffffffffffffffffffffffffffffffffff168273ffffffffffffffffffffffffffffffffffffffff167fddf252ad1be2c89b69c2b068fc378daa952ba7f163c4a11628f55a4df523b3ef836040518082815260200191505060405180910390a35050565b600080828401905083811015611775576040517f08c379a000000000000000000000000000000000000000000000000000000000815260040180806020018281038252601b8152602001807f536166654d6174683a206164646974696f6e206f766572666c6f77000000000081525060200191505060405180910390fd5b8091505092915050565b600073ffffffffffffffffffffffffffffffffffffffff168273ffffffffffffffffffffffffffffffffffffffff161415611822576040517f08c379a000000000000000000000000000000000000000000000000000000000815260040180806020018281038252601f8152602001807f45524332303a206d696e7420746f20746865207a65726f20616464726573730081525060200191505060405180910390fd5b611837816002546116f790919063ffffffff16565b60028190555061188e816000808573ffffffffffffffffffffffffffffffffffffffff1673ffffffffffffffffffffffffffffffffffffffff168152602001908152602001600020546116f790919063ffffffff16565b6000808473ffffffffffffffffffffffffffffffffffffffff1673ffffffffffffffffffffffffffffffffffffffff168152602001908152602001600020819055508173ffffffffffffffffffffffffffffffffffffffff16600073ffffffffffffffffffffffffffffffffffffffff167fddf252ad1be2c89b69c2b068fc378daa952ba7f163c4a11628f55a4df523b3ef836040518082815260200191505060405180910390a35050565b600061197c83836040518060400160405280601e81526020017f536166654d6174683a207375627472616374696f6e206f766572666c6f77000081525061147f565b90509291505056fe45524332303a207472616e7366657220746f20746865207a65726f206164647265737345524332303a206275726e20616d6f756e7420657863656564732062616c616e636545524332303a20617070726f766520746f20746865207a65726f206164647265737345524332303a207472616e7366657220616d6f756e7420657863656564732062616c616e636545524332303a207472616e7366657220616d6f756e74206578636565647320616c6c6f77616e636545524332303a206275726e2066726f6d20746865207a65726f206164647265737345524332303a207472616e736665722066726f6d20746865207a65726f206164647265737345524332303a20617070726f76652066726f6d20746865207a65726f20616464726573736f6e6c792074686520627573696e6573732063616e206275726e2074686520746f6b656e207768656e20697420616363657074732074686520746f6b656e206173207061796d656e74707269636520706169642073686f756c642062652061746c6561737420746865207072696365206f6620746865206465616c73656e6465722063616e6e6f7420626520746865207a65726f2061646472657373206f722074686520636f6e747261637420697473656c6645524332303a2064656372656173656420616c6c6f77616e63652062656c6f77207a65726fa265627a7a723158207356f7e436862580cfb296b932df4e3fabf34b687a702653a3c40fe65a58dea664736f6c6343000510003274686520627573696e6573732063616e206f6e6c79206164642061206e6577206465616c206f6e63652074686520627573696e65737366656520686173206265656e2070616964627573696e6573732068617320616c7265616479207061696420746865206665654f6e6c792074686520627573696e65737320636f6e7472616374206f776e65722063616e20637265617465206e6577206465616c7374686520627573696e657373206d757374206265206163746976652063757272656e746c794f6e6c792074686520627573696e65737320616464726573732063616e2063616c6c20746869732066756e6374696f6e7468652076616c7565206d75737420626520626967676572206f7220657175616c20746f2074686520627573696e65737320666565a265627a7a72315820faa1b9faae27efbdc357c11dfdb19e4386042d6590bd824fd65f6127c53dd63564736f6c63430005100032",
  "source": "pragma solidity >=0.4.21 <0.6.2;\n\nimport \"./LoveEconomy.sol\";\nimport \"./DealsToken.sol\";\n\ncontract LocalBusiness {\n\naddress public owner;\naddress payable public LoveEconomyAddress;\nbool public paid = false;\n\nLoveEconomy loveEconomy;\n\nstring public businessName;\n\nevent DealCreated(\n    string businessName,\n    address businessAddress, // which business contract the deal belongs to\n    address tokenContractAddress,\n    string dealName,\n    string dealDetails,\n    uint price,\n    uint expiryDate,\n    bool active\n  );\n\n// supply will not be included as once the business puts up a deal, anyone on the platform should be able to use it, hence no limit should be set\nstruct Deal {\n    string businessName;\n    address businessContractAddress;\n    address tokenContractAddress; // could be used as the id\n    string dealName; // can be two for one or % discount\n    string dealDetails;\n    uint price;\n    uint expiryDate;\n    bool active;\n}\n\n// array holding all the deals\n\naddress[] public tokenContracts;\nmapping (address => Deal) public tokenAddressToDeal;\n\n// set owner of newly created business contract to the business address that created the contract\nconstructor(address _businessAddress, string memory _businessName) public {\n    LoveEconomyAddress = msg.sender; // address of the LoveEconomy contract\n    owner = _businessAddress;\n    businessName = _businessName;\n    loveEconomy = LoveEconomy(LoveEconomyAddress);\n}\n\nfunction activateContract() public payable {\n    require(msg.sender == owner, \"Only the business address can call this function\");\n    require(msg.value >= loveEconomy.businessFee() * 10**18, \"the value must be bigger or equal to the business fee\");\n    require(paid == false, \"business has already paid the fee\");\n\n    paid = true;\n    address(LoveEconomyAddress).transfer(msg.value);\n}\n\n\nfunction addDeal(string memory _dealName, string memory _dealDetails, uint _expiryDate, uint8 _price) public payable returns(address) {\n    require(msg.sender == owner, \"Only the business contract owner can create new deals\");\n    require(loveEconomy.isActive(msg.sender) == true, \"the business must be active currently\");\n    // the business that is creating this deal must be active\n    //require(_price > 0, \"price needs to be higher than zero\"); //price needs to be more than 0\n    require(paid == true, \"the business can only add a new deal once the businessfee has been paid\");\n\n     // Deploy new token contract\n    DealsToken newTokenContract = new DealsToken(_dealName, _price);\n    // Store the new contract address\n    address tokenContractAddress = address(newTokenContract);\n\n    tokenContracts.push(tokenContractAddress);\n\n    tokenAddressToDeal[tokenContractAddress] = Deal(businessName,\n                                                    address(this),\n                                                    tokenContractAddress,\n                                                    _dealName,\n                                                    _dealDetails,\n                                                    _price,\n                                                    _expiryDate,\n                                                    true);\n\n    emit DealCreated(businessName, msg.sender, tokenContractAddress, _dealName, _dealDetails,\n                       _price, _expiryDate, true);\n   return(tokenContractAddress);\n}\n\n// function to return the number of deals created by the business\nfunction getDealCount() public view returns(uint){\n        return tokenContracts.length;\n}\n\n// set a deal to no longer be active\nfunction setDealActiveFlag(address _tokenAddress, bool _active) public view {\n        tokenAddressToDeal[_tokenAddress].active == _active;\n}\n\nfunction getBusinessAddress() public view returns(address) {\n    return owner;\n}\n\n// return the array of deals\nfunction getAllDeals() public view returns(address[] memory){\n    return tokenContracts;\n}\n\nfunction getDealDetails(address _tokenAddress) public view\n        returns(string memory, address, string memory, string memory, uint,\n                uint) {\n\n            return(\n            tokenAddressToDeal[_tokenAddress].businessName,\n            tokenAddressToDeal[_tokenAddress].tokenContractAddress,\n            tokenAddressToDeal[_tokenAddress].dealName,\n            tokenAddressToDeal[_tokenAddress].dealDetails,\n            tokenAddressToDeal[_tokenAddress].price,\n            tokenAddressToDeal[_tokenAddress].expiryDate\n            );\n\n        }\n\n\n}",
  "sourcePath": "/Users/julikapahl30/FinTech/GitHub/LoveEconomy/contracts/LocalBusiness.sol",
  "compiler": {
    "name": "solc",
    "version": "0.5.16+commit.9c3226ce.Emscripten.clang"
  },
  "schemaVersion": "3.0.22",
  "updatedAt": "2020-02-09T18:07:26.071Z",
  "devdoc": {
    "methods": {}
  },
  "userdoc": {
    "methods": {}
  }
}