{
  "contractName": "LoveEconomy",
  "abi": [
    {
      "inputs": [
        {
          "internalType": "uint256",
          "name": "_discountCode",
          "type": "uint256"
        },
        {
          "internalType": "uint256",
          "name": "_userFee",
          "type": "uint256"
        }
      ],
      "payable": false,
      "stateMutability": "nonpayable",
      "type": "constructor"
    },
    {
      "anonymous": false,
      "inputs": [
        {
          "indexed": false,
          "internalType": "string",
          "name": "_businessName",
          "type": "string"
        },
        {
          "indexed": false,
          "internalType": "address",
          "name": "_businessAddress",
          "type": "address"
        },
        {
          "indexed": false,
          "internalType": "address",
          "name": "_businessContractAddress",
          "type": "address"
        },
        {
          "indexed": false,
          "internalType": "bool",
          "name": "_active",
          "type": "bool"
        }
      ],
      "name": "businessAdded",
      "type": "event"
    },
    {
      "constant": true,
      "inputs": [
        {
          "internalType": "uint256",
          "name": "",
          "type": "uint256"
        }
      ],
      "name": "AllBusinesses",
      "outputs": [
        {
          "internalType": "address",
          "name": "",
          "type": "address"
        }
      ],
      "payable": false,
      "stateMutability": "view",
      "type": "function"
    },
    {
      "constant": true,
      "inputs": [
        {
          "internalType": "uint256",
          "name": "",
          "type": "uint256"
        }
      ],
      "name": "AllUsers",
      "outputs": [
        {
          "internalType": "address",
          "name": "",
          "type": "address"
        }
      ],
      "payable": false,
      "stateMutability": "view",
      "type": "function"
    },
    {
      "constant": true,
      "inputs": [
        {
          "internalType": "address",
          "name": "",
          "type": "address"
        }
      ],
      "name": "businessAddresstoDetails",
      "outputs": [
        {
          "internalType": "string",
          "name": "businessName",
          "type": "string"
        },
        {
          "internalType": "address",
          "name": "businessContractAddress",
          "type": "address"
        },
        {
          "internalType": "bool",
          "name": "active",
          "type": "bool"
        }
      ],
      "payable": false,
      "stateMutability": "view",
      "type": "function"
    },
    {
      "constant": true,
      "inputs": [],
      "name": "businessCount",
      "outputs": [
        {
          "internalType": "uint256",
          "name": "",
          "type": "uint256"
        }
      ],
      "payable": false,
      "stateMutability": "view",
      "type": "function"
    },
    {
      "constant": true,
      "inputs": [],
      "name": "discountCodeCount",
      "outputs": [
        {
          "internalType": "uint256",
          "name": "",
          "type": "uint256"
        }
      ],
      "payable": false,
      "stateMutability": "view",
      "type": "function"
    },
    {
      "constant": true,
      "inputs": [],
      "name": "owner",
      "outputs": [
        {
          "internalType": "address",
          "name": "",
          "type": "address"
        }
      ],
      "payable": false,
      "stateMutability": "view",
      "type": "function"
    },
    {
      "constant": true,
      "inputs": [
        {
          "internalType": "address",
          "name": "",
          "type": "address"
        }
      ],
      "name": "userAddresstoDetails",
      "outputs": [
        {
          "internalType": "string",
          "name": "userName",
          "type": "string"
        },
        {
          "internalType": "bool",
          "name": "discountCodeUsed",
          "type": "bool"
        },
        {
          "internalType": "bool",
          "name": "active",
          "type": "bool"
        }
      ],
      "payable": false,
      "stateMutability": "view",
      "type": "function"
    },
    {
      "constant": true,
      "inputs": [],
      "name": "userCount",
      "outputs": [
        {
          "internalType": "uint256",
          "name": "",
          "type": "uint256"
        }
      ],
      "payable": false,
      "stateMutability": "view",
      "type": "function"
    },
    {
      "constant": true,
      "inputs": [],
      "name": "userFee",
      "outputs": [
        {
          "internalType": "uint256",
          "name": "",
          "type": "uint256"
        }
      ],
      "payable": false,
      "stateMutability": "view",
      "type": "function"
    },
    {
      "constant": false,
      "inputs": [
        {
          "internalType": "address",
          "name": "_businessAddress",
          "type": "address"
        },
        {
          "internalType": "string",
          "name": "_businessName",
          "type": "string"
        }
      ],
      "name": "addBusiness",
      "outputs": [],
      "payable": false,
      "stateMutability": "nonpayable",
      "type": "function"
    },
    {
      "constant": false,
      "inputs": [
        {
          "internalType": "address",
          "name": "_userAddress",
          "type": "address"
        },
        {
          "internalType": "string",
          "name": "_userName",
          "type": "string"
        },
        {
          "internalType": "bool",
          "name": "_discountCodeUsed",
          "type": "bool"
        },
        {
          "internalType": "uint256",
          "name": "_discountCode",
          "type": "uint256"
        }
      ],
      "name": "addDiscountCodeUser",
      "outputs": [],
      "payable": false,
      "stateMutability": "nonpayable",
      "type": "function"
    },
    {
      "constant": false,
      "inputs": [
        {
          "internalType": "address",
          "name": "_userAddress",
          "type": "address"
        },
        {
          "internalType": "string",
          "name": "_userName",
          "type": "string"
        }
      ],
      "name": "addUser",
      "outputs": [],
      "payable": true,
      "stateMutability": "payable",
      "type": "function"
    },
    {
      "constant": false,
      "inputs": [
        {
          "internalType": "address",
          "name": "_businessWalletAddress",
          "type": "address"
        },
        {
          "internalType": "bool",
          "name": "_active",
          "type": "bool"
        }
      ],
      "name": "setActiveFlag",
      "outputs": [],
      "payable": false,
      "stateMutability": "nonpayable",
      "type": "function"
    },
    {
      "constant": false,
      "inputs": [
        {
          "internalType": "uint256",
          "name": "_newFee",
          "type": "uint256"
        }
      ],
      "name": "updateUserFee",
      "outputs": [],
      "payable": false,
      "stateMutability": "nonpayable",
      "type": "function"
    },
    {
      "constant": true,
      "inputs": [],
      "name": "getAllBusinesses",
      "outputs": [
        {
          "internalType": "address[]",
          "name": "",
          "type": "address[]"
        }
      ],
      "payable": false,
      "stateMutability": "view",
      "type": "function"
    },
    {
      "constant": true,
      "inputs": [],
      "name": "getAllUsers",
      "outputs": [
        {
          "internalType": "address[]",
          "name": "",
          "type": "address[]"
        }
      ],
      "payable": false,
      "stateMutability": "view",
      "type": "function"
    },
    {
      "constant": true,
      "inputs": [
        {
          "internalType": "address",
          "name": "_businessWalletAddress",
          "type": "address"
        }
      ],
      "name": "getBusinessDetails",
      "outputs": [
        {
          "internalType": "string",
          "name": "businessName",
          "type": "string"
        },
        {
          "internalType": "address",
          "name": "businessContractAddress",
          "type": "address"
        },
        {
          "internalType": "bool",
          "name": "active",
          "type": "bool"
        }
      ],
      "payable": false,
      "stateMutability": "view",
      "type": "function"
    },
    {
      "constant": true,
      "inputs": [
        {
          "internalType": "address",
          "name": "_businessWalletAddress",
          "type": "address"
        }
      ],
      "name": "isActive",
      "outputs": [
        {
          "internalType": "bool",
          "name": "active",
          "type": "bool"
        }
      ],
      "payable": false,
      "stateMutability": "view",
      "type": "function"
    },
    {
      "constant": true,
      "inputs": [
        {
          "internalType": "address",
          "name": "_userAddress",
          "type": "address"
        }
      ],
      "name": "isUserActive",
      "outputs": [
        {
          "internalType": "bool",
          "name": "active",
          "type": "bool"
        }
      ],
      "payable": false,
      "stateMutability": "view",
      "type": "function"
    }
  ],
  "bytecode": "0x608060405234801561001057600080fd5b50604051615f4c380380615f4c8339818101604052604081101561003357600080fd5b81019080805190602001909291908051906020019092919050505033600260006101000a81548173ffffffffffffffffffffffffffffffffffffffff021916908373ffffffffffffffffffffffffffffffffffffffff16021790555081600381905550806004819055505050615e9e806100ae6000396000f3fe6080604052600436106200012e5760003560e01c806396ba3ffa11620000af578063bc9e2b6d116200006d578063bc9e2b6d1462000865578063da2aff2a1462000974578063e2842d7914620009a2578063e83dfd071462000a13578063ed57c2441462000a74576200012e565b806396ba3ffa146200058c57806398c46183146200060b5780639ee20b15146200067c5780639f8a13d714620006e9578063aeccc77f1462000756576200012e565b80632df62c3d11620000fd5780632df62c3d146200037657806342a1bbd214620003f55780634b68d43114620004235780635ee4f86d14620005045780638da5cb5b1462000532576200012e565b806307973ccf146200013357806310f516c714620001615780632058ea2c146200025057806327e4dcf71462000337575b600080fd5b3480156200014057600080fd5b506200014b62000b79565b6040518082815260200191505060405180910390f35b3480156200016e57600080fd5b506200024e600480360360408110156200018757600080fd5b81019080803573ffffffffffffffffffffffffffffffffffffffff16906020019092919080359060200190640100000000811115620001c557600080fd5b820183602082011115620001d857600080fd5b80359060200191846001830284011164010000000083111715620001fb57600080fd5b91908080601f016020809104026020016040519081016040528093929190818152602001838380828437600081840152601f19601f82011690508083019250505050505050919291929050505062000b7f565b005b3480156200025d57600080fd5b50620002a3600480360360208110156200027657600080fd5b81019080803573ffffffffffffffffffffffffffffffffffffffff1690602001909291905050506200105c565b60405180806020018415151515815260200183151515158152602001828103825285818151815260200191508051906020019080838360005b83811015620002f9578082015181840152602081019050620002dc565b50505050905090810190601f168015620003275780820380516001836020036101000a031916815260200191505b5094505050505060405180910390f35b3480156200034457600080fd5b5062000374600480360360208110156200035d57600080fd5b81019080803590602001909291905050506200113c565b005b3480156200038357600080fd5b50620003b3600480360360208110156200039c57600080fd5b8101908080359060200190929190505050620011ee565b604051808273ffffffffffffffffffffffffffffffffffffffff1673ffffffffffffffffffffffffffffffffffffffff16815260200191505060405180910390f35b3480156200040257600080fd5b506200040d6200122b565b6040518082815260200191505060405180910390f35b62000502600480360360408110156200043b57600080fd5b81019080803573ffffffffffffffffffffffffffffffffffffffff169060200190929190803590602001906401000000008111156200047957600080fd5b8201836020820111156200048c57600080fd5b80359060200191846001830284011164010000000083111715620004af57600080fd5b91908080601f016020809104026020016040519081016040528093929190818152602001838380828437600081840152601f19601f82011690508083019250505050505050919291929050505062001231565b005b3480156200051157600080fd5b506200051c620014a1565b6040518082815260200191505060405180910390f35b3480156200053f57600080fd5b506200054a620014a7565b604051808273ffffffffffffffffffffffffffffffffffffffff1673ffffffffffffffffffffffffffffffffffffffff16815260200191505060405180910390f35b3480156200059957600080fd5b50620005c960048036036020811015620005b257600080fd5b8101908080359060200190929190505050620014cd565b604051808273ffffffffffffffffffffffffffffffffffffffff1673ffffffffffffffffffffffffffffffffffffffff16815260200191505060405180910390f35b3480156200061857600080fd5b50620006236200150a565b6040518080602001828103825283818151815260200191508051906020019060200280838360005b83811015620006685780820151818401526020810190506200064b565b505050509050019250505060405180910390f35b3480156200068957600080fd5b50620006cf60048036036020811015620006a257600080fd5b81019080803573ffffffffffffffffffffffffffffffffffffffff1690602001909291905050506200159a565b604051808215151515815260200191505060405180910390f35b348015620006f657600080fd5b506200073c600480360360208110156200070f57600080fd5b81019080803573ffffffffffffffffffffffffffffffffffffffff169060200190929190505050620015f3565b604051808215151515815260200191505060405180910390f35b3480156200076357600080fd5b50620007a9600480360360208110156200077c57600080fd5b81019080803573ffffffffffffffffffffffffffffffffffffffff1690602001909291905050506200164c565b60405180806020018473ffffffffffffffffffffffffffffffffffffffff1673ffffffffffffffffffffffffffffffffffffffff16815260200183151515158152602001828103825285818151815260200191508051906020019080838360005b83811015620008275780820151818401526020810190506200080a565b50505050905090810190601f168015620008555780820380516001836020036101000a031916815260200191505b5094505050505060405180910390f35b3480156200087257600080fd5b50620008b8600480360360208110156200088b57600080fd5b81019080803573ffffffffffffffffffffffffffffffffffffffff1690602001909291905050506200173f565b60405180806020018473ffffffffffffffffffffffffffffffffffffffff1673ffffffffffffffffffffffffffffffffffffffff16815260200183151515158152602001828103825285818151815260200191508051906020019080838360005b838110156200093657808201518184015260208101905062000919565b50505050905090810190601f168015620009645780820380516001836020036101000a031916815260200191505b5094505050505060405180910390f35b3480156200098157600080fd5b506200098c620018e6565b6040518082815260200191505060405180910390f35b348015620009af57600080fd5b50620009ba620018ec565b6040518080602001828103825283818151815260200191508051906020019060200280838360005b83811015620009ff578082015181840152602081019050620009e2565b505050509050019250505060405180910390f35b34801562000a2057600080fd5b5062000a726004803603604081101562000a3957600080fd5b81019080803573ffffffffffffffffffffffffffffffffffffffff1690602001909291908035151590602001909291905050506200197c565b005b34801562000a8157600080fd5b5062000b776004803603608081101562000a9a57600080fd5b81019080803573ffffffffffffffffffffffffffffffffffffffff1690602001909291908035906020019064010000000081111562000ad857600080fd5b82018360208201111562000aeb57600080fd5b8035906020019184600183028401116401000000008311171562000b0e57600080fd5b91908080601f016020809104026020016040519081016040528093929190818152602001838380828437600081840152601f19601f8201169050808301925050505050505091929192908035151590602001909291908035906020019092919050505062001a82565b005b60055481565b600260009054906101000a900473ffffffffffffffffffffffffffffffffffffffff1673ffffffffffffffffffffffffffffffffffffffff163373ffffffffffffffffffffffffffffffffffffffff161462000c27576040517f08c379a000000000000000000000000000000000000000000000000000000000815260040180806020018281038252602b81526020018062005da6602b913960400191505060405180910390fd5b60011515600860008473ffffffffffffffffffffffffffffffffffffffff1673ffffffffffffffffffffffffffffffffffffffff16815260200190815260200160002060010160149054906101000a900460ff161515141562000cf2576040517f08c379a00000000000000000000000000000000000000000000000000000000081526004018080602001828103825260178152602001807f627573696e65737320616c72656164792065786973747300000000000000000081525060200191505060405180910390fd5b6000828260405162000d049062001cfa565b808373ffffffffffffffffffffffffffffffffffffffff1673ffffffffffffffffffffffffffffffffffffffff16815260200180602001828103825283818151815260200191508051906020019080838360005b8381101562000d7557808201518184015260208101905062000d58565b50505050905090810190601f16801562000da35780820380516001836020036101000a031916815260200191505b509350505050604051809103906000f08015801562000dc6573d6000803e3d6000fd5b509050600081905060018490806001815401808255809150509060018203906000526020600020016000909192909190916101000a81548173ffffffffffffffffffffffffffffffffffffffff021916908373ffffffffffffffffffffffffffffffffffffffff1602179055505060066000815480929190600101919050555060405180606001604052808481526020018273ffffffffffffffffffffffffffffffffffffffff16815260200160011515815250600860008673ffffffffffffffffffffffffffffffffffffffff1673ffffffffffffffffffffffffffffffffffffffff168152602001908152602001600020600082015181600001908051906020019062000ed792919062001d08565b5060208201518160010160006101000a81548173ffffffffffffffffffffffffffffffffffffffff021916908373ffffffffffffffffffffffffffffffffffffffff16021790555060408201518160010160146101000a81548160ff0219169083151502179055509050507f2c152c64df0660006b621dcae2b180b1b9d472d27fc7e58863368ef1b5053ee5838583600160405180806020018573ffffffffffffffffffffffffffffffffffffffff1673ffffffffffffffffffffffffffffffffffffffff1681526020018473ffffffffffffffffffffffffffffffffffffffff1673ffffffffffffffffffffffffffffffffffffffff16815260200183151515158152602001828103825286818151815260200191508051906020019080838360005b838110156200101857808201518184015260208101905062000ffb565b50505050905090810190601f168015620010465780820380516001836020036101000a031916815260200191505b509550505050505060405180910390a150505050565b6009602052806000526040600020600091509050806000018054600181600116156101000203166002900480601f0160208091040260200160405190810160405280929190818152602001828054600181600116156101000203166002900480156200110c5780601f10620010e0576101008083540402835291602001916200110c565b820191906000526020600020905b815481529060010190602001808311620010ee57829003601f168201915b5050505050908060010160009054906101000a900460ff16908060010160019054906101000a900460ff16905083565b600260009054906101000a900473ffffffffffffffffffffffffffffffffffffffff1673ffffffffffffffffffffffffffffffffffffffff163373ffffffffffffffffffffffffffffffffffffffff1614620011e4576040517f08c379a000000000000000000000000000000000000000000000000000000000815260040180806020018281038252603c81526020018062005dd1603c913960400191505060405180910390fd5b8060048190555050565b60018181548110620011fc57fe5b906000526020600020016000915054906101000a900473ffffffffffffffffffffffffffffffffffffffff1681565b60045481565b60011515600960008473ffffffffffffffffffffffffffffffffffffffff1673ffffffffffffffffffffffffffffffffffffffff16815260200190815260200160002060010160019054906101000a900460ff1615151415620012e0576040517f08c379a000000000000000000000000000000000000000000000000000000000815260040180806020018281038252602381526020018062005e476023913960400191505060405180910390fd5b670de0b6b3a76400006004540234101562001363576040517f08c379a00000000000000000000000000000000000000000000000000000000081526004018080602001828103825260108152602001807f4e6f7420656e6f7567682065746865720000000000000000000000000000000081525060200191505060405180910390fd5b600560008154809291906001019190505550604051806060016040528082815260200160001515815260200160011515815250600960008473ffffffffffffffffffffffffffffffffffffffff1673ffffffffffffffffffffffffffffffffffffffff1681526020019081526020016000206000820151816000019080519060200190620013f392919062001d08565b5060208201518160010160006101000a81548160ff02191690831515021790555060408201518160010160016101000a81548160ff02191690831515021790555090505060008290806001815401808255809150509060018203906000526020600020016000909192909190916101000a81548173ffffffffffffffffffffffffffffffffffffffff021916908373ffffffffffffffffffffffffffffffffffffffff160217905550505050565b60075481565b600260009054906101000a900473ffffffffffffffffffffffffffffffffffffffff1681565b60008181548110620014db57fe5b906000526020600020016000915054906101000a900473ffffffffffffffffffffffffffffffffffffffff1681565b606060018054806020026020016040519081016040528092919081815260200182805480156200159057602002820191906000526020600020905b8160009054906101000a900473ffffffffffffffffffffffffffffffffffffffff1673ffffffffffffffffffffffffffffffffffffffff168152602001906001019080831162001545575b5050505050905090565b6000600960008373ffffffffffffffffffffffffffffffffffffffff1673ffffffffffffffffffffffffffffffffffffffff16815260200190815260200160002060010160019054906101000a900460ff169050919050565b6000600860008373ffffffffffffffffffffffffffffffffffffffff1673ffffffffffffffffffffffffffffffffffffffff16815260200190815260200160002060010160149054906101000a900460ff169050919050565b6008602052806000526040600020600091509050806000018054600181600116156101000203166002900480601f016020809104026020016040519081016040528092919081815260200182805460018160011615610100020316600290048015620016fc5780601f10620016d057610100808354040283529160200191620016fc565b820191906000526020600020905b815481529060010190602001808311620016de57829003601f168201915b5050505050908060010160009054906101000a900473ffffffffffffffffffffffffffffffffffffffff16908060010160149054906101000a900460ff16905083565b6060600080600860008573ffffffffffffffffffffffffffffffffffffffff1673ffffffffffffffffffffffffffffffffffffffff168152602001908152602001600020600001600860008673ffffffffffffffffffffffffffffffffffffffff1673ffffffffffffffffffffffffffffffffffffffff16815260200190815260200160002060010160009054906101000a900473ffffffffffffffffffffffffffffffffffffffff16600860008773ffffffffffffffffffffffffffffffffffffffff1673ffffffffffffffffffffffffffffffffffffffff16815260200190815260200160002060010160149054906101000a900460ff16828054600181600116156101000203166002900480601f016020809104026020016040519081016040528092919081815260200182805460018160011615610100020316600290048015620018d25780601f10620018a657610100808354040283529160200191620018d2565b820191906000526020600020905b815481529060010190602001808311620018b457829003601f168201915b505050505092509250925092509193909250565b60065481565b606060008054806020026020016040519081016040528092919081815260200182805480156200197257602002820191906000526020600020905b8160009054906101000a900473ffffffffffffffffffffffffffffffffffffffff1673ffffffffffffffffffffffffffffffffffffffff168152602001906001019080831162001927575b5050505050905090565b600260009054906101000a900473ffffffffffffffffffffffffffffffffffffffff1673ffffffffffffffffffffffffffffffffffffffff163373ffffffffffffffffffffffffffffffffffffffff161462001a24576040517f08c379a000000000000000000000000000000000000000000000000000000000815260040180806020018281038252603a81526020018062005e0d603a913960400191505060405180910390fd5b80600860008473ffffffffffffffffffffffffffffffffffffffff1673ffffffffffffffffffffffffffffffffffffffff16815260200190815260200160002060010160146101000a81548160ff0219169083151502179055505050565b60011515600960008673ffffffffffffffffffffffffffffffffffffffff1673ffffffffffffffffffffffffffffffffffffffff16815260200190815260200160002060010160019054906101000a900460ff161515141562001b31576040517f08c379a000000000000000000000000000000000000000000000000000000000815260040180806020018281038252602381526020018062005e476023913960400191505060405180910390fd5b600354811462001ba9576040517f08c379a00000000000000000000000000000000000000000000000000000000081526004018080602001828103825260148152602001807f4e6f742074686520636f727265637420436f646500000000000000000000000081525060200191505060405180910390fd5b6007600081548092919060010191905055506005600081548092919060010191905055506040518060600160405280848152602001831515815260200160011515815250600960008673ffffffffffffffffffffffffffffffffffffffff1673ffffffffffffffffffffffffffffffffffffffff168152602001908152602001600020600082015181600001908051906020019062001c4a92919062001d08565b5060208201518160010160006101000a81548160ff02191690831515021790555060408201518160010160016101000a81548160ff02191690831515021790555090505060008490806001815401808255809150509060018203906000526020600020016000909192909190916101000a81548173ffffffffffffffffffffffffffffffffffffffff021916908373ffffffffffffffffffffffffffffffffffffffff1602179055505050505050565b613fee8062001db883390190565b828054600181600116156101000203166002900490600052602060002090601f016020900481019282601f1062001d4b57805160ff191683800117855562001d7c565b8280016001018555821562001d7c579182015b8281111562001d7b57825182559160200191906001019062001d5e565b5b50905062001d8b919062001d8f565b5090565b62001db491905b8082111562001db057600081600090555060010162001d96565b5090565b9056fe60806040523480156200001157600080fd5b5060405162003fee38038062003fee833981810160405260408110156200003757600080fd5b8101908080519060200190929190805160405193929190846401000000008211156200006257600080fd5b838201915060208201858111156200007957600080fd5b82518660018202830111640100000000821117156200009757600080fd5b8083526020830192505050908051906020019080838360005b83811015620000cd578082015181840152602081019050620000b0565b50505050905090810190601f168015620000fb5780820380516001836020036101000a031916815260200191505b5060405250505033600160006101000a81548173ffffffffffffffffffffffffffffffffffffffff021916908373ffffffffffffffffffffffffffffffffffffffff160217905550816000806101000a81548173ffffffffffffffffffffffffffffffffffffffff021916908373ffffffffffffffffffffffffffffffffffffffff16021790555080600390805190602001906200019b92919062000207565b50600160009054906101000a900473ffffffffffffffffffffffffffffffffffffffff16600260006101000a81548173ffffffffffffffffffffffffffffffffffffffff021916908373ffffffffffffffffffffffffffffffffffffffff1602179055505050620002b6565b828054600181600116156101000203166002900490600052602060002090601f016020900481019282601f106200024a57805160ff19168380011785556200027b565b828001600101855582156200027b579182015b828111156200027a5782518255916020019190600101906200025d565b5b5090506200028a91906200028e565b5090565b620002b391905b80821115620002af57600081600090555060010162000295565b5090565b90565b613d2880620002c66000396000f3fe60806040523480156200001157600080fd5b5060043610620000c45760003560e01c8063784dbe3b116200007b578063784dbe3b14620005d25780638da5cb5b14620007f257806391826905146200083e578063baecf663146200088a578063d514bbd314620008d6578063e9b2e48e146200093957620000c4565b8063017f27a514620000c95780630a90898814620002785780631d9fb30914620002d7578063390ee72814620003485780634a3a8383146200052a5780635951a7f6146200054a575b600080fd5b6200023660048036036080811015620000e157600080fd5b8101908080359060200190640100000000811115620000ff57600080fd5b8201836020820111156200011257600080fd5b803590602001918460018302840111640100000000831117156200013557600080fd5b91908080601f016020809104026020016040519081016040528093929190818152602001838380828437600081840152601f19601f820116905080830192505050505050509192919290803590602001906401000000008111156200019957600080fd5b820183602082011115620001ac57600080fd5b80359060200191846001830284011164010000000083111715620001cf57600080fd5b91908080601f016020809104026020016040519081016040528093929190818152602001838380828437600081840152601f19601f82011690508083019250505050505050919291929080359060200190929190803590602001909291905050506200098c565b604051808273ffffffffffffffffffffffffffffffffffffffff1673ffffffffffffffffffffffffffffffffffffffff16815260200191505060405180910390f35b620002bd600480360360208110156200029057600080fd5b81019080803573ffffffffffffffffffffffffffffffffffffffff1690602001909291905050506200119a565b604051808215151515815260200191505060405180910390f35b6200030660048036036020811015620002ef57600080fd5b810190808035906020019092919050505062001280565b604051808273ffffffffffffffffffffffffffffffffffffffff1673ffffffffffffffffffffffffffffffffffffffff16815260200191505060405180910390f35b6200038d600480360360208110156200036057600080fd5b81019080803573ffffffffffffffffffffffffffffffffffffffff169060200190929190505050620012bd565b60405180806020018773ffffffffffffffffffffffffffffffffffffffff1673ffffffffffffffffffffffffffffffffffffffff168152602001806020018060200186815260200185815260200184810384528a818151815260200191508051906020019080838360005b8381101562000415578082015181840152602081019050620003f8565b50505050905090810190601f168015620004435780820380516001836020036101000a031916815260200191505b50848103835288818151815260200191508051906020019080838360005b838110156200047e57808201518184015260208101905062000461565b50505050905090810190601f168015620004ac5780820380516001836020036101000a031916815260200191505b50848103825287818151815260200191508051906020019080838360005b83811015620004e7578082015181840152602081019050620004ca565b50505050905090810190601f168015620005155780820380516001836020036101000a031916815260200191505b50995050505050505050505060405180910390f35b620005346200166b565b6040518082815260200191505060405180910390f35b6200055462001678565b6040518080602001828103825283818151815260200191508051906020019080838360005b838110156200059657808201518184015260208101905062000579565b50505050905090810190601f168015620005c45780820380516001836020036101000a031916815260200191505b509250505060405180910390f35b6200061760048036036020811015620005ea57600080fd5b81019080803573ffffffffffffffffffffffffffffffffffffffff1690602001909291905050506200171a565b60405180806020018973ffffffffffffffffffffffffffffffffffffffff1673ffffffffffffffffffffffffffffffffffffffff1681526020018873ffffffffffffffffffffffffffffffffffffffff1673ffffffffffffffffffffffffffffffffffffffff16815260200180602001806020018781526020018681526020018515151515815260200184810384528c818151815260200191508051906020019080838360005b83811015620006db578082015181840152602081019050620006be565b50505050905090810190601f168015620007095780820380516001836020036101000a031916815260200191505b50848103835289818151815260200191508051906020019080838360005b838110156200074457808201518184015260208101905062000727565b50505050905090810190601f168015620007725780820380516001836020036101000a031916815260200191505b50848103825288818151815260200191508051906020019080838360005b83811015620007ad57808201518184015260208101905062000790565b50505050905090810190601f168015620007db5780820380516001836020036101000a031916815260200191505b509b50505050505050505050505060405180910390f35b620007fc62001983565b604051808273ffffffffffffffffffffffffffffffffffffffff1673ffffffffffffffffffffffffffffffffffffffff16815260200191505060405180910390f35b62000848620019a8565b604051808273ffffffffffffffffffffffffffffffffffffffff1673ffffffffffffffffffffffffffffffffffffffff16815260200191505060405180910390f35b62000894620019d1565b604051808273ffffffffffffffffffffffffffffffffffffffff1673ffffffffffffffffffffffffffffffffffffffff16815260200191505060405180910390f35b620008e0620019f7565b6040518080602001828103825283818151815260200191508051906020019060200280838360005b838110156200092557808201518184015260208101905062000908565b505050509050019250505060405180910390f35b6200098a600480360360408110156200095157600080fd5b81019080803573ffffffffffffffffffffffffffffffffffffffff16906020019092919080351515906020019092919050505062001a87565b005b60008060009054906101000a900473ffffffffffffffffffffffffffffffffffffffff1673ffffffffffffffffffffffffffffffffffffffff163373ffffffffffffffffffffffffffffffffffffffff161462000a35576040517f08c379a000000000000000000000000000000000000000000000000000000000815260040180806020018281038252603581526020018062003c9a6035913960400191505060405180910390fd5b60011515600260009054906101000a900473ffffffffffffffffffffffffffffffffffffffff1673ffffffffffffffffffffffffffffffffffffffff16639f8a13d76000809054906101000a900473ffffffffffffffffffffffffffffffffffffffff166040518263ffffffff1660e01b8152600401808273ffffffffffffffffffffffffffffffffffffffff1673ffffffffffffffffffffffffffffffffffffffff16815260200191505060206040518083038186803b15801562000afa57600080fd5b505afa15801562000b0f573d6000803e3d6000fd5b505050506040513d602081101562000b2657600080fd5b810190808051906020019092919050505015151462000b91576040517f08c379a000000000000000000000000000000000000000000000000000000000815260040180806020018281038252602581526020018062003ccf6025913960400191505060405180910390fd5b6000821162000bec576040517f08c379a000000000000000000000000000000000000000000000000000000000815260040180806020018281038252602281526020018062003c786022913960400191505060405180910390fd5b6000858360405162000bfe9062001add565b8080602001838152602001828103825284818151815260200191508051906020019080838360005b8381101562000c4357808201518184015260208101905062000c26565b50505050905090810190601f16801562000c715780820380516001836020036101000a031916815260200191505b509350505050604051809103906000f08015801562000c94573d6000803e3d6000fd5b509050600081905060048190806001815401808255809150509060018203906000526020600020016000909192909190916101000a81548173ffffffffffffffffffffffffffffffffffffffff021916908373ffffffffffffffffffffffffffffffffffffffff1602179055505060405180610100016040528060038054600181600116156101000203166002900480601f01602080910402602001604051908101604052809291908181526020018280546001816001161561010002031660029004801562000da85780601f1062000d7c5761010080835404028352916020019162000da8565b820191906000526020600020905b81548152906001019060200180831162000d8a57829003601f168201915b505050505081526020013073ffffffffffffffffffffffffffffffffffffffff1681526020018273ffffffffffffffffffffffffffffffffffffffff16815260200188815260200187815260200185815260200186815260200160011515815250600560008373ffffffffffffffffffffffffffffffffffffffff1673ffffffffffffffffffffffffffffffffffffffff168152602001908152602001600020600082015181600001908051906020019062000e6692919062001aeb565b5060208201518160010160006101000a81548173ffffffffffffffffffffffffffffffffffffffff021916908373ffffffffffffffffffffffffffffffffffffffff16021790555060408201518160020160006101000a81548173ffffffffffffffffffffffffffffffffffffffff021916908373ffffffffffffffffffffffffffffffffffffffff160217905550606082015181600301908051906020019062000f1392919062001aeb565b50608082015181600401908051906020019062000f3292919062001aeb565b5060a0820151816005015560c0820151816006015560e08201518160070160006101000a81548160ff0219169083151502179055509050507fd5138ef107625b064613ede5a900f87da7618e57c214f8018954298d4497fcc7600333838a8a898b600160405180806020018973ffffffffffffffffffffffffffffffffffffffff1673ffffffffffffffffffffffffffffffffffffffff1681526020018873ffffffffffffffffffffffffffffffffffffffff1673ffffffffffffffffffffffffffffffffffffffff16815260200180602001806020018781526020018681526020018515151515815260200184810384528c818154600181600116156101000203166002900481526020019150805460018160011615610100020316600290048015620010a45780601f106200107857610100808354040283529160200191620010a4565b820191906000526020600020905b8154815290600101906020018083116200108657829003601f168201915b5050848103835289818151815260200191508051906020019080838360005b83811015620010e0578082015181840152602081019050620010c3565b50505050905090810190601f1680156200110e5780820380516001836020036101000a031916815260200191505b50848103825288818151815260200191508051906020019080838360005b83811015620011495780820151818401526020810190506200112c565b50505050905090810190601f168015620011775780820380516001836020036101000a031916815260200191505b509b50505050505050505050505060405180910390a18092505050949350505050565b6000600260009054906101000a900473ffffffffffffffffffffffffffffffffffffffff1673ffffffffffffffffffffffffffffffffffffffff16639ee20b15836040518263ffffffff1660e01b8152600401808273ffffffffffffffffffffffffffffffffffffffff1673ffffffffffffffffffffffffffffffffffffffff16815260200191505060206040518083038186803b1580156200123c57600080fd5b505afa15801562001251573d6000803e3d6000fd5b505050506040513d60208110156200126857600080fd5b81019080805190602001909291905050509050919050565b600481815481106200128e57fe5b906000526020600020016000915054906101000a900473ffffffffffffffffffffffffffffffffffffffff1681565b60606000606080600080600560008873ffffffffffffffffffffffffffffffffffffffff1673ffffffffffffffffffffffffffffffffffffffff168152602001908152602001600020600001600560008973ffffffffffffffffffffffffffffffffffffffff1673ffffffffffffffffffffffffffffffffffffffff16815260200190815260200160002060020160009054906101000a900473ffffffffffffffffffffffffffffffffffffffff16600560008a73ffffffffffffffffffffffffffffffffffffffff1673ffffffffffffffffffffffffffffffffffffffff168152602001908152602001600020600301600560008b73ffffffffffffffffffffffffffffffffffffffff1673ffffffffffffffffffffffffffffffffffffffff168152602001908152602001600020600401600560008c73ffffffffffffffffffffffffffffffffffffffff1673ffffffffffffffffffffffffffffffffffffffff16815260200190815260200160002060050154600560008d73ffffffffffffffffffffffffffffffffffffffff1673ffffffffffffffffffffffffffffffffffffffff16815260200190815260200160002060060154858054600181600116156101000203166002900480601f0160208091040260200160405190810160405280929190818152602001828054600181600116156101000203166002900480156200150f5780601f10620014e3576101008083540402835291602001916200150f565b820191906000526020600020905b815481529060010190602001808311620014f157829003601f168201915b50505050509550838054600181600116156101000203166002900480601f016020809104026020016040519081016040528092919081815260200182805460018160011615610100020316600290048015620015af5780601f106200158357610100808354040283529160200191620015af565b820191906000526020600020905b8154815290600101906020018083116200159157829003601f168201915b50505050509350828054600181600116156101000203166002900480601f0160208091040260200160405190810160405280929190818152602001828054600181600116156101000203166002900480156200164f5780601f1062001623576101008083540402835291602001916200164f565b820191906000526020600020905b8154815290600101906020018083116200163157829003601f168201915b5050505050925095509550955095509550955091939550919395565b6000600480549050905090565b60038054600181600116156101000203166002900480601f016020809104026020016040519081016040528092919081815260200182805460018160011615610100020316600290048015620017125780601f10620016e65761010080835404028352916020019162001712565b820191906000526020600020905b815481529060010190602001808311620016f457829003601f168201915b505050505081565b6005602052806000526040600020600091509050806000018054600181600116156101000203166002900480601f016020809104026020016040519081016040528092919081815260200182805460018160011615610100020316600290048015620017ca5780601f106200179e57610100808354040283529160200191620017ca565b820191906000526020600020905b815481529060010190602001808311620017ac57829003601f168201915b5050505050908060010160009054906101000a900473ffffffffffffffffffffffffffffffffffffffff16908060020160009054906101000a900473ffffffffffffffffffffffffffffffffffffffff1690806003018054600181600116156101000203166002900480601f016020809104026020016040519081016040528092919081815260200182805460018160011615610100020316600290048015620018b85780601f106200188c57610100808354040283529160200191620018b8565b820191906000526020600020905b8154815290600101906020018083116200189a57829003601f168201915b505050505090806004018054600181600116156101000203166002900480601f0160208091040260200160405190810160405280929190818152602001828054600181600116156101000203166002900480156200195a5780601f106200192e576101008083540402835291602001916200195a565b820191906000526020600020905b8154815290600101906020018083116200193c57829003601f168201915b5050505050908060050154908060060154908060070160009054906101000a900460ff16905088565b6000809054906101000a900473ffffffffffffffffffffffffffffffffffffffff1681565b60008060009054906101000a900473ffffffffffffffffffffffffffffffffffffffff16905090565b600160009054906101000a900473ffffffffffffffffffffffffffffffffffffffff1681565b6060600480548060200260200160405190810160405280929190818152602001828054801562001a7d57602002820191906000526020600020905b8160009054906101000a900473ffffffffffffffffffffffffffffffffffffffff1673ffffffffffffffffffffffffffffffffffffffff168152602001906001019080831162001a32575b5050505050905090565b801515600560008473ffffffffffffffffffffffffffffffffffffffff1673ffffffffffffffffffffffffffffffffffffffff16815260200190815260200160002060070160009054906101000a905050505050565b6120dd8062001b9b83390190565b828054600181600116156101000203166002900490600052602060002090601f016020900481019282601f1062001b2e57805160ff191683800117855562001b5f565b8280016001018555821562001b5f579182015b8281111562001b5e57825182559160200191906001019062001b41565b5b50905062001b6e919062001b72565b5090565b62001b9791905b8082111562001b9357600081600090555060010162001b79565b5090565b9056fe60806040523480156200001157600080fd5b50604051620020dd380380620020dd833981810160405260408110156200003757600080fd5b81019080805160405193929190846401000000008211156200005857600080fd5b838201915060208201858111156200006f57600080fd5b82518660018202830111640100000000821117156200008d57600080fd5b8083526020830192505050908051906020019080838360005b83811015620000c3578082015181840152602081019050620000a6565b50505050905090810190601f168015620000f15780820380516001836020036101000a031916815260200191505b506040526020018051906020019092919050505033600360006101000a81548173ffffffffffffffffffffffffffffffffffffffff021916908373ffffffffffffffffffffffffffffffffffffffff16021790555030600460006101000a81548173ffffffffffffffffffffffffffffffffffffffff021916908373ffffffffffffffffffffffffffffffffffffffff160217905550600360009054906101000a900473ffffffffffffffffffffffffffffffffffffffff16600860006101000a81548173ffffffffffffffffffffffffffffffffffffffff021916908373ffffffffffffffffffffffffffffffffffffffff16021790555081600590805190602001906200020292919062000212565b50806006819055505050620002c1565b828054600181600116156101000203166002900490600052602060002090601f016020900481019282601f106200025557805160ff191683800117855562000286565b8280016001018555821562000286579182015b828111156200028557825182559160200191906001019062000268565b5b50905062000295919062000299565b5090565b620002be91905b80821115620002ba576000816000905550600101620002a0565b5090565b90565b611e0c80620002d16000396000f3fe60806040526004361061011f5760003560e01c806370a08231116100a0578063cca3e83211610064578063cca3e8321461062d578063d421ebbb14610692578063dd4549b7146106e9578063dd62ed3e14610737578063f2a86517146107bc5761011f565b806370a082311461046057806371eba703146104c557806382edaf94146104f0578063a457c2d714610547578063a9059cbb146105ba5761011f565b806339509351116100e757806339509351146102fd5780633ef0f8461461037057806360ce4ad01461039b57806364082413146103a5578063659728ce146103d05761011f565b8063095ea7b31461012457806318160ddd1461019757806323b872dd146101c25780632d182a1d146102555780633474e3b5146102ac575b600080fd5b34801561013057600080fd5b5061017d6004803603604081101561014757600080fd5b81019080803573ffffffffffffffffffffffffffffffffffffffff169060200190929190803590602001909291905050506107e7565b604051808215151515815260200191505060405180910390f35b3480156101a357600080fd5b506101ac610805565b6040518082815260200191505060405180910390f35b3480156101ce57600080fd5b5061023b600480360360608110156101e557600080fd5b81019080803573ffffffffffffffffffffffffffffffffffffffff169060200190929190803573ffffffffffffffffffffffffffffffffffffffff1690602001909291908035906020019092919050505061080f565b604051808215151515815260200191505060405180910390f35b34801561026157600080fd5b5061026a6108e8565b604051808273ffffffffffffffffffffffffffffffffffffffff1673ffffffffffffffffffffffffffffffffffffffff16815260200191505060405180910390f35b3480156102b857600080fd5b506102fb600480360360208110156102cf57600080fd5b81019080803573ffffffffffffffffffffffffffffffffffffffff16906020019092919050505061090e565b005b34801561030957600080fd5b506103566004803603604081101561032057600080fd5b81019080803573ffffffffffffffffffffffffffffffffffffffff16906020019092919080359060200190929190505050610a42565b604051808215151515815260200191505060405180910390f35b34801561037c57600080fd5b50610385610af5565b6040518082815260200191505060405180910390f35b6103a3610aff565b005b3480156103b157600080fd5b506103ba610cb5565b6040518082815260200191505060405180910390f35b3480156103dc57600080fd5b506103e5610cbf565b6040518080602001828103825283818151815260200191508051906020019080838360005b8381101561042557808201518184015260208101905061040a565b50505050905090810190601f1680156104525780820380516001836020036101000a031916815260200191505b509250505060405180910390f35b34801561046c57600080fd5b506104af6004803603602081101561048357600080fd5b81019080803573ffffffffffffffffffffffffffffffffffffffff169060200190929190505050610d5d565b6040518082815260200191505060405180910390f35b3480156104d157600080fd5b506104da610da5565b6040518082815260200191505060405180910390f35b3480156104fc57600080fd5b50610505610dab565b604051808273ffffffffffffffffffffffffffffffffffffffff1673ffffffffffffffffffffffffffffffffffffffff16815260200191505060405180910390f35b34801561055357600080fd5b506105a06004803603604081101561056a57600080fd5b81019080803573ffffffffffffffffffffffffffffffffffffffff16906020019092919080359060200190929190505050610dd1565b604051808215151515815260200191505060405180910390f35b3480156105c657600080fd5b50610613600480360360408110156105dd57600080fd5b81019080803573ffffffffffffffffffffffffffffffffffffffff16906020019092919080359060200190929190505050610e9e565b604051808215151515815260200191505060405180910390f35b34801561063957600080fd5b5061067c6004803603602081101561065057600080fd5b81019080803573ffffffffffffffffffffffffffffffffffffffff169060200190929190505050610ebc565b6040518082815260200191505060405180910390f35b34801561069e57600080fd5b506106a7610ece565b604051808273ffffffffffffffffffffffffffffffffffffffff1673ffffffffffffffffffffffffffffffffffffffff16815260200191505060405180910390f35b610735600480360360408110156106ff57600080fd5b8101908080359060200190929190803573ffffffffffffffffffffffffffffffffffffffff169060200190929190505050610ef8565b005b34801561074357600080fd5b506107a66004803603604081101561075a57600080fd5b81019080803573ffffffffffffffffffffffffffffffffffffffff169060200190929190803573ffffffffffffffffffffffffffffffffffffffff169060200190929190505050611123565b6040518082815260200191505060405180910390f35b3480156107c857600080fd5b506107d16111aa565b6040518082815260200191505060405180910390f35b60006107fb6107f46111b0565b84846111b8565b6001905092915050565b6000600254905090565b600061081c8484846113af565b6108dd846108286111b0565b6108d885604051806060016040528060288152602001611c3d60289139600160008b73ffffffffffffffffffffffffffffffffffffffff1673ffffffffffffffffffffffffffffffffffffffff168152602001908152602001600020600061088e6111b0565b73ffffffffffffffffffffffffffffffffffffffff1673ffffffffffffffffffffffffffffffffffffffff168152602001908152602001600020546116659092919063ffffffff16565b6111b8565b600190509392505050565b600360009054906101000a900473ffffffffffffffffffffffffffffffffffffffff1681565b600860009054906101000a900473ffffffffffffffffffffffffffffffffffffffff1673ffffffffffffffffffffffffffffffffffffffff1663918269056040518163ffffffff1660e01b815260040160206040518083038186803b15801561097657600080fd5b505afa15801561098a573d6000803e3d6000fd5b505050506040513d60208110156109a057600080fd5b810190808051906020019092919050505073ffffffffffffffffffffffffffffffffffffffff163373ffffffffffffffffffffffffffffffffffffffff1614610a34576040517f08c379a0000000000000000000000000000000000000000000000000000000008152600401808060200182810382526049815260200180611ccf6049913960600191505060405180910390fd5b610a3f816001611725565b50565b6000610aeb610a4f6111b0565b84610ae68560016000610a606111b0565b73ffffffffffffffffffffffffffffffffffffffff1673ffffffffffffffffffffffffffffffffffffffff16815260200190815260200160002060008973ffffffffffffffffffffffffffffffffffffffff1673ffffffffffffffffffffffffffffffffffffffff168152602001908152602001600020546118dd90919063ffffffff16565b6111b8565b6001905092915050565b6000600654905090565b60011515600860009054906101000a900473ffffffffffffffffffffffffffffffffffffffff1673ffffffffffffffffffffffffffffffffffffffff16630a908988336040518263ffffffff1660e01b8152600401808273ffffffffffffffffffffffffffffffffffffffff1673ffffffffffffffffffffffffffffffffffffffff16815260200191505060206040518083038186803b158015610ba257600080fd5b505afa158015610bb6573d6000803e3d6000fd5b505050506040513d6020811015610bcc57600080fd5b8101908080519060200190929190505050151514610c35576040517f08c379a0000000000000000000000000000000000000000000000000000000008152600401808060200182810382526045815260200180611bd26045913960600191505060405180910390fd5b600654341015610c90576040517f08c379a0000000000000000000000000000000000000000000000000000000008152600401808060200182810382526032815260200180611d496032913960400191505060405180910390fd5b6000339050600760008154809291906001019190505550610cb2816001611965565b50565b6000600754905090565b60058054600181600116156101000203166002900480601f016020809104026020016040519081016040528092919081815260200182805460018160011615610100020316600290048015610d555780601f10610d2a57610100808354040283529160200191610d55565b820191906000526020600020905b815481529060010190602001808311610d3857829003601f168201915b505050505081565b60008060008373ffffffffffffffffffffffffffffffffffffffff1673ffffffffffffffffffffffffffffffffffffffff168152602001908152602001600020549050919050565b60065481565b600460009054906101000a900473ffffffffffffffffffffffffffffffffffffffff1681565b6000610e94610dde6111b0565b84610e8f85604051806060016040528060258152602001611db36025913960016000610e086111b0565b73ffffffffffffffffffffffffffffffffffffffff1673ffffffffffffffffffffffffffffffffffffffff16815260200190815260200160002060008a73ffffffffffffffffffffffffffffffffffffffff1673ffffffffffffffffffffffffffffffffffffffff168152602001908152602001600020546116659092919063ffffffff16565b6111b8565b6001905092915050565b6000610eb2610eab6111b0565b84846113af565b6001905092915050565b6000610ec782610d5d565b9050919050565b6000600360009054906101000a900473ffffffffffffffffffffffffffffffffffffffff16905090565b600073ffffffffffffffffffffffffffffffffffffffff163373ffffffffffffffffffffffffffffffffffffffff1614158015610f835750600460009054906101000a900473ffffffffffffffffffffffffffffffffffffffff1673ffffffffffffffffffffffffffffffffffffffff163373ffffffffffffffffffffffffffffffffffffffff1614155b610fd8576040517f08c379a0000000000000000000000000000000000000000000000000000000008152600401808060200182810382526038815260200180611d7b6038913960400191505060405180910390fd5b60011515600860009054906101000a900473ffffffffffffffffffffffffffffffffffffffff1673ffffffffffffffffffffffffffffffffffffffff16630a908988836040518263ffffffff1660e01b8152600401808273ffffffffffffffffffffffffffffffffffffffff1673ffffffffffffffffffffffffffffffffffffffff16815260200191505060206040518083038186803b15801561107b57600080fd5b505afa15801561108f573d6000803e3d6000fd5b505050506040513d60208110156110a557600080fd5b810190808051906020019092919050505015151461110e576040517f08c379a0000000000000000000000000000000000000000000000000000000008152600401808060200182810382526031815260200180611d186031913960400191505060405180910390fd5b600033905061111e8183856113af565b505050565b6000600160008473ffffffffffffffffffffffffffffffffffffffff1673ffffffffffffffffffffffffffffffffffffffff16815260200190815260200160002060008373ffffffffffffffffffffffffffffffffffffffff1673ffffffffffffffffffffffffffffffffffffffff16815260200190815260200160002054905092915050565b60075481565b600033905090565b600073ffffffffffffffffffffffffffffffffffffffff168373ffffffffffffffffffffffffffffffffffffffff16141561123e576040517f08c379a0000000000000000000000000000000000000000000000000000000008152600401808060200182810382526024815260200180611cab6024913960400191505060405180910390fd5b600073ffffffffffffffffffffffffffffffffffffffff168273ffffffffffffffffffffffffffffffffffffffff1614156112c4576040517f08c379a0000000000000000000000000000000000000000000000000000000008152600401808060200182810382526022815260200180611bb06022913960400191505060405180910390fd5b80600160008573ffffffffffffffffffffffffffffffffffffffff1673ffffffffffffffffffffffffffffffffffffffff16815260200190815260200160002060008473ffffffffffffffffffffffffffffffffffffffff1673ffffffffffffffffffffffffffffffffffffffff168152602001908152602001600020819055508173ffffffffffffffffffffffffffffffffffffffff168373ffffffffffffffffffffffffffffffffffffffff167f8c5be1e5ebec7d5bd14f71427d1e84f3dd0314c0f7b2291e5b200ac8c7c3b925836040518082815260200191505060405180910390a3505050565b600073ffffffffffffffffffffffffffffffffffffffff168373ffffffffffffffffffffffffffffffffffffffff161415611435576040517f08c379a0000000000000000000000000000000000000000000000000000000008152600401808060200182810382526025815260200180611c866025913960400191505060405180910390fd5b600073ffffffffffffffffffffffffffffffffffffffff168273ffffffffffffffffffffffffffffffffffffffff1614156114bb576040517f08c379a0000000000000000000000000000000000000000000000000000000008152600401808060200182810382526023815260200180611b6b6023913960400191505060405180910390fd5b61152681604051806060016040528060268152602001611c17602691396000808773ffffffffffffffffffffffffffffffffffffffff1673ffffffffffffffffffffffffffffffffffffffff168152602001908152602001600020546116659092919063ffffffff16565b6000808573ffffffffffffffffffffffffffffffffffffffff1673ffffffffffffffffffffffffffffffffffffffff168152602001908152602001600020819055506115b9816000808573ffffffffffffffffffffffffffffffffffffffff1673ffffffffffffffffffffffffffffffffffffffff168152602001908152602001600020546118dd90919063ffffffff16565b6000808473ffffffffffffffffffffffffffffffffffffffff1673ffffffffffffffffffffffffffffffffffffffff168152602001908152602001600020819055508173ffffffffffffffffffffffffffffffffffffffff168373ffffffffffffffffffffffffffffffffffffffff167fddf252ad1be2c89b69c2b068fc378daa952ba7f163c4a11628f55a4df523b3ef836040518082815260200191505060405180910390a3505050565b6000838311158290611712576040517f08c379a00000000000000000000000000000000000000000000000000000000081526004018080602001828103825283818151815260200191508051906020019080838360005b838110156116d75780820151818401526020810190506116bc565b50505050905090810190601f1680156117045780820380516001836020036101000a031916815260200191505b509250505060405180910390fd5b5060008385039050809150509392505050565b600073ffffffffffffffffffffffffffffffffffffffff168273ffffffffffffffffffffffffffffffffffffffff1614156117ab576040517f08c379a0000000000000000000000000000000000000000000000000000000008152600401808060200182810382526021815260200180611c656021913960400191505060405180910390fd5b61181681604051806060016040528060228152602001611b8e602291396000808673ffffffffffffffffffffffffffffffffffffffff1673ffffffffffffffffffffffffffffffffffffffff168152602001908152602001600020546116659092919063ffffffff16565b6000808473ffffffffffffffffffffffffffffffffffffffff1673ffffffffffffffffffffffffffffffffffffffff1681526020019081526020016000208190555061186d81600254611b2090919063ffffffff16565b600281905550600073ffffffffffffffffffffffffffffffffffffffff168273ffffffffffffffffffffffffffffffffffffffff167fddf252ad1be2c89b69c2b068fc378daa952ba7f163c4a11628f55a4df523b3ef836040518082815260200191505060405180910390a35050565b60008082840190508381101561195b576040517f08c379a000000000000000000000000000000000000000000000000000000000815260040180806020018281038252601b8152602001807f536166654d6174683a206164646974696f6e206f766572666c6f77000000000081525060200191505060405180910390fd5b8091505092915050565b600073ffffffffffffffffffffffffffffffffffffffff168273ffffffffffffffffffffffffffffffffffffffff161415611a08576040517f08c379a000000000000000000000000000000000000000000000000000000000815260040180806020018281038252601f8152602001807f45524332303a206d696e7420746f20746865207a65726f20616464726573730081525060200191505060405180910390fd5b611a1d816002546118dd90919063ffffffff16565b600281905550611a74816000808573ffffffffffffffffffffffffffffffffffffffff1673ffffffffffffffffffffffffffffffffffffffff168152602001908152602001600020546118dd90919063ffffffff16565b6000808473ffffffffffffffffffffffffffffffffffffffff1673ffffffffffffffffffffffffffffffffffffffff168152602001908152602001600020819055508173ffffffffffffffffffffffffffffffffffffffff16600073ffffffffffffffffffffffffffffffffffffffff167fddf252ad1be2c89b69c2b068fc378daa952ba7f163c4a11628f55a4df523b3ef836040518082815260200191505060405180910390a35050565b6000611b6283836040518060400160405280601e81526020017f536166654d6174683a207375627472616374696f6e206f766572666c6f770000815250611665565b90509291505056fe45524332303a207472616e7366657220746f20746865207a65726f206164647265737345524332303a206275726e20616d6f756e7420657863656564732062616c616e636545524332303a20617070726f766520746f20746865207a65726f206164647265737374686520757365722070757263686173696e67206120746f6b656e206d75737420626520616e20616374697665207573657220696e20746865204c6f766545636f6e6f6d7945524332303a207472616e7366657220616d6f756e7420657863656564732062616c616e636545524332303a207472616e7366657220616d6f756e74206578636565647320616c6c6f77616e636545524332303a206275726e2066726f6d20746865207a65726f206164647265737345524332303a207472616e736665722066726f6d20746865207a65726f206164647265737345524332303a20617070726f76652066726f6d20746865207a65726f20616464726573736f6e6c792074686520627573696e6573732063616e206275726e2074686520746f6b656e207768656e20697420616363657074732074686520746f6b656e206173207061796d656e7474686520726563657069656e74206f662074686520746f6b656e206d75737420626520616e206163746976652075736572707269636520706169642073686f756c642062652061746c6561737420746865207072696365206f6620746865206465616c73656e6465722063616e6e6f7420626520746865207a65726f2061646472657373206f722074686520636f6e747261637420697473656c6645524332303a2064656372656173656420616c6c6f77616e63652062656c6f77207a65726fa265627a7a723158204a221ac02c6bbbf0cb836369e10a7acda792ec32c25d2d19ddd84106d623701964736f6c634300050c00327072696365206e6565647320746f20626520686967686572207468616e207a65726f4f6e6c792074686520627573696e65737320636f6e7472616374206f776e65722063616e20637265617465206e6577206465616c7374686520627573696e657373206d757374206265206163746976652063757272656e746c79a265627a7a7231582024b9a48b05415cfcefd2b55ee0eda82ea491afcf549ee94997de27bb7b228f7164736f6c634300050c00326f6e6c7920746865204c6f766545636f6e6f6d792063616e20616464206e657720627573696e65737365736f6e6c7920746865204c6f766545636f6e6f6d792063616e206368616e67652074686520666565206368617267656420746f206e65772075736572734f6e6c79204c6f766545636f6e6f6d792063616e206368616e6765207468652061637469766520666c6167206f66206120627573696e6573732e5468697320637573746f6d657220697320616c72656164792072656769737465726564a265627a7a7231582062760c2ca1d514483ae3454624abe48beb2e4ab982b58b4f6a5ef85eb1a605d064736f6c634300050c0032",
  "source": "pragma solidity >=0.4.21 <0.6.0;\n\nimport \"./LocalBusiness.sol\";\n\ncontract LoveEconomy {\n\n // create object to store local businesses that sign up for the Love Economy\n\n    struct local_business {\n        string businessName;\n        address businessContractAddress; // not sure whether I need this yet\n        bool active;\n    }\n\n// add a smart contract that has the details of the deals for the business? maybe the price, two-for-one or discount, expiration date?\n\n// object to store Love Economy user details\n    struct user {\n        string userName;\n        bool discountCodeUsed; // whether the user signed in using a discount code\n        bool active;\n    }\n\n    address[] public AllUsers;\n\n    address[] public AllBusinesses;\n\n    address public owner; // this will be the LoveEconomy who is the owner of all the contracts\n    uint private discountCode; // this will be the discount code at the time of contract deployment -> should be set to private and dynamic\n    uint public userFee; // the fee will represent Wei, where the actual value recieved needs to be userFee * 10**18\n\n    uint public userCount; // number of users on the system\n    uint public businessCount; // number of local businesses\n\n    uint public discountCodeCount; // number of discount codes used\n\n    mapping(address => local_business) public businessAddresstoDetails; // id based lookup for businesses\n    mapping(address => user) public userAddresstoDetails; // id based look up for users\n\n\n\n    constructor(uint _discountCode, uint _userFee) public {\n        owner = msg.sender;\n        discountCode = _discountCode;\n        userFee = _userFee;\n    }\n\n    // events\n    event businessAdded (\n        string _businessName,\n        address _businessAddress,\n        address _businessContractAddress,\n        bool _active\n    );\n\n\n    // function to add a new local business to the LoveEconomy\n    // make the function private, as we only want this contract to be able to add new businesses\n\n    // this should be made payable, so that the funds go to the LoveEconomy\n    function addBusiness(address _businessAddress, string memory _businessName) public {\n        require(msg.sender == owner, \"only the LoveEconomy can add new businesses\"); // can only register once viable deal is aggreed upon\n        require(businessAddresstoDetails[_businessAddress].active != true, \"business already exists\");\n\n        // Deploy new business contract\n        LocalBusiness newBusinessContract = new LocalBusiness(_businessAddress, _businessName);\n        // Store the new contract address\n        address businessContractAddress = address(newBusinessContract);\n        AllBusinesses.push(_businessAddress);\n\n\n        businessCount++;\n        // update the business details and add to the array\n        businessAddresstoDetails[_businessAddress] = local_business(_businessName, businessContractAddress, true);\n        emit businessAdded(_businessName, _businessAddress, businessContractAddress, true);\n    }\n\n    // new users signing up to platform\n    // discount code is a bool: whether one was used or not\n    function addDiscountCodeUser(address _userAddress, string memory _userName, bool _discountCodeUsed, uint _discountCode) public {\n        require(userAddresstoDetails[_userAddress].active != true, \"This customer is already registered\");\n        require(_discountCode == discountCode, \"Not the correct Code\"); // check that the correct dicount code was added\n        //require(msg.sender == _userAddress, \"only the active user can add themselves to the LoveEconomy\");\n\n        discountCodeCount++;\n\n        userCount ++;\n        userAddresstoDetails[_userAddress] = user(_userName, _discountCodeUsed, true);\n        AllUsers.push(_userAddress);\n    }\n\n// new user sign up when they do not have a discount code and rather want to pay, need the function to be payable\n// unsure as could anyone just use someone elses address and then ether will be subtracted from that address?\n    function addUser(address _userAddress, string memory _userName) public payable {\n        require(userAddresstoDetails[_userAddress].active != true, \"This customer is already registered\");\n        require(msg.value >= userFee * 10**18, \"Not enough ether\"); // check that the correct dicount code was added\n        //require(msg.sender == _userAddress, \"only the active user can add themselves to the LoveEconomy\");\n\n        userCount ++;\n        userAddresstoDetails[_userAddress] = user(_userName, false, true);\n        AllUsers.push(_userAddress);\n    }\n\n    // Allow LoveEconomy to activate or deactivate businesses on the platform\n    function setActiveFlag(address _businessWalletAddress, bool _active) public {\n        require(msg.sender == owner, \"Only LoveEconomy can change the active flag of a business.\");\n        businessAddresstoDetails[_businessWalletAddress].active = _active;\n    }\n\n    // function to update the signup value, this can only be called by the LoveEconomy contract owner\n    function updateUserFee(uint _newFee) public {\n        require(msg.sender == owner, \"only the LoveEconomy can change the fee charged to new users\");\n        userFee = _newFee;\n    }\n\n    // function to call informations and run tests\n    function getAllBusinesses() public view returns(address[] memory){\n        return AllBusinesses;\n    }\n\n    function getAllUsers() public view returns(address[] memory){\n        return AllUsers;\n    }\n\n    function getBusinessDetails(address _businessWalletAddress) public view\n        returns (string memory businessName, address businessContractAddress, bool active) {\n\n            return(\n            businessAddresstoDetails[_businessWalletAddress].businessName,\n            businessAddresstoDetails[_businessWalletAddress].businessContractAddress,\n            businessAddresstoDetails[_businessWalletAddress].active\n            );\n\n    }\n\n// function used by the business contract to create a require statement that the business has to be active before creating a new product\n    function isActive(address _businessWalletAddress) public view returns (bool active) {\n\n        return(businessAddresstoDetails[_businessWalletAddress].active);\n    }\n    /// be able to add new discount codes by love economy?\n\n    function isUserActive(address _userAddress) public view returns(bool active) {\n        return(userAddresstoDetails[_userAddress].active);\n    }\n}",
  "sourcePath": "/Users/julikapahl30/FinTech/GitHub/LoveEconomy/contracts/LoveEconomy.sol",
  "compiler": {
    "name": "solc",
    "version": "0.5.12+commit.7709ece9.Emscripten.clang"
  },
  "schemaVersion": "3.0.19",
  "updatedAt": "2020-01-16T07:47:55.542Z",
  "networkType": "ethereum",
  "devdoc": {
    "methods": {}
  },
  "userdoc": {
    "methods": {
      "isUserActive(address)": {
        "notice": "be able to add new discount codes by love economy?"
      }
    }
  }
}