{
  "contractName": "LoveEconomy",
  "abi": [
    {
      "inputs": [
        {
          "internalType": "uint256",
          "name": "_discountCode",
          "type": "uint256"
        },
        {
          "internalType": "uint256",
          "name": "_userFee",
          "type": "uint256"
        }
      ],
      "payable": false,
      "stateMutability": "nonpayable",
      "type": "constructor"
    },
    {
      "anonymous": false,
      "inputs": [
        {
          "indexed": false,
          "internalType": "string",
          "name": "_businessName",
          "type": "string"
        },
        {
          "indexed": false,
          "internalType": "address",
          "name": "_businessAddress",
          "type": "address"
        },
        {
          "indexed": false,
          "internalType": "address",
          "name": "_businessContractAddress",
          "type": "address"
        },
        {
          "indexed": false,
          "internalType": "bool",
          "name": "_active",
          "type": "bool"
        }
      ],
      "name": "businessAdded",
      "type": "event"
    },
    {
      "constant": true,
      "inputs": [
        {
          "internalType": "uint256",
          "name": "",
          "type": "uint256"
        }
      ],
      "name": "AllBusinesses",
      "outputs": [
        {
          "internalType": "address",
          "name": "",
          "type": "address"
        }
      ],
      "payable": false,
      "stateMutability": "view",
      "type": "function"
    },
    {
      "constant": true,
      "inputs": [
        {
          "internalType": "uint256",
          "name": "",
          "type": "uint256"
        }
      ],
      "name": "AllUsers",
      "outputs": [
        {
          "internalType": "address",
          "name": "",
          "type": "address"
        }
      ],
      "payable": false,
      "stateMutability": "view",
      "type": "function"
    },
    {
      "constant": true,
      "inputs": [
        {
          "internalType": "address",
          "name": "",
          "type": "address"
        }
      ],
      "name": "businessAddresstoDetails",
      "outputs": [
        {
          "internalType": "string",
          "name": "businessName",
          "type": "string"
        },
        {
          "internalType": "address",
          "name": "businessContractAddress",
          "type": "address"
        },
        {
          "internalType": "bool",
          "name": "active",
          "type": "bool"
        }
      ],
      "payable": false,
      "stateMutability": "view",
      "type": "function"
    },
    {
      "constant": true,
      "inputs": [],
      "name": "businessCount",
      "outputs": [
        {
          "internalType": "uint256",
          "name": "",
          "type": "uint256"
        }
      ],
      "payable": false,
      "stateMutability": "view",
      "type": "function"
    },
    {
      "constant": true,
      "inputs": [],
      "name": "discountCodeCount",
      "outputs": [
        {
          "internalType": "uint256",
          "name": "",
          "type": "uint256"
        }
      ],
      "payable": false,
      "stateMutability": "view",
      "type": "function"
    },
    {
      "constant": true,
      "inputs": [],
      "name": "owner",
      "outputs": [
        {
          "internalType": "address",
          "name": "",
          "type": "address"
        }
      ],
      "payable": false,
      "stateMutability": "view",
      "type": "function"
    },
    {
      "constant": true,
      "inputs": [
        {
          "internalType": "address",
          "name": "",
          "type": "address"
        }
      ],
      "name": "userAddresstoDetails",
      "outputs": [
        {
          "internalType": "string",
          "name": "userName",
          "type": "string"
        },
        {
          "internalType": "bool",
          "name": "discountCodeUsed",
          "type": "bool"
        },
        {
          "internalType": "bool",
          "name": "active",
          "type": "bool"
        }
      ],
      "payable": false,
      "stateMutability": "view",
      "type": "function"
    },
    {
      "constant": true,
      "inputs": [],
      "name": "userCount",
      "outputs": [
        {
          "internalType": "uint256",
          "name": "",
          "type": "uint256"
        }
      ],
      "payable": false,
      "stateMutability": "view",
      "type": "function"
    },
    {
      "constant": true,
      "inputs": [],
      "name": "userFee",
      "outputs": [
        {
          "internalType": "uint256",
          "name": "",
          "type": "uint256"
        }
      ],
      "payable": false,
      "stateMutability": "view",
      "type": "function"
    },
    {
      "constant": false,
      "inputs": [
        {
          "internalType": "address",
          "name": "_businessAddress",
          "type": "address"
        },
        {
          "internalType": "string",
          "name": "_businessName",
          "type": "string"
        }
      ],
      "name": "addBusiness",
      "outputs": [],
      "payable": false,
      "stateMutability": "nonpayable",
      "type": "function"
    },
    {
      "constant": false,
      "inputs": [
        {
          "internalType": "address",
          "name": "_userAddress",
          "type": "address"
        },
        {
          "internalType": "string",
          "name": "_userName",
          "type": "string"
        },
        {
          "internalType": "bool",
          "name": "_discountCodeUsed",
          "type": "bool"
        },
        {
          "internalType": "uint256",
          "name": "_discountCode",
          "type": "uint256"
        }
      ],
      "name": "addDiscountCodeUser",
      "outputs": [],
      "payable": false,
      "stateMutability": "nonpayable",
      "type": "function"
    },
    {
      "constant": false,
      "inputs": [
        {
          "internalType": "address",
          "name": "_userAddress",
          "type": "address"
        },
        {
          "internalType": "string",
          "name": "_userName",
          "type": "string"
        }
      ],
      "name": "addUser",
      "outputs": [],
      "payable": true,
      "stateMutability": "payable",
      "type": "function"
    },
    {
      "constant": false,
      "inputs": [
        {
          "internalType": "address",
          "name": "_businessWalletAddress",
          "type": "address"
        },
        {
          "internalType": "bool",
          "name": "_active",
          "type": "bool"
        }
      ],
      "name": "setActiveFlag",
      "outputs": [],
      "payable": false,
      "stateMutability": "nonpayable",
      "type": "function"
    },
    {
      "constant": false,
      "inputs": [
        {
          "internalType": "uint256",
          "name": "_newFee",
          "type": "uint256"
        }
      ],
      "name": "updateUserFee",
      "outputs": [],
      "payable": false,
      "stateMutability": "nonpayable",
      "type": "function"
    },
    {
      "constant": true,
      "inputs": [],
      "name": "getAllBusinesses",
      "outputs": [
        {
          "internalType": "address[]",
          "name": "",
          "type": "address[]"
        }
      ],
      "payable": false,
      "stateMutability": "view",
      "type": "function"
    },
    {
      "constant": true,
      "inputs": [],
      "name": "getAllUsers",
      "outputs": [
        {
          "internalType": "address[]",
          "name": "",
          "type": "address[]"
        }
      ],
      "payable": false,
      "stateMutability": "view",
      "type": "function"
    },
    {
      "constant": true,
      "inputs": [
        {
          "internalType": "address",
          "name": "_businessWalletAddress",
          "type": "address"
        }
      ],
      "name": "getBusinessDetails",
      "outputs": [
        {
          "internalType": "string",
          "name": "businessName",
          "type": "string"
        },
        {
          "internalType": "address",
          "name": "businessContractAddress",
          "type": "address"
        },
        {
          "internalType": "bool",
          "name": "active",
          "type": "bool"
        }
      ],
      "payable": false,
      "stateMutability": "view",
      "type": "function"
    },
    {
      "constant": true,
      "inputs": [
        {
          "internalType": "address",
          "name": "_businessWalletAddress",
          "type": "address"
        }
      ],
      "name": "isActive",
      "outputs": [
        {
          "internalType": "bool",
          "name": "active",
          "type": "bool"
        }
      ],
      "payable": false,
      "stateMutability": "view",
      "type": "function"
    },
    {
      "constant": true,
      "inputs": [
        {
          "internalType": "address",
          "name": "_userAddress",
          "type": "address"
        }
      ],
      "name": "isUserActive",
      "outputs": [
        {
          "internalType": "bool",
          "name": "active",
          "type": "bool"
        }
      ],
      "payable": false,
      "stateMutability": "view",
      "type": "function"
    }
  ],
  "bytecode": "0x608060405234801561001057600080fd5b50604051615e62380380615e628339818101604052604081101561003357600080fd5b81019080805190602001909291908051906020019092919050505033600260006101000a81548173ffffffffffffffffffffffffffffffffffffffff021916908373ffffffffffffffffffffffffffffffffffffffff16021790555081600381905550806004819055505050615db4806100ae6000396000f3fe6080604052600436106200012e5760003560e01c806396ba3ffa11620000af578063bc9e2b6d116200006d578063bc9e2b6d1462000865578063da2aff2a1462000974578063e2842d7914620009a2578063e83dfd071462000a13578063ed57c2441462000a74576200012e565b806396ba3ffa146200058c57806398c46183146200060b5780639ee20b15146200067c5780639f8a13d714620006e9578063aeccc77f1462000756576200012e565b80632df62c3d11620000fd5780632df62c3d146200037657806342a1bbd214620003f55780634b68d43114620004235780635ee4f86d14620005045780638da5cb5b1462000532576200012e565b806307973ccf146200013357806310f516c714620001615780632058ea2c146200025057806327e4dcf71462000337575b600080fd5b3480156200014057600080fd5b506200014b62000b79565b6040518082815260200191505060405180910390f35b3480156200016e57600080fd5b506200024e600480360360408110156200018757600080fd5b81019080803573ffffffffffffffffffffffffffffffffffffffff16906020019092919080359060200190640100000000811115620001c557600080fd5b820183602082011115620001d857600080fd5b80359060200191846001830284011164010000000083111715620001fb57600080fd5b91908080601f016020809104026020016040519081016040528093929190818152602001838380828437600081840152601f19601f82011690508083019250505050505050919291929050505062000b7f565b005b3480156200025d57600080fd5b50620002a3600480360360208110156200027657600080fd5b81019080803573ffffffffffffffffffffffffffffffffffffffff1690602001909291905050506200105c565b60405180806020018415151515815260200183151515158152602001828103825285818151815260200191508051906020019080838360005b83811015620002f9578082015181840152602081019050620002dc565b50505050905090810190601f168015620003275780820380516001836020036101000a031916815260200191505b5094505050505060405180910390f35b3480156200034457600080fd5b5062000374600480360360208110156200035d57600080fd5b81019080803590602001909291905050506200113c565b005b3480156200038357600080fd5b50620003b3600480360360208110156200039c57600080fd5b8101908080359060200190929190505050620011ee565b604051808273ffffffffffffffffffffffffffffffffffffffff1673ffffffffffffffffffffffffffffffffffffffff16815260200191505060405180910390f35b3480156200040257600080fd5b506200040d6200122b565b6040518082815260200191505060405180910390f35b62000502600480360360408110156200043b57600080fd5b81019080803573ffffffffffffffffffffffffffffffffffffffff169060200190929190803590602001906401000000008111156200047957600080fd5b8201836020820111156200048c57600080fd5b80359060200191846001830284011164010000000083111715620004af57600080fd5b91908080601f016020809104026020016040519081016040528093929190818152602001838380828437600081840152601f19601f82011690508083019250505050505050919291929050505062001231565b005b3480156200051157600080fd5b506200051c620014a1565b6040518082815260200191505060405180910390f35b3480156200053f57600080fd5b506200054a620014a7565b604051808273ffffffffffffffffffffffffffffffffffffffff1673ffffffffffffffffffffffffffffffffffffffff16815260200191505060405180910390f35b3480156200059957600080fd5b50620005c960048036036020811015620005b257600080fd5b8101908080359060200190929190505050620014cd565b604051808273ffffffffffffffffffffffffffffffffffffffff1673ffffffffffffffffffffffffffffffffffffffff16815260200191505060405180910390f35b3480156200061857600080fd5b50620006236200150a565b6040518080602001828103825283818151815260200191508051906020019060200280838360005b83811015620006685780820151818401526020810190506200064b565b505050509050019250505060405180910390f35b3480156200068957600080fd5b50620006cf60048036036020811015620006a257600080fd5b81019080803573ffffffffffffffffffffffffffffffffffffffff1690602001909291905050506200159a565b604051808215151515815260200191505060405180910390f35b348015620006f657600080fd5b506200073c600480360360208110156200070f57600080fd5b81019080803573ffffffffffffffffffffffffffffffffffffffff169060200190929190505050620015f3565b604051808215151515815260200191505060405180910390f35b3480156200076357600080fd5b50620007a9600480360360208110156200077c57600080fd5b81019080803573ffffffffffffffffffffffffffffffffffffffff1690602001909291905050506200164c565b60405180806020018473ffffffffffffffffffffffffffffffffffffffff1673ffffffffffffffffffffffffffffffffffffffff16815260200183151515158152602001828103825285818151815260200191508051906020019080838360005b83811015620008275780820151818401526020810190506200080a565b50505050905090810190601f168015620008555780820380516001836020036101000a031916815260200191505b5094505050505060405180910390f35b3480156200087257600080fd5b50620008b8600480360360208110156200088b57600080fd5b81019080803573ffffffffffffffffffffffffffffffffffffffff1690602001909291905050506200173f565b60405180806020018473ffffffffffffffffffffffffffffffffffffffff1673ffffffffffffffffffffffffffffffffffffffff16815260200183151515158152602001828103825285818151815260200191508051906020019080838360005b838110156200093657808201518184015260208101905062000919565b50505050905090810190601f168015620009645780820380516001836020036101000a031916815260200191505b5094505050505060405180910390f35b3480156200098157600080fd5b506200098c620018e6565b6040518082815260200191505060405180910390f35b348015620009af57600080fd5b50620009ba620018ec565b6040518080602001828103825283818151815260200191508051906020019060200280838360005b83811015620009ff578082015181840152602081019050620009e2565b505050509050019250505060405180910390f35b34801562000a2057600080fd5b5062000a726004803603604081101562000a3957600080fd5b81019080803573ffffffffffffffffffffffffffffffffffffffff1690602001909291908035151590602001909291905050506200197c565b005b34801562000a8157600080fd5b5062000b776004803603608081101562000a9a57600080fd5b81019080803573ffffffffffffffffffffffffffffffffffffffff1690602001909291908035906020019064010000000081111562000ad857600080fd5b82018360208201111562000aeb57600080fd5b8035906020019184600183028401116401000000008311171562000b0e57600080fd5b91908080601f016020809104026020016040519081016040528093929190818152602001838380828437600081840152601f19601f8201169050808301925050505050505091929192908035151590602001909291908035906020019092919050505062001a82565b005b60055481565b600260009054906101000a900473ffffffffffffffffffffffffffffffffffffffff1673ffffffffffffffffffffffffffffffffffffffff163373ffffffffffffffffffffffffffffffffffffffff161462000c27576040517f08c379a000000000000000000000000000000000000000000000000000000000815260040180806020018281038252602b81526020018062005cbc602b913960400191505060405180910390fd5b60011515600860008473ffffffffffffffffffffffffffffffffffffffff1673ffffffffffffffffffffffffffffffffffffffff16815260200190815260200160002060010160149054906101000a900460ff161515141562000cf2576040517f08c379a00000000000000000000000000000000000000000000000000000000081526004018080602001828103825260178152602001807f627573696e65737320616c72656164792065786973747300000000000000000081525060200191505060405180910390fd5b6000828260405162000d049062001cfa565b808373ffffffffffffffffffffffffffffffffffffffff1673ffffffffffffffffffffffffffffffffffffffff16815260200180602001828103825283818151815260200191508051906020019080838360005b8381101562000d7557808201518184015260208101905062000d58565b50505050905090810190601f16801562000da35780820380516001836020036101000a031916815260200191505b509350505050604051809103906000f08015801562000dc6573d6000803e3d6000fd5b509050600081905060018490806001815401808255809150509060018203906000526020600020016000909192909190916101000a81548173ffffffffffffffffffffffffffffffffffffffff021916908373ffffffffffffffffffffffffffffffffffffffff1602179055505060066000815480929190600101919050555060405180606001604052808481526020018273ffffffffffffffffffffffffffffffffffffffff16815260200160011515815250600860008673ffffffffffffffffffffffffffffffffffffffff1673ffffffffffffffffffffffffffffffffffffffff168152602001908152602001600020600082015181600001908051906020019062000ed792919062001d08565b5060208201518160010160006101000a81548173ffffffffffffffffffffffffffffffffffffffff021916908373ffffffffffffffffffffffffffffffffffffffff16021790555060408201518160010160146101000a81548160ff0219169083151502179055509050507f2c152c64df0660006b621dcae2b180b1b9d472d27fc7e58863368ef1b5053ee5838583600160405180806020018573ffffffffffffffffffffffffffffffffffffffff1673ffffffffffffffffffffffffffffffffffffffff1681526020018473ffffffffffffffffffffffffffffffffffffffff1673ffffffffffffffffffffffffffffffffffffffff16815260200183151515158152602001828103825286818151815260200191508051906020019080838360005b838110156200101857808201518184015260208101905062000ffb565b50505050905090810190601f168015620010465780820380516001836020036101000a031916815260200191505b509550505050505060405180910390a150505050565b6009602052806000526040600020600091509050806000018054600181600116156101000203166002900480601f0160208091040260200160405190810160405280929190818152602001828054600181600116156101000203166002900480156200110c5780601f10620010e0576101008083540402835291602001916200110c565b820191906000526020600020905b815481529060010190602001808311620010ee57829003601f168201915b5050505050908060010160009054906101000a900460ff16908060010160019054906101000a900460ff16905083565b600260009054906101000a900473ffffffffffffffffffffffffffffffffffffffff1673ffffffffffffffffffffffffffffffffffffffff163373ffffffffffffffffffffffffffffffffffffffff1614620011e4576040517f08c379a000000000000000000000000000000000000000000000000000000000815260040180806020018281038252603c81526020018062005ce7603c913960400191505060405180910390fd5b8060048190555050565b60018181548110620011fc57fe5b906000526020600020016000915054906101000a900473ffffffffffffffffffffffffffffffffffffffff1681565b60045481565b60011515600960008473ffffffffffffffffffffffffffffffffffffffff1673ffffffffffffffffffffffffffffffffffffffff16815260200190815260200160002060010160019054906101000a900460ff1615151415620012e0576040517f08c379a000000000000000000000000000000000000000000000000000000000815260040180806020018281038252602381526020018062005d5d6023913960400191505060405180910390fd5b670de0b6b3a76400006004540234101562001363576040517f08c379a00000000000000000000000000000000000000000000000000000000081526004018080602001828103825260108152602001807f4e6f7420656e6f7567682065746865720000000000000000000000000000000081525060200191505060405180910390fd5b600560008154809291906001019190505550604051806060016040528082815260200160001515815260200160011515815250600960008473ffffffffffffffffffffffffffffffffffffffff1673ffffffffffffffffffffffffffffffffffffffff1681526020019081526020016000206000820151816000019080519060200190620013f392919062001d08565b5060208201518160010160006101000a81548160ff02191690831515021790555060408201518160010160016101000a81548160ff02191690831515021790555090505060008290806001815401808255809150509060018203906000526020600020016000909192909190916101000a81548173ffffffffffffffffffffffffffffffffffffffff021916908373ffffffffffffffffffffffffffffffffffffffff160217905550505050565b60075481565b600260009054906101000a900473ffffffffffffffffffffffffffffffffffffffff1681565b60008181548110620014db57fe5b906000526020600020016000915054906101000a900473ffffffffffffffffffffffffffffffffffffffff1681565b606060018054806020026020016040519081016040528092919081815260200182805480156200159057602002820191906000526020600020905b8160009054906101000a900473ffffffffffffffffffffffffffffffffffffffff1673ffffffffffffffffffffffffffffffffffffffff168152602001906001019080831162001545575b5050505050905090565b6000600960008373ffffffffffffffffffffffffffffffffffffffff1673ffffffffffffffffffffffffffffffffffffffff16815260200190815260200160002060010160019054906101000a900460ff169050919050565b6000600860008373ffffffffffffffffffffffffffffffffffffffff1673ffffffffffffffffffffffffffffffffffffffff16815260200190815260200160002060010160149054906101000a900460ff169050919050565b6008602052806000526040600020600091509050806000018054600181600116156101000203166002900480601f016020809104026020016040519081016040528092919081815260200182805460018160011615610100020316600290048015620016fc5780601f10620016d057610100808354040283529160200191620016fc565b820191906000526020600020905b815481529060010190602001808311620016de57829003601f168201915b5050505050908060010160009054906101000a900473ffffffffffffffffffffffffffffffffffffffff16908060010160149054906101000a900460ff16905083565b6060600080600860008573ffffffffffffffffffffffffffffffffffffffff1673ffffffffffffffffffffffffffffffffffffffff168152602001908152602001600020600001600860008673ffffffffffffffffffffffffffffffffffffffff1673ffffffffffffffffffffffffffffffffffffffff16815260200190815260200160002060010160009054906101000a900473ffffffffffffffffffffffffffffffffffffffff16600860008773ffffffffffffffffffffffffffffffffffffffff1673ffffffffffffffffffffffffffffffffffffffff16815260200190815260200160002060010160149054906101000a900460ff16828054600181600116156101000203166002900480601f016020809104026020016040519081016040528092919081815260200182805460018160011615610100020316600290048015620018d25780601f10620018a657610100808354040283529160200191620018d2565b820191906000526020600020905b815481529060010190602001808311620018b457829003601f168201915b505050505092509250925092509193909250565b60065481565b606060008054806020026020016040519081016040528092919081815260200182805480156200197257602002820191906000526020600020905b8160009054906101000a900473ffffffffffffffffffffffffffffffffffffffff1673ffffffffffffffffffffffffffffffffffffffff168152602001906001019080831162001927575b5050505050905090565b600260009054906101000a900473ffffffffffffffffffffffffffffffffffffffff1673ffffffffffffffffffffffffffffffffffffffff163373ffffffffffffffffffffffffffffffffffffffff161462001a24576040517f08c379a000000000000000000000000000000000000000000000000000000000815260040180806020018281038252603a81526020018062005d23603a913960400191505060405180910390fd5b80600860008473ffffffffffffffffffffffffffffffffffffffff1673ffffffffffffffffffffffffffffffffffffffff16815260200190815260200160002060010160146101000a81548160ff0219169083151502179055505050565b60011515600960008673ffffffffffffffffffffffffffffffffffffffff1673ffffffffffffffffffffffffffffffffffffffff16815260200190815260200160002060010160019054906101000a900460ff161515141562001b31576040517f08c379a000000000000000000000000000000000000000000000000000000000815260040180806020018281038252602381526020018062005d5d6023913960400191505060405180910390fd5b600354811462001ba9576040517f08c379a00000000000000000000000000000000000000000000000000000000081526004018080602001828103825260148152602001807f4e6f742074686520636f727265637420436f646500000000000000000000000081525060200191505060405180910390fd5b6007600081548092919060010191905055506005600081548092919060010191905055506040518060600160405280848152602001831515815260200160011515815250600960008673ffffffffffffffffffffffffffffffffffffffff1673ffffffffffffffffffffffffffffffffffffffff168152602001908152602001600020600082015181600001908051906020019062001c4a92919062001d08565b5060208201518160010160006101000a81548160ff02191690831515021790555060408201518160010160016101000a81548160ff02191690831515021790555090505060008490806001815401808255809150509060018203906000526020600020016000909192909190916101000a81548173ffffffffffffffffffffffffffffffffffffffff021916908373ffffffffffffffffffffffffffffffffffffffff1602179055505050505050565b613f048062001db883390190565b828054600181600116156101000203166002900490600052602060002090601f016020900481019282601f1062001d4b57805160ff191683800117855562001d7c565b8280016001018555821562001d7c579182015b8281111562001d7b57825182559160200191906001019062001d5e565b5b50905062001d8b919062001d8f565b5090565b62001db491905b8082111562001db057600081600090555060010162001d96565b5090565b9056fe60806040523480156200001157600080fd5b5060405162003f0438038062003f04833981810160405260408110156200003757600080fd5b8101908080519060200190929190805160405193929190846401000000008211156200006257600080fd5b838201915060208201858111156200007957600080fd5b82518660018202830111640100000000821117156200009757600080fd5b8083526020830192505050908051906020019080838360005b83811015620000cd578082015181840152602081019050620000b0565b50505050905090810190601f168015620000fb5780820380516001836020036101000a031916815260200191505b5060405250505033600160006101000a81548173ffffffffffffffffffffffffffffffffffffffff021916908373ffffffffffffffffffffffffffffffffffffffff160217905550816000806101000a81548173ffffffffffffffffffffffffffffffffffffffff021916908373ffffffffffffffffffffffffffffffffffffffff16021790555080600390805190602001906200019b92919062000207565b50600160009054906101000a900473ffffffffffffffffffffffffffffffffffffffff16600260006101000a81548173ffffffffffffffffffffffffffffffffffffffff021916908373ffffffffffffffffffffffffffffffffffffffff1602179055505050620002b6565b828054600181600116156101000203166002900490600052602060002090601f016020900481019282601f106200024a57805160ff19168380011785556200027b565b828001600101855582156200027b579182015b828111156200027a5782518255916020019190600101906200025d565b5b5090506200028a91906200028e565b5090565b620002b391905b80821115620002af57600081600090555060010162000295565b5090565b90565b613c3e80620002c66000396000f3fe608060405234801561001057600080fd5b50600436106100cf5760003560e01c8063784dbe3b1161008c578063ad783bac11610066578063ad783bac14610863578063baecf663146108bb578063d514bbd314610905578063e9b2e48e14610964576100cf565b8063784dbe3b146105bb5780638da5cb5b146107cf5780639182690514610819576100cf565b8063017f27a5146100d45780630a9089881461027a5780631d9fb309146102d6578063390ee728146103445780634a3a83831461051a5780635951a7f614610538575b600080fd5b610238600480360360808110156100ea57600080fd5b810190808035906020019064010000000081111561010757600080fd5b82018360208201111561011957600080fd5b8035906020019184600183028401116401000000008311171561013b57600080fd5b91908080601f016020809104026020016040519081016040528093929190818152602001838380828437600081840152601f19601f8201169050808301925050505050505091929192908035906020019064010000000081111561019e57600080fd5b8201836020820111156101b057600080fd5b803590602001918460018302840111640100000000831117156101d257600080fd5b91908080601f016020809104026020016040519081016040528093929190818152602001838380828437600081840152601f19601f82011690508083019250505050505050919291929080359060200190929190803590602001909291905050506109b4565b604051808273ffffffffffffffffffffffffffffffffffffffff1673ffffffffffffffffffffffffffffffffffffffff16815260200191505060405180910390f35b6102bc6004803603602081101561029057600080fd5b81019080803573ffffffffffffffffffffffffffffffffffffffff169060200190929190505050611127565b604051808215151515815260200191505060405180910390f35b610302600480360360208110156102ec57600080fd5b810190808035906020019092919050505061120a565b604051808273ffffffffffffffffffffffffffffffffffffffff1673ffffffffffffffffffffffffffffffffffffffff16815260200191505060405180910390f35b6103866004803603602081101561035a57600080fd5b81019080803573ffffffffffffffffffffffffffffffffffffffff169060200190929190505050611246565b60405180806020018773ffffffffffffffffffffffffffffffffffffffff1673ffffffffffffffffffffffffffffffffffffffff168152602001806020018060200186815260200185815260200184810384528a818151815260200191508051906020019080838360005b8381101561040c5780820151818401526020810190506103f1565b50505050905090810190601f1680156104395780820380516001836020036101000a031916815260200191505b50848103835288818151815260200191508051906020019080838360005b83811015610472578082015181840152602081019050610457565b50505050905090810190601f16801561049f5780820380516001836020036101000a031916815260200191505b50848103825287818151815260200191508051906020019080838360005b838110156104d85780820151818401526020810190506104bd565b50505050905090810190601f1680156105055780820380516001836020036101000a031916815260200191505b50995050505050505050505060405180910390f35b6105226115e8565b6040518082815260200191505060405180910390f35b6105406115f5565b6040518080602001828103825283818151815260200191508051906020019080838360005b83811015610580578082015181840152602081019050610565565b50505050905090810190601f1680156105ad5780820380516001836020036101000a031916815260200191505b509250505060405180910390f35b6105fd600480360360208110156105d157600080fd5b81019080803573ffffffffffffffffffffffffffffffffffffffff169060200190929190505050611693565b60405180806020018973ffffffffffffffffffffffffffffffffffffffff1673ffffffffffffffffffffffffffffffffffffffff1681526020018873ffffffffffffffffffffffffffffffffffffffff1673ffffffffffffffffffffffffffffffffffffffff16815260200180602001806020018781526020018681526020018515151515815260200184810384528c818151815260200191508051906020019080838360005b838110156106bf5780820151818401526020810190506106a4565b50505050905090810190601f1680156106ec5780820380516001836020036101000a031916815260200191505b50848103835289818151815260200191508051906020019080838360005b8381101561072557808201518184015260208101905061070a565b50505050905090810190601f1680156107525780820380516001836020036101000a031916815260200191505b50848103825288818151815260200191508051906020019080838360005b8381101561078b578082015181840152602081019050610770565b50505050905090810190601f1680156107b85780820380516001836020036101000a031916815260200191505b509b50505050505050505050505060405180910390f35b6107d76118f0565b604051808273ffffffffffffffffffffffffffffffffffffffff1673ffffffffffffffffffffffffffffffffffffffff16815260200191505060405180910390f35b610821611915565b604051808273ffffffffffffffffffffffffffffffffffffffff1673ffffffffffffffffffffffffffffffffffffffff16815260200191505060405180910390f35b6108a56004803603602081101561087957600080fd5b81019080803573ffffffffffffffffffffffffffffffffffffffff16906020019092919050505061193e565b6040518082815260200191505060405180910390f35b6108c361198a565b604051808273ffffffffffffffffffffffffffffffffffffffff1673ffffffffffffffffffffffffffffffffffffffff16815260200191505060405180910390f35b61090d6119b0565b6040518080602001828103825283818151815260200191508051906020019060200280838360005b83811015610950578082015181840152602081019050610935565b505050509050019250505060405180910390f35b6109b26004803603604081101561097a57600080fd5b81019080803573ffffffffffffffffffffffffffffffffffffffff169060200190929190803515159060200190929190505050611a3e565b005b60008060009054906101000a900473ffffffffffffffffffffffffffffffffffffffff1673ffffffffffffffffffffffffffffffffffffffff163373ffffffffffffffffffffffffffffffffffffffff1614610a5b576040517f08c379a0000000000000000000000000000000000000000000000000000000008152600401808060200182810382526035815260200180613bb06035913960400191505060405180910390fd5b60011515600260009054906101000a900473ffffffffffffffffffffffffffffffffffffffff1673ffffffffffffffffffffffffffffffffffffffff16639f8a13d76000809054906101000a900473ffffffffffffffffffffffffffffffffffffffff166040518263ffffffff1660e01b8152600401808273ffffffffffffffffffffffffffffffffffffffff1673ffffffffffffffffffffffffffffffffffffffff16815260200191505060206040518083038186803b158015610b1f57600080fd5b505afa158015610b33573d6000803e3d6000fd5b505050506040513d6020811015610b4957600080fd5b8101908080519060200190929190505050151514610bb2576040517f08c379a0000000000000000000000000000000000000000000000000000000008152600401808060200182810382526025815260200180613be56025913960400191505060405180910390fd5b60008211610c0b576040517f08c379a0000000000000000000000000000000000000000000000000000000008152600401808060200182810382526022815260200180613b8e6022913960400191505060405180910390fd5b6000604051610c1990611a94565b604051809103906000f080158015610c35573d6000803e3d6000fd5b509050600081905060048190806001815401808255809150509060018203906000526020600020016000909192909190916101000a81548173ffffffffffffffffffffffffffffffffffffffff021916908373ffffffffffffffffffffffffffffffffffffffff1602179055505060405180610100016040528060038054600181600116156101000203166002900480601f016020809104026020016040519081016040528092919081815260200182805460018160011615610100020316600290048015610d455780601f10610d1a57610100808354040283529160200191610d45565b820191906000526020600020905b815481529060010190602001808311610d2857829003601f168201915b505050505081526020013073ffffffffffffffffffffffffffffffffffffffff1681526020018273ffffffffffffffffffffffffffffffffffffffff16815260200188815260200187815260200185815260200186815260200160011515815250600560008373ffffffffffffffffffffffffffffffffffffffff1673ffffffffffffffffffffffffffffffffffffffff1681526020019081526020016000206000820151816000019080519060200190610e01929190611aa1565b5060208201518160010160006101000a81548173ffffffffffffffffffffffffffffffffffffffff021916908373ffffffffffffffffffffffffffffffffffffffff16021790555060408201518160020160006101000a81548173ffffffffffffffffffffffffffffffffffffffff021916908373ffffffffffffffffffffffffffffffffffffffff1602179055506060820151816003019080519060200190610eac929190611aa1565b506080820151816004019080519060200190610ec9929190611aa1565b5060a0820151816005015560c0820151816006015560e08201518160070160006101000a81548160ff0219169083151502179055509050507fd5138ef107625b064613ede5a900f87da7618e57c214f8018954298d4497fcc7600333838a8a898b600160405180806020018973ffffffffffffffffffffffffffffffffffffffff1673ffffffffffffffffffffffffffffffffffffffff1681526020018873ffffffffffffffffffffffffffffffffffffffff1673ffffffffffffffffffffffffffffffffffffffff16815260200180602001806020018781526020018681526020018515151515815260200184810384528c8181546001816001161561010002031660029004815260200191508054600181600116156101000203166002900480156110375780601f1061100c57610100808354040283529160200191611037565b820191906000526020600020905b81548152906001019060200180831161101a57829003601f168201915b5050848103835289818151815260200191508051906020019080838360005b83811015611071578082015181840152602081019050611056565b50505050905090810190601f16801561109e5780820380516001836020036101000a031916815260200191505b50848103825288818151815260200191508051906020019080838360005b838110156110d75780820151818401526020810190506110bc565b50505050905090810190601f1680156111045780820380516001836020036101000a031916815260200191505b509b50505050505050505050505060405180910390a18092505050949350505050565b6000600260009054906101000a900473ffffffffffffffffffffffffffffffffffffffff1673ffffffffffffffffffffffffffffffffffffffff16639ee20b15836040518263ffffffff1660e01b8152600401808273ffffffffffffffffffffffffffffffffffffffff1673ffffffffffffffffffffffffffffffffffffffff16815260200191505060206040518083038186803b1580156111c857600080fd5b505afa1580156111dc573d6000803e3d6000fd5b505050506040513d60208110156111f257600080fd5b81019080805190602001909291905050509050919050565b6004818154811061121757fe5b906000526020600020016000915054906101000a900473ffffffffffffffffffffffffffffffffffffffff1681565b60606000606080600080600560008873ffffffffffffffffffffffffffffffffffffffff1673ffffffffffffffffffffffffffffffffffffffff168152602001908152602001600020600001600560008973ffffffffffffffffffffffffffffffffffffffff1673ffffffffffffffffffffffffffffffffffffffff16815260200190815260200160002060020160009054906101000a900473ffffffffffffffffffffffffffffffffffffffff16600560008a73ffffffffffffffffffffffffffffffffffffffff1673ffffffffffffffffffffffffffffffffffffffff168152602001908152602001600020600301600560008b73ffffffffffffffffffffffffffffffffffffffff1673ffffffffffffffffffffffffffffffffffffffff168152602001908152602001600020600401600560008c73ffffffffffffffffffffffffffffffffffffffff1673ffffffffffffffffffffffffffffffffffffffff16815260200190815260200160002060050154600560008d73ffffffffffffffffffffffffffffffffffffffff1673ffffffffffffffffffffffffffffffffffffffff16815260200190815260200160002060060154858054600181600116156101000203166002900480601f0160208091040260200160405190810160405280929190818152602001828054600181600116156101000203166002900480156114945780601f1061146957610100808354040283529160200191611494565b820191906000526020600020905b81548152906001019060200180831161147757829003601f168201915b50505050509550838054600181600116156101000203166002900480601f0160208091040260200160405190810160405280929190818152602001828054600181600116156101000203166002900480156115305780601f1061150557610100808354040283529160200191611530565b820191906000526020600020905b81548152906001019060200180831161151357829003601f168201915b50505050509350828054600181600116156101000203166002900480601f0160208091040260200160405190810160405280929190818152602001828054600181600116156101000203166002900480156115cc5780601f106115a1576101008083540402835291602001916115cc565b820191906000526020600020905b8154815290600101906020018083116115af57829003601f168201915b5050505050925095509550955095509550955091939550919395565b6000600480549050905090565b60038054600181600116156101000203166002900480601f01602080910402602001604051908101604052809291908181526020018280546001816001161561010002031660029004801561168b5780601f106116605761010080835404028352916020019161168b565b820191906000526020600020905b81548152906001019060200180831161166e57829003601f168201915b505050505081565b6005602052806000526040600020600091509050806000018054600181600116156101000203166002900480601f01602080910402602001604051908101604052809291908181526020018280546001816001161561010002031660029004801561173f5780601f106117145761010080835404028352916020019161173f565b820191906000526020600020905b81548152906001019060200180831161172257829003601f168201915b5050505050908060010160009054906101000a900473ffffffffffffffffffffffffffffffffffffffff16908060020160009054906101000a900473ffffffffffffffffffffffffffffffffffffffff1690806003018054600181600116156101000203166002900480601f0160208091040260200160405190810160405280929190818152602001828054600181600116156101000203166002900480156118295780601f106117fe57610100808354040283529160200191611829565b820191906000526020600020905b81548152906001019060200180831161180c57829003601f168201915b505050505090806004018054600181600116156101000203166002900480601f0160208091040260200160405190810160405280929190818152602001828054600181600116156101000203166002900480156118c75780601f1061189c576101008083540402835291602001916118c7565b820191906000526020600020905b8154815290600101906020018083116118aa57829003601f168201915b5050505050908060050154908060060154908060070160009054906101000a900460ff16905088565b6000809054906101000a900473ffffffffffffffffffffffffffffffffffffffff1681565b60008060009054906101000a900473ffffffffffffffffffffffffffffffffffffffff16905090565b6000600560008373ffffffffffffffffffffffffffffffffffffffff1673ffffffffffffffffffffffffffffffffffffffff168152602001908152602001600020600501549050919050565b600160009054906101000a900473ffffffffffffffffffffffffffffffffffffffff1681565b60606004805480602002602001604051908101604052809291908181526020018280548015611a3457602002820191906000526020600020905b8160009054906101000a900473ffffffffffffffffffffffffffffffffffffffff1673ffffffffffffffffffffffffffffffffffffffff16815260200190600101908083116119ea575b5050505050905090565b801515600560008473ffffffffffffffffffffffffffffffffffffffff1673ffffffffffffffffffffffffffffffffffffffff16815260200190815260200160002060070160009054906101000a905050505050565b61204780611b4783390190565b828054600181600116156101000203166002900490600052602060002090601f016020900481019282601f10611ae257805160ff1916838001178555611b10565b82800160010185558215611b10579182015b82811115611b0f578251825591602001919060010190611af4565b5b509050611b1d9190611b21565b5090565b611b4391905b80821115611b3f576000816000905550600101611b27565b5090565b9056fe608060405234801561001057600080fd5b5033600360006101000a81548173ffffffffffffffffffffffffffffffffffffffff021916908373ffffffffffffffffffffffffffffffffffffffff16021790555030600460006101000a81548173ffffffffffffffffffffffffffffffffffffffff021916908373ffffffffffffffffffffffffffffffffffffffff160217905550600360009054906101000a900473ffffffffffffffffffffffffffffffffffffffff16600660006101000a81548173ffffffffffffffffffffffffffffffffffffffff021916908373ffffffffffffffffffffffffffffffffffffffff160217905550611f42806101056000396000f3fe6080604052600436106101095760003560e01c806370a0823111610095578063cca3e83211610064578063cca3e8321461055c578063d421ebbb146105c1578063dd4549b714610618578063dd62ed3e14610666578063f2a86517146106eb57610109565b806370a08231146103ba57806382edaf941461041f578063a457c2d714610476578063a9059cbb146104e957610109565b80633474e3b5116100dc5780633474e3b51461029657806339509351146102e75780633ef0f8461461035a57806360ce4ad014610385578063640824131461038f57610109565b8063095ea7b31461010e57806318160ddd1461018157806323b872dd146101ac5780632d182a1d1461023f575b600080fd5b34801561011a57600080fd5b506101676004803603604081101561013157600080fd5b81019080803573ffffffffffffffffffffffffffffffffffffffff16906020019092919080359060200190929190505050610716565b604051808215151515815260200191505060405180910390f35b34801561018d57600080fd5b50610196610734565b6040518082815260200191505060405180910390f35b3480156101b857600080fd5b50610225600480360360608110156101cf57600080fd5b81019080803573ffffffffffffffffffffffffffffffffffffffff169060200190929190803573ffffffffffffffffffffffffffffffffffffffff1690602001909291908035906020019092919050505061073e565b604051808215151515815260200191505060405180910390f35b34801561024b57600080fd5b50610254610817565b604051808273ffffffffffffffffffffffffffffffffffffffff1673ffffffffffffffffffffffffffffffffffffffff16815260200191505060405180910390f35b3480156102a257600080fd5b506102e5600480360360208110156102b957600080fd5b81019080803573ffffffffffffffffffffffffffffffffffffffff16906020019092919050505061083d565b005b3480156102f357600080fd5b506103406004803603604081101561030a57600080fd5b81019080803573ffffffffffffffffffffffffffffffffffffffff16906020019092919080359060200190929190505050610971565b604051808215151515815260200191505060405180910390f35b34801561036657600080fd5b5061036f610a24565b6040518082815260200191505060405180910390f35b61038d610b27565b005b34801561039b57600080fd5b506103a4610e8f565b6040518082815260200191505060405180910390f35b3480156103c657600080fd5b50610409600480360360208110156103dd57600080fd5b81019080803573ffffffffffffffffffffffffffffffffffffffff169060200190929190505050610e99565b6040518082815260200191505060405180910390f35b34801561042b57600080fd5b50610434610ee1565b604051808273ffffffffffffffffffffffffffffffffffffffff1673ffffffffffffffffffffffffffffffffffffffff16815260200191505060405180910390f35b34801561048257600080fd5b506104cf6004803603604081101561049957600080fd5b81019080803573ffffffffffffffffffffffffffffffffffffffff16906020019092919080359060200190929190505050610f07565b604051808215151515815260200191505060405180910390f35b3480156104f557600080fd5b506105426004803603604081101561050c57600080fd5b81019080803573ffffffffffffffffffffffffffffffffffffffff16906020019092919080359060200190929190505050610fd4565b604051808215151515815260200191505060405180910390f35b34801561056857600080fd5b506105ab6004803603602081101561057f57600080fd5b81019080803573ffffffffffffffffffffffffffffffffffffffff169060200190929190505050610ff2565b6040518082815260200191505060405180910390f35b3480156105cd57600080fd5b506105d6611004565b604051808273ffffffffffffffffffffffffffffffffffffffff1673ffffffffffffffffffffffffffffffffffffffff16815260200191505060405180910390f35b6106646004803603604081101561062e57600080fd5b8101908080359060200190929190803573ffffffffffffffffffffffffffffffffffffffff16906020019092919050505061102e565b005b34801561067257600080fd5b506106d56004803603604081101561068957600080fd5b81019080803573ffffffffffffffffffffffffffffffffffffffff169060200190929190803573ffffffffffffffffffffffffffffffffffffffff169060200190929190505050611259565b6040518082815260200191505060405180910390f35b3480156106f757600080fd5b506107006112e0565b6040518082815260200191505060405180910390f35b600061072a6107236112e6565b84846112ee565b6001905092915050565b6000600254905090565b600061074b8484846114e5565b61080c846107576112e6565b61080785604051806060016040528060288152602001611d7360289139600160008b73ffffffffffffffffffffffffffffffffffffffff1673ffffffffffffffffffffffffffffffffffffffff16815260200190815260200160002060006107bd6112e6565b73ffffffffffffffffffffffffffffffffffffffff1673ffffffffffffffffffffffffffffffffffffffff1681526020019081526020016000205461179b9092919063ffffffff16565b6112ee565b600190509392505050565b600360009054906101000a900473ffffffffffffffffffffffffffffffffffffffff1681565b600660009054906101000a900473ffffffffffffffffffffffffffffffffffffffff1673ffffffffffffffffffffffffffffffffffffffff1663918269056040518163ffffffff1660e01b815260040160206040518083038186803b1580156108a557600080fd5b505afa1580156108b9573d6000803e3d6000fd5b505050506040513d60208110156108cf57600080fd5b810190808051906020019092919050505073ffffffffffffffffffffffffffffffffffffffff163373ffffffffffffffffffffffffffffffffffffffff1614610963576040517f08c379a0000000000000000000000000000000000000000000000000000000008152600401808060200182810382526049815260200180611e056049913960600191505060405180910390fd5b61096e81600161185b565b50565b6000610a1a61097e6112e6565b84610a15856001600061098f6112e6565b73ffffffffffffffffffffffffffffffffffffffff1673ffffffffffffffffffffffffffffffffffffffff16815260200190815260200160002060008973ffffffffffffffffffffffffffffffffffffffff1673ffffffffffffffffffffffffffffffffffffffff16815260200190815260200160002054611a1390919063ffffffff16565b6112ee565b6001905092915050565b6000600660009054906101000a900473ffffffffffffffffffffffffffffffffffffffff1673ffffffffffffffffffffffffffffffffffffffff1663ad783bac600460009054906101000a900473ffffffffffffffffffffffffffffffffffffffff166040518263ffffffff1660e01b8152600401808273ffffffffffffffffffffffffffffffffffffffff1673ffffffffffffffffffffffffffffffffffffffff16815260200191505060206040518083038186803b158015610ae757600080fd5b505afa158015610afb573d6000803e3d6000fd5b505050506040513d6020811015610b1157600080fd5b8101908080519060200190929190505050905090565b60011515600660009054906101000a900473ffffffffffffffffffffffffffffffffffffffff1673ffffffffffffffffffffffffffffffffffffffff16630a908988336040518263ffffffff1660e01b8152600401808273ffffffffffffffffffffffffffffffffffffffff1673ffffffffffffffffffffffffffffffffffffffff16815260200191505060206040518083038186803b158015610bca57600080fd5b505afa158015610bde573d6000803e3d6000fd5b505050506040513d6020811015610bf457600080fd5b8101908080519060200190929190505050151514610c5d576040517f08c379a0000000000000000000000000000000000000000000000000000000008152600401808060200182810382526045815260200180611d086045913960600191505060405180910390fd5b600660009054906101000a900473ffffffffffffffffffffffffffffffffffffffff1673ffffffffffffffffffffffffffffffffffffffff1663ad783bac600460009054906101000a900473ffffffffffffffffffffffffffffffffffffffff166040518263ffffffff1660e01b8152600401808273ffffffffffffffffffffffffffffffffffffffff1673ffffffffffffffffffffffffffffffffffffffff16815260200191505060206040518083038186803b158015610d1e57600080fd5b505afa158015610d32573d6000803e3d6000fd5b505050506040513d6020811015610d4857600080fd5b8101908080519060200190929190505050341015610db1576040517f08c379a0000000000000000000000000000000000000000000000000000000008152600401808060200182810382526032815260200180611e7f6032913960400191505060405180910390fd5b6000339050600560008154809291906001019190505550610dd3816001611a9b565b7ff0ce676da4c824552d67a780e98afaee1a8508070c6b9af3c0467e14db64f51081600460009054906101000a900473ffffffffffffffffffffffffffffffffffffffff16604051808373ffffffffffffffffffffffffffffffffffffffff1673ffffffffffffffffffffffffffffffffffffffff1681526020018273ffffffffffffffffffffffffffffffffffffffff1673ffffffffffffffffffffffffffffffffffffffff1681526020019250505060405180910390a150565b6000600554905090565b60008060008373ffffffffffffffffffffffffffffffffffffffff1673ffffffffffffffffffffffffffffffffffffffff168152602001908152602001600020549050919050565b600460009054906101000a900473ffffffffffffffffffffffffffffffffffffffff1681565b6000610fca610f146112e6565b84610fc585604051806060016040528060258152602001611ee96025913960016000610f3e6112e6565b73ffffffffffffffffffffffffffffffffffffffff1673ffffffffffffffffffffffffffffffffffffffff16815260200190815260200160002060008a73ffffffffffffffffffffffffffffffffffffffff1673ffffffffffffffffffffffffffffffffffffffff1681526020019081526020016000205461179b9092919063ffffffff16565b6112ee565b6001905092915050565b6000610fe8610fe16112e6565b84846114e5565b6001905092915050565b6000610ffd82610e99565b9050919050565b6000600360009054906101000a900473ffffffffffffffffffffffffffffffffffffffff16905090565b600073ffffffffffffffffffffffffffffffffffffffff163373ffffffffffffffffffffffffffffffffffffffff16141580156110b95750600460009054906101000a900473ffffffffffffffffffffffffffffffffffffffff1673ffffffffffffffffffffffffffffffffffffffff163373ffffffffffffffffffffffffffffffffffffffff1614155b61110e576040517f08c379a0000000000000000000000000000000000000000000000000000000008152600401808060200182810382526038815260200180611eb16038913960400191505060405180910390fd5b60011515600660009054906101000a900473ffffffffffffffffffffffffffffffffffffffff1673ffffffffffffffffffffffffffffffffffffffff16630a908988836040518263ffffffff1660e01b8152600401808273ffffffffffffffffffffffffffffffffffffffff1673ffffffffffffffffffffffffffffffffffffffff16815260200191505060206040518083038186803b1580156111b157600080fd5b505afa1580156111c5573d6000803e3d6000fd5b505050506040513d60208110156111db57600080fd5b8101908080519060200190929190505050151514611244576040517f08c379a0000000000000000000000000000000000000000000000000000000008152600401808060200182810382526031815260200180611e4e6031913960400191505060405180910390fd5b60003390506112548183856114e5565b505050565b6000600160008473ffffffffffffffffffffffffffffffffffffffff1673ffffffffffffffffffffffffffffffffffffffff16815260200190815260200160002060008373ffffffffffffffffffffffffffffffffffffffff1673ffffffffffffffffffffffffffffffffffffffff16815260200190815260200160002054905092915050565b60055481565b600033905090565b600073ffffffffffffffffffffffffffffffffffffffff168373ffffffffffffffffffffffffffffffffffffffff161415611374576040517f08c379a0000000000000000000000000000000000000000000000000000000008152600401808060200182810382526024815260200180611de16024913960400191505060405180910390fd5b600073ffffffffffffffffffffffffffffffffffffffff168273ffffffffffffffffffffffffffffffffffffffff1614156113fa576040517f08c379a0000000000000000000000000000000000000000000000000000000008152600401808060200182810382526022815260200180611ce66022913960400191505060405180910390fd5b80600160008573ffffffffffffffffffffffffffffffffffffffff1673ffffffffffffffffffffffffffffffffffffffff16815260200190815260200160002060008473ffffffffffffffffffffffffffffffffffffffff1673ffffffffffffffffffffffffffffffffffffffff168152602001908152602001600020819055508173ffffffffffffffffffffffffffffffffffffffff168373ffffffffffffffffffffffffffffffffffffffff167f8c5be1e5ebec7d5bd14f71427d1e84f3dd0314c0f7b2291e5b200ac8c7c3b925836040518082815260200191505060405180910390a3505050565b600073ffffffffffffffffffffffffffffffffffffffff168373ffffffffffffffffffffffffffffffffffffffff16141561156b576040517f08c379a0000000000000000000000000000000000000000000000000000000008152600401808060200182810382526025815260200180611dbc6025913960400191505060405180910390fd5b600073ffffffffffffffffffffffffffffffffffffffff168273ffffffffffffffffffffffffffffffffffffffff1614156115f1576040517f08c379a0000000000000000000000000000000000000000000000000000000008152600401808060200182810382526023815260200180611ca16023913960400191505060405180910390fd5b61165c81604051806060016040528060268152602001611d4d602691396000808773ffffffffffffffffffffffffffffffffffffffff1673ffffffffffffffffffffffffffffffffffffffff1681526020019081526020016000205461179b9092919063ffffffff16565b6000808573ffffffffffffffffffffffffffffffffffffffff1673ffffffffffffffffffffffffffffffffffffffff168152602001908152602001600020819055506116ef816000808573ffffffffffffffffffffffffffffffffffffffff1673ffffffffffffffffffffffffffffffffffffffff16815260200190815260200160002054611a1390919063ffffffff16565b6000808473ffffffffffffffffffffffffffffffffffffffff1673ffffffffffffffffffffffffffffffffffffffff168152602001908152602001600020819055508173ffffffffffffffffffffffffffffffffffffffff168373ffffffffffffffffffffffffffffffffffffffff167fddf252ad1be2c89b69c2b068fc378daa952ba7f163c4a11628f55a4df523b3ef836040518082815260200191505060405180910390a3505050565b6000838311158290611848576040517f08c379a00000000000000000000000000000000000000000000000000000000081526004018080602001828103825283818151815260200191508051906020019080838360005b8381101561180d5780820151818401526020810190506117f2565b50505050905090810190601f16801561183a5780820380516001836020036101000a031916815260200191505b509250505060405180910390fd5b5060008385039050809150509392505050565b600073ffffffffffffffffffffffffffffffffffffffff168273ffffffffffffffffffffffffffffffffffffffff1614156118e1576040517f08c379a0000000000000000000000000000000000000000000000000000000008152600401808060200182810382526021815260200180611d9b6021913960400191505060405180910390fd5b61194c81604051806060016040528060228152602001611cc4602291396000808673ffffffffffffffffffffffffffffffffffffffff1673ffffffffffffffffffffffffffffffffffffffff1681526020019081526020016000205461179b9092919063ffffffff16565b6000808473ffffffffffffffffffffffffffffffffffffffff1673ffffffffffffffffffffffffffffffffffffffff168152602001908152602001600020819055506119a381600254611c5690919063ffffffff16565b600281905550600073ffffffffffffffffffffffffffffffffffffffff168273ffffffffffffffffffffffffffffffffffffffff167fddf252ad1be2c89b69c2b068fc378daa952ba7f163c4a11628f55a4df523b3ef836040518082815260200191505060405180910390a35050565b600080828401905083811015611a91576040517f08c379a000000000000000000000000000000000000000000000000000000000815260040180806020018281038252601b8152602001807f536166654d6174683a206164646974696f6e206f766572666c6f77000000000081525060200191505060405180910390fd5b8091505092915050565b600073ffffffffffffffffffffffffffffffffffffffff168273ffffffffffffffffffffffffffffffffffffffff161415611b3e576040517f08c379a000000000000000000000000000000000000000000000000000000000815260040180806020018281038252601f8152602001807f45524332303a206d696e7420746f20746865207a65726f20616464726573730081525060200191505060405180910390fd5b611b5381600254611a1390919063ffffffff16565b600281905550611baa816000808573ffffffffffffffffffffffffffffffffffffffff1673ffffffffffffffffffffffffffffffffffffffff16815260200190815260200160002054611a1390919063ffffffff16565b6000808473ffffffffffffffffffffffffffffffffffffffff1673ffffffffffffffffffffffffffffffffffffffff168152602001908152602001600020819055508173ffffffffffffffffffffffffffffffffffffffff16600073ffffffffffffffffffffffffffffffffffffffff167fddf252ad1be2c89b69c2b068fc378daa952ba7f163c4a11628f55a4df523b3ef836040518082815260200191505060405180910390a35050565b6000611c9883836040518060400160405280601e81526020017f536166654d6174683a207375627472616374696f6e206f766572666c6f77000081525061179b565b90509291505056fe45524332303a207472616e7366657220746f20746865207a65726f206164647265737345524332303a206275726e20616d6f756e7420657863656564732062616c616e636545524332303a20617070726f766520746f20746865207a65726f206164647265737374686520757365722070757263686173696e67206120746f6b656e206d75737420626520616e20616374697665207573657220696e20746865204c6f766545636f6e6f6d7945524332303a207472616e7366657220616d6f756e7420657863656564732062616c616e636545524332303a207472616e7366657220616d6f756e74206578636565647320616c6c6f77616e636545524332303a206275726e2066726f6d20746865207a65726f206164647265737345524332303a207472616e736665722066726f6d20746865207a65726f206164647265737345524332303a20617070726f76652066726f6d20746865207a65726f20616464726573736f6e6c792074686520627573696e6573732063616e206275726e2074686520746f6b656e207768656e20697420616363657074732074686520746f6b656e206173207061796d656e7474686520726563657069656e74206f662074686520746f6b656e206d75737420626520616e206163746976652075736572707269636520706169642073686f756c642062652061746c6561737420746865207072696365206f6620746865206465616c73656e6465722063616e6e6f7420626520746865207a65726f2061646472657373206f722074686520636f6e747261637420697473656c6645524332303a2064656372656173656420616c6c6f77616e63652062656c6f77207a65726fa265627a7a72315820b7eff61cbb167b677b43ff3a64060289a61155e399c4e4be20561016e2cf5f7664736f6c634300050c00327072696365206e6565647320746f20626520686967686572207468616e207a65726f4f6e6c792074686520627573696e65737320636f6e7472616374206f776e65722063616e20637265617465206e6577206465616c7374686520627573696e657373206d757374206265206163746976652063757272656e746c79a265627a7a723158208210d6e8c921b416087f794b17dd577d1c95aa1dda888249427c7167458a8b2864736f6c634300050c00326f6e6c7920746865204c6f766545636f6e6f6d792063616e20616464206e657720627573696e65737365736f6e6c7920746865204c6f766545636f6e6f6d792063616e206368616e67652074686520666565206368617267656420746f206e65772075736572734f6e6c79204c6f766545636f6e6f6d792063616e206368616e6765207468652061637469766520666c6167206f66206120627573696e6573732e5468697320637573746f6d657220697320616c72656164792072656769737465726564a265627a7a7231582017b13453fbc17d0a850b6b09c727c4382a7455f601ea9577c4e374d0ac0472ef64736f6c634300050c0032",
  "source": "pragma solidity >=0.4.21 <0.6.0;\n\nimport \"./LocalBusiness.sol\";\n\ncontract LoveEconomy {\n\n // create object to store local businesses that sign up for the Love Economy\n\n    struct local_business {\n        string businessName;\n        address businessContractAddress; // not sure whether I need this yet\n        bool active;\n    }\n\n// add a smart contract that has the details of the deals for the business? maybe the price, two-for-one or discount, expiration date?\n\n// object to store Love Economy user details\n    struct user {\n        string userName;\n        bool discountCodeUsed; // whether the user signed in using a discount code\n        bool active;\n    }\n\n    address[] public AllUsers;\n\n    address[] public AllBusinesses;\n\n    address public owner; // this will be the LoveEconomy who is the owner of all the contracts\n    uint private discountCode; // this will be the discount code at the time of contract deployment -> should be set to private and dynamic\n    uint public userFee; // the fee will represent Wei, where the actual value recieved needs to be userFee * 10**18\n\n    uint public userCount; // number of users on the system\n    uint public businessCount; // number of local businesses\n\n    uint public discountCodeCount; // number of discount codes used\n\n    mapping(address => local_business) public businessAddresstoDetails; // id based lookup for businesses\n    mapping(address => user) public userAddresstoDetails; // id based look up for users\n\n\n\n    constructor(uint _discountCode, uint _userFee) public {\n        owner = msg.sender;\n        discountCode = _discountCode;\n        userFee = _userFee;\n    }\n\n    // events\n    event businessAdded (\n        string _businessName,\n        address _businessAddress,\n        address _businessContractAddress,\n        bool _active\n    );\n\n\n    // function to add a new local business to the LoveEconomy\n    // make the function private, as we only want this contract to be able to add new businesses\n\n    function addBusiness(address _businessAddress, string memory _businessName) public {\n        require(msg.sender == owner, \"only the LoveEconomy can add new businesses\"); // can only register once viable deal is aggreed upon\n        require(businessAddresstoDetails[_businessAddress].active != true, \"business already exists\");\n\n        // Deploy new business contract\n        LocalBusiness newBusinessContract = new LocalBusiness(_businessAddress, _businessName);\n        // Store the new contract address\n        address businessContractAddress = address(newBusinessContract);\n        AllBusinesses.push(_businessAddress);\n\n\n        businessCount++;\n        // update the business details and add to the array\n        businessAddresstoDetails[_businessAddress] = local_business(_businessName, businessContractAddress, true);\n        emit businessAdded(_businessName, _businessAddress, businessContractAddress, true);\n    }\n\n    // new users signing up to platform\n    // discount code is a bool: whether one was used or not\n    function addDiscountCodeUser(address _userAddress, string memory _userName, bool _discountCodeUsed, uint _discountCode) public {\n        require(userAddresstoDetails[_userAddress].active != true, \"This customer is already registered\");\n        require(_discountCode == discountCode, \"Not the correct Code\"); // check that the correct dicount code was added\n        //require(msg.sender == _userAddress, \"only the active user can add themselves to the LoveEconomy\");\n\n        discountCodeCount++;\n\n        userCount ++;\n        userAddresstoDetails[_userAddress] = user(_userName, _discountCodeUsed, true);\n        AllUsers.push(_userAddress);\n    }\n\n// new user sign up when they do not have a discount code and rather want to pay, need the function to be payable\n// unsure as could anyone just use someone elses address and then ether will be subtracted from that address?\n    function addUser(address _userAddress, string memory _userName) public payable {\n        require(userAddresstoDetails[_userAddress].active != true, \"This customer is already registered\");\n        require(msg.value >= userFee * 10**18, \"Not enough ether\"); // check that the correct dicount code was added\n        //require(msg.sender == _userAddress, \"only the active user can add themselves to the LoveEconomy\");\n\n        userCount ++;\n        userAddresstoDetails[_userAddress] = user(_userName, false, true);\n        AllUsers.push(_userAddress);\n    }\n\n    // Allow LoveEconomy to activate or deactivate businesses on the platform\n    function setActiveFlag(address _businessWalletAddress, bool _active) public {\n        require(msg.sender == owner, \"Only LoveEconomy can change the active flag of a business.\");\n        businessAddresstoDetails[_businessWalletAddress].active = _active;\n    }\n\n    // function to update the signup value, this can only be called by the LoveEconomy contract owner\n    function updateUserFee(uint _newFee) public {\n        require(msg.sender == owner, \"only the LoveEconomy can change the fee charged to new users\");\n        userFee = _newFee;\n    }\n\n    // function to call informations and run tests\n    function getAllBusinesses() public view returns(address[] memory){\n        return AllBusinesses;\n    }\n\n    function getAllUsers() public view returns(address[] memory){\n        return AllUsers;\n    }\n\n    function getBusinessDetails(address _businessWalletAddress) public view\n        returns (string memory businessName, address businessContractAddress, bool active) {\n\n            return(\n            businessAddresstoDetails[_businessWalletAddress].businessName,\n            businessAddresstoDetails[_businessWalletAddress].businessContractAddress,\n            businessAddresstoDetails[_businessWalletAddress].active\n            );\n\n    }\n\n// function used by the business contract to create a require statement that the business has to be active before creating a new product\n    function isActive(address _businessWalletAddress) public view returns (bool active) {\n\n        return(businessAddresstoDetails[_businessWalletAddress].active);\n    }\n    /// be able to add new discount codes by love economy?\n\n    function isUserActive(address _userAddress) public view returns(bool active) {\n        return(userAddresstoDetails[_userAddress].active);\n    }\n}",
  "sourcePath": "/Users/julikapahl30/FinTech/GitHub/LoveEconomy/contracts/LoveEconomy.sol",
  "compiler": {
    "name": "solc",
    "version": "0.5.12+commit.7709ece9.Emscripten.clang"
  },
  "schemaVersion": "3.0.19",
  "updatedAt": "2020-01-06T07:12:13.785Z",
  "networkType": "ethereum",
  "devdoc": {
    "methods": {}
  },
  "userdoc": {
    "methods": {
      "isUserActive(address)": {
        "notice": "be able to add new discount codes by love economy?"
      }
    }
  }
}