{
  "contractName": "LoveEconomy",
  "abi": [
    {
      "inputs": [
        {
          "internalType": "string",
          "name": "_discountCode",
          "type": "string"
        },
        {
          "internalType": "uint8",
          "name": "_userFee",
          "type": "uint8"
        },
        {
          "internalType": "uint8",
          "name": "_businessFee",
          "type": "uint8"
        }
      ],
      "payable": false,
      "stateMutability": "nonpayable",
      "type": "constructor"
    },
    {
      "anonymous": false,
      "inputs": [
        {
          "indexed": false,
          "internalType": "string",
          "name": "_businessName",
          "type": "string"
        },
        {
          "indexed": false,
          "internalType": "address",
          "name": "_businessAddress",
          "type": "address"
        },
        {
          "indexed": false,
          "internalType": "address",
          "name": "_businessContractAddress",
          "type": "address"
        },
        {
          "indexed": false,
          "internalType": "bool",
          "name": "_active",
          "type": "bool"
        }
      ],
      "name": "businessAdded",
      "type": "event"
    },
    {
      "payable": true,
      "stateMutability": "payable",
      "type": "fallback"
    },
    {
      "constant": true,
      "inputs": [
        {
          "internalType": "uint256",
          "name": "",
          "type": "uint256"
        }
      ],
      "name": "AllBusinesses",
      "outputs": [
        {
          "internalType": "address",
          "name": "",
          "type": "address"
        }
      ],
      "payable": false,
      "stateMutability": "view",
      "type": "function"
    },
    {
      "constant": true,
      "inputs": [
        {
          "internalType": "uint256",
          "name": "",
          "type": "uint256"
        }
      ],
      "name": "AllUsers",
      "outputs": [
        {
          "internalType": "address",
          "name": "",
          "type": "address"
        }
      ],
      "payable": false,
      "stateMutability": "view",
      "type": "function"
    },
    {
      "constant": true,
      "inputs": [
        {
          "internalType": "address",
          "name": "",
          "type": "address"
        }
      ],
      "name": "businessAddresstoDetails",
      "outputs": [
        {
          "internalType": "string",
          "name": "businessName",
          "type": "string"
        },
        {
          "internalType": "address",
          "name": "businessContractAddress",
          "type": "address"
        },
        {
          "internalType": "bool",
          "name": "active",
          "type": "bool"
        }
      ],
      "payable": false,
      "stateMutability": "view",
      "type": "function"
    },
    {
      "constant": true,
      "inputs": [],
      "name": "businessCount",
      "outputs": [
        {
          "internalType": "uint24",
          "name": "",
          "type": "uint24"
        }
      ],
      "payable": false,
      "stateMutability": "view",
      "type": "function"
    },
    {
      "constant": true,
      "inputs": [],
      "name": "businessFee",
      "outputs": [
        {
          "internalType": "uint8",
          "name": "",
          "type": "uint8"
        }
      ],
      "payable": false,
      "stateMutability": "view",
      "type": "function"
    },
    {
      "constant": true,
      "inputs": [],
      "name": "discountCodeCount",
      "outputs": [
        {
          "internalType": "uint24",
          "name": "",
          "type": "uint24"
        }
      ],
      "payable": false,
      "stateMutability": "view",
      "type": "function"
    },
    {
      "constant": true,
      "inputs": [],
      "name": "owner",
      "outputs": [
        {
          "internalType": "address",
          "name": "",
          "type": "address"
        }
      ],
      "payable": false,
      "stateMutability": "view",
      "type": "function"
    },
    {
      "constant": true,
      "inputs": [
        {
          "internalType": "address",
          "name": "",
          "type": "address"
        }
      ],
      "name": "userAddresstoDetails",
      "outputs": [
        {
          "internalType": "string",
          "name": "userName",
          "type": "string"
        },
        {
          "internalType": "bool",
          "name": "discountCodeUsed",
          "type": "bool"
        },
        {
          "internalType": "bool",
          "name": "active",
          "type": "bool"
        }
      ],
      "payable": false,
      "stateMutability": "view",
      "type": "function"
    },
    {
      "constant": true,
      "inputs": [],
      "name": "userCount",
      "outputs": [
        {
          "internalType": "uint24",
          "name": "",
          "type": "uint24"
        }
      ],
      "payable": false,
      "stateMutability": "view",
      "type": "function"
    },
    {
      "constant": true,
      "inputs": [],
      "name": "userFee",
      "outputs": [
        {
          "internalType": "uint8",
          "name": "",
          "type": "uint8"
        }
      ],
      "payable": false,
      "stateMutability": "view",
      "type": "function"
    },
    {
      "constant": false,
      "inputs": [
        {
          "internalType": "address",
          "name": "_businessAddress",
          "type": "address"
        },
        {
          "internalType": "string",
          "name": "_businessName",
          "type": "string"
        }
      ],
      "name": "addBusiness",
      "outputs": [],
      "payable": false,
      "stateMutability": "nonpayable",
      "type": "function"
    },
    {
      "constant": false,
      "inputs": [
        {
          "internalType": "address",
          "name": "_userAddress",
          "type": "address"
        },
        {
          "internalType": "string",
          "name": "_userName",
          "type": "string"
        },
        {
          "internalType": "bool",
          "name": "_discountCodeUsed",
          "type": "bool"
        },
        {
          "internalType": "bytes32",
          "name": "_discountCode",
          "type": "bytes32"
        }
      ],
      "name": "addDiscountCodeUser",
      "outputs": [],
      "payable": false,
      "stateMutability": "nonpayable",
      "type": "function"
    },
    {
      "constant": false,
      "inputs": [
        {
          "internalType": "address",
          "name": "_userAddress",
          "type": "address"
        },
        {
          "internalType": "string",
          "name": "_userName",
          "type": "string"
        }
      ],
      "name": "addUser",
      "outputs": [],
      "payable": true,
      "stateMutability": "payable",
      "type": "function"
    },
    {
      "constant": false,
      "inputs": [
        {
          "internalType": "uint8",
          "name": "_newFee",
          "type": "uint8"
        }
      ],
      "name": "updateUserFee",
      "outputs": [],
      "payable": false,
      "stateMutability": "nonpayable",
      "type": "function"
    },
    {
      "constant": false,
      "inputs": [
        {
          "internalType": "uint8",
          "name": "_newFee",
          "type": "uint8"
        }
      ],
      "name": "updateBusinessFee",
      "outputs": [],
      "payable": false,
      "stateMutability": "nonpayable",
      "type": "function"
    },
    {
      "constant": true,
      "inputs": [],
      "name": "getAllBusinesses",
      "outputs": [
        {
          "internalType": "address[]",
          "name": "",
          "type": "address[]"
        }
      ],
      "payable": false,
      "stateMutability": "view",
      "type": "function"
    },
    {
      "constant": true,
      "inputs": [],
      "name": "getAllUsers",
      "outputs": [
        {
          "internalType": "address[]",
          "name": "",
          "type": "address[]"
        }
      ],
      "payable": false,
      "stateMutability": "view",
      "type": "function"
    },
    {
      "constant": true,
      "inputs": [
        {
          "internalType": "address",
          "name": "_businessWalletAddress",
          "type": "address"
        }
      ],
      "name": "getBusinessDetails",
      "outputs": [
        {
          "internalType": "string",
          "name": "businessName",
          "type": "string"
        },
        {
          "internalType": "address",
          "name": "businessContractAddress",
          "type": "address"
        },
        {
          "internalType": "bool",
          "name": "active",
          "type": "bool"
        }
      ],
      "payable": false,
      "stateMutability": "view",
      "type": "function"
    },
    {
      "constant": true,
      "inputs": [
        {
          "internalType": "address",
          "name": "_businessWalletAddress",
          "type": "address"
        }
      ],
      "name": "isActive",
      "outputs": [
        {
          "internalType": "bool",
          "name": "active",
          "type": "bool"
        }
      ],
      "payable": false,
      "stateMutability": "view",
      "type": "function"
    }
  ],
  "bytecode": "0x60806040523480156200001157600080fd5b506040516200602d3803806200602d833981810160405260608110156200003757600080fd5b81019080805160405193929190846401000000008211156200005857600080fd5b838201915060208201858111156200006f57600080fd5b82518660018202830111640100000000821117156200008d57600080fd5b8083526020830192505050908051906020019080838360005b83811015620000c3578082015181840152602081019050620000a6565b50505050905090810190601f168015620000f15780820380516001836020036101000a031916815260200191505b50604052602001805190602001909291908051906020019092919050505033600260006101000a81548173ffffffffffffffffffffffffffffffffffffffff021916908373ffffffffffffffffffffffffffffffffffffffff160217905550826040516020018082805190602001908083835b6020831062000189578051825260208201915060208101905060208303925062000164565b6001836020036101000a0380198251168184511680821785525050505050509050019150506040516020818303038152906040528051906020012060038190555081600460006101000a81548160ff021916908360ff16021790555080600460016101000a81548160ff021916908360ff160217905550505050615e1a80620002136000396000f3fe6080604052600436106200012e5760003560e01c80638da5cb5b11620000af5780639f8a13d7116200006d5780639f8a13d71462000811578063aeccc77f146200087e578063bc9e2b6d146200098d578063da2aff2a1462000a9c578063e2842d791462000ad4576200012e565b80638da5cb5b146200058e5780638e5ae98814620005e85780638fe6ee44146200061c57806396ba3ffa146200072157806398c4618314620007a0576200012e565b80632df62c3d11620000fd5780632df62c3d14620003805780632f4e0e0014620003ff57806342a1bbd214620004415780634b68d43114620004755780635ee4f86d1462000556576200012e565b806307973ccf146200013057806310f516c714620001685780631b19c71d14620002575780632058ea2c1462000299575b005b3480156200013d57600080fd5b506200014862000b45565b604051808262ffffff1662ffffff16815260200191505060405180910390f35b3480156200017557600080fd5b5062000255600480360360408110156200018e57600080fd5b81019080803573ffffffffffffffffffffffffffffffffffffffff16906020019092919080359060200190640100000000811115620001cc57600080fd5b820183602082011115620001df57600080fd5b803590602001918460018302840111640100000000831117156200020257600080fd5b91908080601f016020809104026020016040519081016040528093929190818152602001838380828437600081840152601f19601f82011690508083019250505050505050919291929050505062000b5a565b005b3480156200026457600080fd5b5062000297600480360360208110156200027d57600080fd5b81019080803560ff1690602001909291905050506200105d565b005b348015620002a657600080fd5b50620002ec60048036036020811015620002bf57600080fd5b81019080803573ffffffffffffffffffffffffffffffffffffffff16906020019092919050505062001123565b60405180806020018415151515815260200183151515158152602001828103825285818151815260200191508051906020019080838360005b838110156200034257808201518184015260208101905062000325565b50505050905090810190601f168015620003705780820380516001836020036101000a031916815260200191505b5094505050505060405180910390f35b3480156200038d57600080fd5b50620003bd60048036036020811015620003a657600080fd5b810190808035906020019092919050505062001203565b604051808273ffffffffffffffffffffffffffffffffffffffff1673ffffffffffffffffffffffffffffffffffffffff16815260200191505060405180910390f35b3480156200040c57600080fd5b506200043f600480360360208110156200042557600080fd5b81019080803560ff16906020019092919050505062001240565b005b3480156200044e57600080fd5b506200045962001306565b604051808260ff1660ff16815260200191505060405180910390f35b62000554600480360360408110156200048d57600080fd5b81019080803573ffffffffffffffffffffffffffffffffffffffff16906020019092919080359060200190640100000000811115620004cb57600080fd5b820183602082011115620004de57600080fd5b803590602001918460018302840111640100000000831117156200050157600080fd5b91908080601f016020809104026020016040519081016040528093929190818152602001838380828437600081840152601f19601f82011690508083019250505050505050919291929050505062001319565b005b3480156200056357600080fd5b506200056e620015c9565b604051808262ffffff1662ffffff16815260200191505060405180910390f35b3480156200059b57600080fd5b50620005a6620015de565b604051808273ffffffffffffffffffffffffffffffffffffffff1673ffffffffffffffffffffffffffffffffffffffff16815260200191505060405180910390f35b348015620005f557600080fd5b506200060062001604565b604051808260ff1660ff16815260200191505060405180910390f35b3480156200062957600080fd5b506200071f600480360360808110156200064257600080fd5b81019080803573ffffffffffffffffffffffffffffffffffffffff169060200190929190803590602001906401000000008111156200068057600080fd5b8201836020820111156200069357600080fd5b80359060200191846001830284011164010000000083111715620006b657600080fd5b91908080601f016020809104026020016040519081016040528093929190818152602001838380828437600081840152601f19601f8201169050808301925050505050505091929192908035151590602001909291908035906020019092919050505062001617565b005b3480156200072e57600080fd5b506200075e600480360360208110156200074757600080fd5b8101908080359060200190929190505050620018db565b604051808273ffffffffffffffffffffffffffffffffffffffff1673ffffffffffffffffffffffffffffffffffffffff16815260200191505060405180910390f35b348015620007ad57600080fd5b50620007b862001918565b6040518080602001828103825283818151815260200191508051906020019060200280838360005b83811015620007fd578082015181840152602081019050620007e0565b505050509050019250505060405180910390f35b3480156200081e57600080fd5b5062000864600480360360208110156200083757600080fd5b81019080803573ffffffffffffffffffffffffffffffffffffffff169060200190929190505050620019a8565b604051808215151515815260200191505060405180910390f35b3480156200088b57600080fd5b50620008d160048036036020811015620008a457600080fd5b81019080803573ffffffffffffffffffffffffffffffffffffffff16906020019092919050505062001a01565b60405180806020018473ffffffffffffffffffffffffffffffffffffffff1673ffffffffffffffffffffffffffffffffffffffff16815260200183151515158152602001828103825285818151815260200191508051906020019080838360005b838110156200094f57808201518184015260208101905062000932565b50505050905090810190601f1680156200097d5780820380516001836020036101000a031916815260200191505b5094505050505060405180910390f35b3480156200099a57600080fd5b50620009e060048036036020811015620009b357600080fd5b81019080803573ffffffffffffffffffffffffffffffffffffffff16906020019092919050505062001af4565b60405180806020018473ffffffffffffffffffffffffffffffffffffffff1673ffffffffffffffffffffffffffffffffffffffff16815260200183151515158152602001828103825285818151815260200191508051906020019080838360005b8381101562000a5e57808201518184015260208101905062000a41565b50505050905090810190601f16801562000a8c5780820380516001836020036101000a031916815260200191505b5094505050505060405180910390f35b34801562000aa957600080fd5b5062000ab462001c9b565b604051808262ffffff1662ffffff16815260200191505060405180910390f35b34801562000ae157600080fd5b5062000aec62001cb0565b6040518080602001828103825283818151815260200191508051906020019060200280838360005b8381101562000b3157808201518184015260208101905062000b14565b505050509050019250505060405180910390f35b600460029054906101000a900462ffffff1681565b600260009054906101000a900473ffffffffffffffffffffffffffffffffffffffff1673ffffffffffffffffffffffffffffffffffffffff163373ffffffffffffffffffffffffffffffffffffffff161462000c02576040517f08c379a000000000000000000000000000000000000000000000000000000000815260040180806020018281038252602b81526020018062005d1b602b913960400191505060405180910390fd5b60011515600560008473ffffffffffffffffffffffffffffffffffffffff1673ffffffffffffffffffffffffffffffffffffffff16815260200190815260200160002060010160149054906101000a900460ff161515141562000ccd576040517f08c379a00000000000000000000000000000000000000000000000000000000081526004018080602001828103825260178152602001807f627573696e65737320616c72656164792065786973747300000000000000000081525060200191505060405180910390fd5b6000828260405162000cdf9062001d40565b808373ffffffffffffffffffffffffffffffffffffffff1673ffffffffffffffffffffffffffffffffffffffff16815260200180602001828103825283818151815260200191508051906020019080838360005b8381101562000d5057808201518184015260208101905062000d33565b50505050905090810190601f16801562000d7e5780820380516001836020036101000a031916815260200191505b509350505050604051809103906000f08015801562000da1573d6000803e3d6000fd5b509050600081905060018490806001815401808255809150509060018203906000526020600020016000909192909190916101000a81548173ffffffffffffffffffffffffffffffffffffffff021916908373ffffffffffffffffffffffffffffffffffffffff160217905550506004600581819054906101000a900462ffffff168092919060010191906101000a81548162ffffff021916908362ffffff1602179055505060405180606001604052808481526020018273ffffffffffffffffffffffffffffffffffffffff16815260200160011515815250600560008673ffffffffffffffffffffffffffffffffffffffff1673ffffffffffffffffffffffffffffffffffffffff168152602001908152602001600020600082015181600001908051906020019062000ed892919062001d4e565b5060208201518160010160006101000a81548173ffffffffffffffffffffffffffffffffffffffff021916908373ffffffffffffffffffffffffffffffffffffffff16021790555060408201518160010160146101000a81548160ff0219169083151502179055509050507f2c152c64df0660006b621dcae2b180b1b9d472d27fc7e58863368ef1b5053ee5838583600160405180806020018573ffffffffffffffffffffffffffffffffffffffff1673ffffffffffffffffffffffffffffffffffffffff1681526020018473ffffffffffffffffffffffffffffffffffffffff1673ffffffffffffffffffffffffffffffffffffffff16815260200183151515158152602001828103825286818151815260200191508051906020019080838360005b838110156200101957808201518184015260208101905062000ffc565b50505050905090810190601f168015620010475780820380516001836020036101000a031916815260200191505b509550505050505060405180910390a150505050565b600260009054906101000a900473ffffffffffffffffffffffffffffffffffffffff1673ffffffffffffffffffffffffffffffffffffffff163373ffffffffffffffffffffffffffffffffffffffff161462001105576040517f08c379a000000000000000000000000000000000000000000000000000000000815260040180806020018281038252604181526020018062005da56041913960600191505060405180910390fd5b80600460016101000a81548160ff021916908360ff16021790555050565b6006602052806000526040600020600091509050806000018054600181600116156101000203166002900480601f016020809104026020016040519081016040528092919081815260200182805460018160011615610100020316600290048015620011d35780601f10620011a757610100808354040283529160200191620011d3565b820191906000526020600020905b815481529060010190602001808311620011b557829003601f168201915b5050505050908060010160009054906101000a900460ff16908060010160019054906101000a900460ff16905083565b600181815481106200121157fe5b906000526020600020016000915054906101000a900473ffffffffffffffffffffffffffffffffffffffff1681565b600260009054906101000a900473ffffffffffffffffffffffffffffffffffffffff1673ffffffffffffffffffffffffffffffffffffffff163373ffffffffffffffffffffffffffffffffffffffff1614620012e8576040517f08c379a000000000000000000000000000000000000000000000000000000000815260040180806020018281038252603c81526020018062005d46603c913960400191505060405180910390fd5b80600460006101000a81548160ff021916908360ff16021790555050565b600460009054906101000a900460ff1681565b60011515600660008473ffffffffffffffffffffffffffffffffffffffff1673ffffffffffffffffffffffffffffffffffffffff16815260200190815260200160002060010160019054906101000a900460ff1615151415620013c8576040517f08c379a000000000000000000000000000000000000000000000000000000000815260040180806020018281038252602381526020018062005d826023913960400191505060405180910390fd5b670de0b6b3a7640000600460009054906101000a900460ff1660ff160267ffffffffffffffff1634101562001465576040517f08c379a00000000000000000000000000000000000000000000000000000000081526004018080602001828103825260108152602001807f4e6f7420656e6f7567682065746865720000000000000000000000000000000081525060200191505060405180910390fd5b6004600281819054906101000a900462ffffff168092919060010191906101000a81548162ffffff021916908362ffffff16021790555050604051806060016040528082815260200160001515815260200160011515815250600660008473ffffffffffffffffffffffffffffffffffffffff1673ffffffffffffffffffffffffffffffffffffffff16815260200190815260200160002060008201518160000190805190602001906200151b92919062001d4e565b5060208201518160010160006101000a81548160ff02191690831515021790555060408201518160010160016101000a81548160ff02191690831515021790555090505060008290806001815401808255809150509060018203906000526020600020016000909192909190916101000a81548173ffffffffffffffffffffffffffffffffffffffff021916908373ffffffffffffffffffffffffffffffffffffffff160217905550505050565b600460089054906101000a900462ffffff1681565b600260009054906101000a900473ffffffffffffffffffffffffffffffffffffffff1681565b600460019054906101000a900460ff1681565b60011515600660008673ffffffffffffffffffffffffffffffffffffffff1673ffffffffffffffffffffffffffffffffffffffff16815260200190815260200160002060010160019054906101000a900460ff1615151415620016c6576040517f08c379a000000000000000000000000000000000000000000000000000000000815260040180806020018281038252602381526020018062005d826023913960400191505060405180910390fd5b60035481146200173e576040517f08c379a00000000000000000000000000000000000000000000000000000000081526004018080602001828103825260148152602001807f4e6f742074686520636f727265637420436f646500000000000000000000000081525060200191505060405180910390fd5b6004600881819054906101000a900462ffffff168092919060010191906101000a81548162ffffff021916908362ffffff160217905550506004600281819054906101000a900462ffffff168092919060010191906101000a81548162ffffff021916908362ffffff160217905550506040518060600160405280848152602001831515815260200160011515815250600660008673ffffffffffffffffffffffffffffffffffffffff1673ffffffffffffffffffffffffffffffffffffffff16815260200190815260200160002060008201518160000190805190602001906200182b92919062001d4e565b5060208201518160010160006101000a81548160ff02191690831515021790555060408201518160010160016101000a81548160ff02191690831515021790555090505060008490806001815401808255809150509060018203906000526020600020016000909192909190916101000a81548173ffffffffffffffffffffffffffffffffffffffff021916908373ffffffffffffffffffffffffffffffffffffffff1602179055505050505050565b60008181548110620018e957fe5b906000526020600020016000915054906101000a900473ffffffffffffffffffffffffffffffffffffffff1681565b606060018054806020026020016040519081016040528092919081815260200182805480156200199e57602002820191906000526020600020905b8160009054906101000a900473ffffffffffffffffffffffffffffffffffffffff1673ffffffffffffffffffffffffffffffffffffffff168152602001906001019080831162001953575b5050505050905090565b6000600560008373ffffffffffffffffffffffffffffffffffffffff1673ffffffffffffffffffffffffffffffffffffffff16815260200190815260200160002060010160149054906101000a900460ff169050919050565b6005602052806000526040600020600091509050806000018054600181600116156101000203166002900480601f01602080910402602001604051908101604052809291908181526020018280546001816001161561010002031660029004801562001ab15780601f1062001a855761010080835404028352916020019162001ab1565b820191906000526020600020905b81548152906001019060200180831162001a9357829003601f168201915b5050505050908060010160009054906101000a900473ffffffffffffffffffffffffffffffffffffffff16908060010160149054906101000a900460ff16905083565b6060600080600560008573ffffffffffffffffffffffffffffffffffffffff1673ffffffffffffffffffffffffffffffffffffffff168152602001908152602001600020600001600560008673ffffffffffffffffffffffffffffffffffffffff1673ffffffffffffffffffffffffffffffffffffffff16815260200190815260200160002060010160009054906101000a900473ffffffffffffffffffffffffffffffffffffffff16600560008773ffffffffffffffffffffffffffffffffffffffff1673ffffffffffffffffffffffffffffffffffffffff16815260200190815260200160002060010160149054906101000a900460ff16828054600181600116156101000203166002900480601f01602080910402602001604051908101604052809291908181526020018280546001816001161561010002031660029004801562001c875780601f1062001c5b5761010080835404028352916020019162001c87565b820191906000526020600020905b81548152906001019060200180831162001c6957829003601f168201915b505050505092509250925092509193909250565b600460059054906101000a900462ffffff1681565b6060600080548060200260200160405190810160405280929190818152602001828054801562001d3657602002820191906000526020600020905b8160009054906101000a900473ffffffffffffffffffffffffffffffffffffffff1673ffffffffffffffffffffffffffffffffffffffff168152602001906001019080831162001ceb575b5050505050905090565b613f1d8062001dfe83390190565b828054600181600116156101000203166002900490600052602060002090601f016020900481019282601f1062001d9157805160ff191683800117855562001dc2565b8280016001018555821562001dc2579182015b8281111562001dc157825182559160200191906001019062001da4565b5b50905062001dd1919062001dd5565b5090565b62001dfa91905b8082111562001df657600081600090555060010162001ddc565b5090565b9056fe608060405260018060146101000a81548160ff0219169083151502179055503480156200002b57600080fd5b5060405162003f1d38038062003f1d833981810160405260408110156200005157600080fd5b8101908080519060200190929190805160405193929190846401000000008211156200007c57600080fd5b838201915060208201858111156200009357600080fd5b8251866001820283011164010000000082111715620000b157600080fd5b8083526020830192505050908051906020019080838360005b83811015620000e7578082015181840152602081019050620000ca565b50505050905090810190601f168015620001155780820380516001836020036101000a031916815260200191505b5060405250505033600160006101000a81548173ffffffffffffffffffffffffffffffffffffffff021916908373ffffffffffffffffffffffffffffffffffffffff160217905550816000806101000a81548173ffffffffffffffffffffffffffffffffffffffff021916908373ffffffffffffffffffffffffffffffffffffffff1602179055508060039080519060200190620001b592919062000221565b50600160009054906101000a900473ffffffffffffffffffffffffffffffffffffffff16600260006101000a81548173ffffffffffffffffffffffffffffffffffffffff021916908373ffffffffffffffffffffffffffffffffffffffff1602179055505050620002d0565b828054600181600116156101000203166002900490600052602060002090601f016020900481019282601f106200026457805160ff191683800117855562000295565b8280016001018555821562000295579182015b828111156200029457825182559160200191906001019062000277565b5b509050620002a49190620002a8565b5090565b620002cd91905b80821115620002c9576000816000905550600101620002af565b5090565b90565b613c3d80620002e06000396000f3fe608060405260043610620000d45760003560e01c8063784dbe3b116200008b578063918269051162000061578063918269051462000884578063baecf66314620008de578063d514bbd31462000938578063e9b2e48e14620009a957620000d4565b8063784dbe3b14620005f05780638da5cb5b146200081e5780638fda356d146200087857620000d4565b80631634937f14620000d95780631d9fb309146200028b578063295b4e17146200030a578063390ee728146200033c5780634a3a8383146200052c5780635951a7f6146200055a575b600080fd5b6200024960048036036080811015620000f157600080fd5b81019080803590602001906401000000008111156200010f57600080fd5b8201836020820111156200012257600080fd5b803590602001918460018302840111640100000000831117156200014557600080fd5b91908080601f016020809104026020016040519081016040528093929190818152602001838380828437600081840152601f19601f82011690508083019250505050505050919291929080359060200190640100000000811115620001a957600080fd5b820183602082011115620001bc57600080fd5b80359060200191846001830284011164010000000083111715620001df57600080fd5b91908080601f016020809104026020016040519081016040528093929190818152602001838380828437600081840152601f19601f82011690508083019250505050505050919291929080359060200190929190803560ff16906020019092919050505062000a0a565b604051808273ffffffffffffffffffffffffffffffffffffffff1673ffffffffffffffffffffffffffffffffffffffff16815260200191505060405180910390f35b3480156200029857600080fd5b50620002c860048036036020811015620002b157600080fd5b8101908080359060200190929190505050620010cb565b604051808273ffffffffffffffffffffffffffffffffffffffff1673ffffffffffffffffffffffffffffffffffffffff16815260200191505060405180910390f35b3480156200031757600080fd5b506200032262001108565b604051808215151515815260200191505060405180910390f35b3480156200034957600080fd5b506200038f600480360360208110156200036257600080fd5b81019080803573ffffffffffffffffffffffffffffffffffffffff1690602001909291905050506200111b565b60405180806020018773ffffffffffffffffffffffffffffffffffffffff1673ffffffffffffffffffffffffffffffffffffffff168152602001806020018060200186815260200185815260200184810384528a818151815260200191508051906020019080838360005b8381101562000417578082015181840152602081019050620003fa565b50505050905090810190601f168015620004455780820380516001836020036101000a031916815260200191505b50848103835288818151815260200191508051906020019080838360005b838110156200048057808201518184015260208101905062000463565b50505050905090810190601f168015620004ae5780820380516001836020036101000a031916815260200191505b50848103825287818151815260200191508051906020019080838360005b83811015620004e9578082015181840152602081019050620004cc565b50505050905090810190601f168015620005175780820380516001836020036101000a031916815260200191505b50995050505050505050505060405180910390f35b3480156200053957600080fd5b5062000544620014c9565b6040518082815260200191505060405180910390f35b3480156200056757600080fd5b5062000572620014d6565b6040518080602001828103825283818151815260200191508051906020019080838360005b83811015620005b457808201518184015260208101905062000597565b50505050905090810190601f168015620005e25780820380516001836020036101000a031916815260200191505b509250505060405180910390f35b348015620005fd57600080fd5b5062000643600480360360208110156200061657600080fd5b81019080803573ffffffffffffffffffffffffffffffffffffffff16906020019092919050505062001578565b60405180806020018973ffffffffffffffffffffffffffffffffffffffff1673ffffffffffffffffffffffffffffffffffffffff1681526020018873ffffffffffffffffffffffffffffffffffffffff1673ffffffffffffffffffffffffffffffffffffffff16815260200180602001806020018781526020018681526020018515151515815260200184810384528c818151815260200191508051906020019080838360005b8381101562000707578082015181840152602081019050620006ea565b50505050905090810190601f168015620007355780820380516001836020036101000a031916815260200191505b50848103835289818151815260200191508051906020019080838360005b838110156200077057808201518184015260208101905062000753565b50505050905090810190601f1680156200079e5780820380516001836020036101000a031916815260200191505b50848103825288818151815260200191508051906020019080838360005b83811015620007d9578082015181840152602081019050620007bc565b50505050905090810190601f168015620008075780820380516001836020036101000a031916815260200191505b509b50505050505050505050505060405180910390f35b3480156200082b57600080fd5b5062000836620017e1565b604051808273ffffffffffffffffffffffffffffffffffffffff1673ffffffffffffffffffffffffffffffffffffffff16815260200191505060405180910390f35b6200088262001806565b005b3480156200089157600080fd5b506200089c62001aa4565b604051808273ffffffffffffffffffffffffffffffffffffffff1673ffffffffffffffffffffffffffffffffffffffff16815260200191505060405180910390f35b348015620008eb57600080fd5b50620008f662001acd565b604051808273ffffffffffffffffffffffffffffffffffffffff1673ffffffffffffffffffffffffffffffffffffffff16815260200191505060405180910390f35b3480156200094557600080fd5b506200095062001af3565b6040518080602001828103825283818151815260200191508051906020019060200280838360005b838110156200099557808201518184015260208101905062000978565b505050509050019250505060405180910390f35b348015620009b657600080fd5b5062000a0860048036036040811015620009cf57600080fd5b81019080803573ffffffffffffffffffffffffffffffffffffffff16906020019092919080351515906020019092919050505062001b83565b005b60008060009054906101000a900473ffffffffffffffffffffffffffffffffffffffff1673ffffffffffffffffffffffffffffffffffffffff163373ffffffffffffffffffffffffffffffffffffffff161462000ab3576040517f08c379a000000000000000000000000000000000000000000000000000000000815260040180806020018281038252603581526020018062003b9f6035913960400191505060405180910390fd5b60008260ff161162000b11576040517f08c379a000000000000000000000000000000000000000000000000000000000815260040180806020018281038252602281526020018062003b7d6022913960400191505060405180910390fd5b6000858360405162000b239062001bd9565b80806020018360ff1660ff168152602001828103825284818151815260200191508051906020019080838360005b8381101562000b6e57808201518184015260208101905062000b51565b50505050905090810190601f16801562000b9c5780820380516001836020036101000a031916815260200191505b509350505050604051809103906000f08015801562000bbf573d6000803e3d6000fd5b509050600081905060048190806001815401808255809150509060018203906000526020600020016000909192909190916101000a81548173ffffffffffffffffffffffffffffffffffffffff021916908373ffffffffffffffffffffffffffffffffffffffff1602179055505060405180610100016040528060038054600181600116156101000203166002900480601f01602080910402602001604051908101604052809291908181526020018280546001816001161561010002031660029004801562000cd35780601f1062000ca75761010080835404028352916020019162000cd3565b820191906000526020600020905b81548152906001019060200180831162000cb557829003601f168201915b505050505081526020013073ffffffffffffffffffffffffffffffffffffffff1681526020018273ffffffffffffffffffffffffffffffffffffffff1681526020018881526020018781526020018560ff16815260200186815260200160011515815250600560008373ffffffffffffffffffffffffffffffffffffffff1673ffffffffffffffffffffffffffffffffffffffff168152602001908152602001600020600082015181600001908051906020019062000d9492919062001be7565b5060208201518160010160006101000a81548173ffffffffffffffffffffffffffffffffffffffff021916908373ffffffffffffffffffffffffffffffffffffffff16021790555060408201518160020160006101000a81548173ffffffffffffffffffffffffffffffffffffffff021916908373ffffffffffffffffffffffffffffffffffffffff160217905550606082015181600301908051906020019062000e4192919062001be7565b50608082015181600401908051906020019062000e6092919062001be7565b5060a0820151816005015560c0820151816006015560e08201518160070160006101000a81548160ff0219169083151502179055509050507fd5138ef107625b064613ede5a900f87da7618e57c214f8018954298d4497fcc7600333838a8a898b600160405180806020018973ffffffffffffffffffffffffffffffffffffffff1673ffffffffffffffffffffffffffffffffffffffff1681526020018873ffffffffffffffffffffffffffffffffffffffff1673ffffffffffffffffffffffffffffffffffffffff16815260200180602001806020018760ff1681526020018681526020018515151515815260200184810384528c81815460018160011615610100020316600290048152602001915080546001816001161561010002031660029004801562000fd55780601f1062000fa95761010080835404028352916020019162000fd5565b820191906000526020600020905b81548152906001019060200180831162000fb757829003601f168201915b5050848103835289818151815260200191508051906020019080838360005b838110156200101157808201518184015260208101905062000ff4565b50505050905090810190601f1680156200103f5780820380516001836020036101000a031916815260200191505b50848103825288818151815260200191508051906020019080838360005b838110156200107a5780820151818401526020810190506200105d565b50505050905090810190601f168015620010a85780820380516001836020036101000a031916815260200191505b509b50505050505050505050505060405180910390a18092505050949350505050565b60048181548110620010d957fe5b906000526020600020016000915054906101000a900473ffffffffffffffffffffffffffffffffffffffff1681565b600160149054906101000a900460ff1681565b60606000606080600080600560008873ffffffffffffffffffffffffffffffffffffffff1673ffffffffffffffffffffffffffffffffffffffff168152602001908152602001600020600001600560008973ffffffffffffffffffffffffffffffffffffffff1673ffffffffffffffffffffffffffffffffffffffff16815260200190815260200160002060020160009054906101000a900473ffffffffffffffffffffffffffffffffffffffff16600560008a73ffffffffffffffffffffffffffffffffffffffff1673ffffffffffffffffffffffffffffffffffffffff168152602001908152602001600020600301600560008b73ffffffffffffffffffffffffffffffffffffffff1673ffffffffffffffffffffffffffffffffffffffff168152602001908152602001600020600401600560008c73ffffffffffffffffffffffffffffffffffffffff1673ffffffffffffffffffffffffffffffffffffffff16815260200190815260200160002060050154600560008d73ffffffffffffffffffffffffffffffffffffffff1673ffffffffffffffffffffffffffffffffffffffff16815260200190815260200160002060060154858054600181600116156101000203166002900480601f0160208091040260200160405190810160405280929190818152602001828054600181600116156101000203166002900480156200136d5780601f1062001341576101008083540402835291602001916200136d565b820191906000526020600020905b8154815290600101906020018083116200134f57829003601f168201915b50505050509550838054600181600116156101000203166002900480601f0160208091040260200160405190810160405280929190818152602001828054600181600116156101000203166002900480156200140d5780601f10620013e1576101008083540402835291602001916200140d565b820191906000526020600020905b815481529060010190602001808311620013ef57829003601f168201915b50505050509350828054600181600116156101000203166002900480601f016020809104026020016040519081016040528092919081815260200182805460018160011615610100020316600290048015620014ad5780601f106200148157610100808354040283529160200191620014ad565b820191906000526020600020905b8154815290600101906020018083116200148f57829003601f168201915b5050505050925095509550955095509550955091939550919395565b6000600480549050905090565b60038054600181600116156101000203166002900480601f016020809104026020016040519081016040528092919081815260200182805460018160011615610100020316600290048015620015705780601f10620015445761010080835404028352916020019162001570565b820191906000526020600020905b8154815290600101906020018083116200155257829003601f168201915b505050505081565b6005602052806000526040600020600091509050806000018054600181600116156101000203166002900480601f016020809104026020016040519081016040528092919081815260200182805460018160011615610100020316600290048015620016285780601f10620015fc5761010080835404028352916020019162001628565b820191906000526020600020905b8154815290600101906020018083116200160a57829003601f168201915b5050505050908060010160009054906101000a900473ffffffffffffffffffffffffffffffffffffffff16908060020160009054906101000a900473ffffffffffffffffffffffffffffffffffffffff1690806003018054600181600116156101000203166002900480601f016020809104026020016040519081016040528092919081815260200182805460018160011615610100020316600290048015620017165780601f10620016ea5761010080835404028352916020019162001716565b820191906000526020600020905b815481529060010190602001808311620016f857829003601f168201915b505050505090806004018054600181600116156101000203166002900480601f016020809104026020016040519081016040528092919081815260200182805460018160011615610100020316600290048015620017b85780601f106200178c57610100808354040283529160200191620017b8565b820191906000526020600020905b8154815290600101906020018083116200179a57829003601f168201915b5050505050908060050154908060060154908060070160009054906101000a900460ff16905088565b6000809054906101000a900473ffffffffffffffffffffffffffffffffffffffff1681565b6000809054906101000a900473ffffffffffffffffffffffffffffffffffffffff1673ffffffffffffffffffffffffffffffffffffffff163373ffffffffffffffffffffffffffffffffffffffff1614620018ad576040517f08c379a000000000000000000000000000000000000000000000000000000000815260040180806020018281038252603081526020018062003b4d6030913960400191505060405180910390fd5b600260009054906101000a900473ffffffffffffffffffffffffffffffffffffffff1673ffffffffffffffffffffffffffffffffffffffff16638e5ae9886040518163ffffffff1660e01b815260040160206040518083038186803b1580156200191657600080fd5b505afa1580156200192b573d6000803e3d6000fd5b505050506040513d60208110156200194257600080fd5b810190808051906020019092919050505060ff16341015620019b0576040517f08c379a000000000000000000000000000000000000000000000000000000000815260040180806020018281038252603581526020018062003bd46035913960400191505060405180910390fd5b60001515600160149054906101000a900460ff1615151462001a1e576040517f08c379a000000000000000000000000000000000000000000000000000000000815260040180806020018281038252602181526020018062003b2c6021913960400191505060405180910390fd5b60018060146101000a81548160ff021916908315150217905550600160009054906101000a900473ffffffffffffffffffffffffffffffffffffffff1673ffffffffffffffffffffffffffffffffffffffff166108fc349081150290604051600060405180830381858888f1935050505015801562001aa1573d6000803e3d6000fd5b50565b60008060009054906101000a900473ffffffffffffffffffffffffffffffffffffffff16905090565b600160009054906101000a900473ffffffffffffffffffffffffffffffffffffffff1681565b6060600480548060200260200160405190810160405280929190818152602001828054801562001b7957602002820191906000526020600020905b8160009054906101000a900473ffffffffffffffffffffffffffffffffffffffff1673ffffffffffffffffffffffffffffffffffffffff168152602001906001019080831162001b2e575b5050505050905090565b801515600560008473ffffffffffffffffffffffffffffffffffffffff1673ffffffffffffffffffffffffffffffffffffffff16815260200190815260200160002060070160009054906101000a905050505050565b611e958062001c9783390190565b828054600181600116156101000203166002900490600052602060002090601f016020900481019282601f1062001c2a57805160ff191683800117855562001c5b565b8280016001018555821562001c5b579182015b8281111562001c5a57825182559160200191906001019062001c3d565b5b50905062001c6a919062001c6e565b5090565b62001c9391905b8082111562001c8f57600081600090555060010162001c75565b5090565b9056fe60806040523480156200001157600080fd5b5060405162001e9538038062001e95833981810160405260408110156200003757600080fd5b81019080805160405193929190846401000000008211156200005857600080fd5b838201915060208201858111156200006f57600080fd5b82518660018202830111640100000000821117156200008d57600080fd5b8083526020830192505050908051906020019080838360005b83811015620000c3578082015181840152602081019050620000a6565b50505050905090810190601f168015620000f15780820380516001836020036101000a031916815260200191505b506040526020018051906020019092919050505033600360006101000a81548173ffffffffffffffffffffffffffffffffffffffff021916908373ffffffffffffffffffffffffffffffffffffffff16021790555030600460006101000a81548173ffffffffffffffffffffffffffffffffffffffff021916908373ffffffffffffffffffffffffffffffffffffffff160217905550600360009054906101000a900473ffffffffffffffffffffffffffffffffffffffff16600660046101000a81548173ffffffffffffffffffffffffffffffffffffffff021916908373ffffffffffffffffffffffffffffffffffffffff16021790555081600590805190602001906200020292919062000226565b5080600660006101000a81548160ff021916908360ff1602179055505050620002d5565b828054600181600116156101000203166002900490600052602060002090601f016020900481019282601f106200026957805160ff19168380011785556200029a565b828001600101855582156200029a579182015b82811115620002995782518255916020019190600101906200027c565b5b509050620002a99190620002ad565b5090565b620002d291905b80821115620002ce576000816000905550600101620002b4565b5090565b90565b611bb080620002e56000396000f3fe60806040526004361061011f5760003560e01c806370a08231116100a0578063cca3e83211610064578063cca3e83214610633578063d421ebbb14610698578063dd4549b7146106ef578063dd62ed3e1461073d578063f2a86517146107c25761011f565b806370a082311461046057806371eba703146104c557806382edaf94146104f6578063a457c2d71461054d578063a9059cbb146105c05761011f565b806339509351116100e757806339509351146102fd5780633ef0f8461461037057806360ce4ad01461039b57806364082413146103a5578063659728ce146103d05761011f565b8063095ea7b31461012457806318160ddd1461019757806323b872dd146101c25780632d182a1d146102555780633474e3b5146102ac575b600080fd5b34801561013057600080fd5b5061017d6004803603604081101561014757600080fd5b81019080803573ffffffffffffffffffffffffffffffffffffffff169060200190929190803590602001909291905050506107f7565b604051808215151515815260200191505060405180910390f35b3480156101a357600080fd5b506101ac610815565b6040518082815260200191505060405180910390f35b3480156101ce57600080fd5b5061023b600480360360608110156101e557600080fd5b81019080803573ffffffffffffffffffffffffffffffffffffffff169060200190929190803573ffffffffffffffffffffffffffffffffffffffff1690602001909291908035906020019092919050505061081f565b604051808215151515815260200191505060405180910390f35b34801561026157600080fd5b5061026a6108f8565b604051808273ffffffffffffffffffffffffffffffffffffffff1673ffffffffffffffffffffffffffffffffffffffff16815260200191505060405180910390f35b3480156102b857600080fd5b506102fb600480360360208110156102cf57600080fd5b81019080803573ffffffffffffffffffffffffffffffffffffffff16906020019092919050505061091e565b005b34801561030957600080fd5b506103566004803603604081101561032057600080fd5b81019080803573ffffffffffffffffffffffffffffffffffffffff16906020019092919080359060200190929190505050610a52565b604051808215151515815260200191505060405180910390f35b34801561037c57600080fd5b50610385610b05565b6040518082815260200191505060405180910390f35b6103a3610b1f565b005b3480156103b157600080fd5b506103ba610bd5565b6040518082815260200191505060405180910390f35b3480156103dc57600080fd5b506103e5610bf3565b6040518080602001828103825283818151815260200191508051906020019080838360005b8381101561042557808201518184015260208101905061040a565b50505050905090810190601f1680156104525780820380516001836020036101000a031916815260200191505b509250505060405180910390f35b34801561046c57600080fd5b506104af6004803603602081101561048357600080fd5b81019080803573ffffffffffffffffffffffffffffffffffffffff169060200190929190505050610c91565b6040518082815260200191505060405180910390f35b3480156104d157600080fd5b506104da610cd9565b604051808260ff1660ff16815260200191505060405180910390f35b34801561050257600080fd5b5061050b610cec565b604051808273ffffffffffffffffffffffffffffffffffffffff1673ffffffffffffffffffffffffffffffffffffffff16815260200191505060405180910390f35b34801561055957600080fd5b506105a66004803603604081101561057057600080fd5b81019080803573ffffffffffffffffffffffffffffffffffffffff16906020019092919080359060200190929190505050610d12565b604051808215151515815260200191505060405180910390f35b3480156105cc57600080fd5b50610619600480360360408110156105e357600080fd5b81019080803573ffffffffffffffffffffffffffffffffffffffff16906020019092919080359060200190929190505050610ddf565b604051808215151515815260200191505060405180910390f35b34801561063f57600080fd5b506106826004803603602081101561065657600080fd5b81019080803573ffffffffffffffffffffffffffffffffffffffff169060200190929190505050610dfd565b6040518082815260200191505060405180910390f35b3480156106a457600080fd5b506106ad610e0f565b604051808273ffffffffffffffffffffffffffffffffffffffff1673ffffffffffffffffffffffffffffffffffffffff16815260200191505060405180910390f35b61073b6004803603604081101561070557600080fd5b8101908080359060200190929190803573ffffffffffffffffffffffffffffffffffffffff169060200190929190505050610e39565b005b34801561074957600080fd5b506107ac6004803603604081101561076057600080fd5b81019080803573ffffffffffffffffffffffffffffffffffffffff169060200190929190803573ffffffffffffffffffffffffffffffffffffffff169060200190929190505050610f2e565b6040518082815260200191505060405180910390f35b3480156107ce57600080fd5b506107d7610fb5565b604051808262ffffff1662ffffff16815260200191505060405180910390f35b600061080b610804610fca565b8484610fd2565b6001905092915050565b6000600254905090565b600061082c8484846111c9565b6108ed84610838610fca565b6108e885604051806060016040528060288152602001611a1260289139600160008b73ffffffffffffffffffffffffffffffffffffffff1673ffffffffffffffffffffffffffffffffffffffff168152602001908152602001600020600061089e610fca565b73ffffffffffffffffffffffffffffffffffffffff1673ffffffffffffffffffffffffffffffffffffffff1681526020019081526020016000205461147f9092919063ffffffff16565b610fd2565b600190509392505050565b600360009054906101000a900473ffffffffffffffffffffffffffffffffffffffff1681565b600660049054906101000a900473ffffffffffffffffffffffffffffffffffffffff1673ffffffffffffffffffffffffffffffffffffffff1663918269056040518163ffffffff1660e01b815260040160206040518083038186803b15801561098657600080fd5b505afa15801561099a573d6000803e3d6000fd5b505050506040513d60208110156109b057600080fd5b810190808051906020019092919050505073ffffffffffffffffffffffffffffffffffffffff163373ffffffffffffffffffffffffffffffffffffffff1614610a44576040517f08c379a0000000000000000000000000000000000000000000000000000000008152600401808060200182810382526049815260200180611aa46049913960600191505060405180910390fd5b610a4f81600161153f565b50565b6000610afb610a5f610fca565b84610af68560016000610a70610fca565b73ffffffffffffffffffffffffffffffffffffffff1673ffffffffffffffffffffffffffffffffffffffff16815260200190815260200160002060008973ffffffffffffffffffffffffffffffffffffffff1673ffffffffffffffffffffffffffffffffffffffff168152602001908152602001600020546116f790919063ffffffff16565b610fd2565b6001905092915050565b6000600660009054906101000a900460ff1660ff16905090565b600660009054906101000a900460ff1660ff16341015610b8a576040517f08c379a0000000000000000000000000000000000000000000000000000000008152600401808060200182810382526032815260200180611aed6032913960400191505060405180910390fd5b60003390506006600181819054906101000a900462ffffff168092919060010191906101000a81548162ffffff021916908362ffffff16021790555050610bd281600161177f565b50565b6000600660019054906101000a900462ffffff1662ffffff16905090565b60058054600181600116156101000203166002900480601f016020809104026020016040519081016040528092919081815260200182805460018160011615610100020316600290048015610c895780601f10610c5e57610100808354040283529160200191610c89565b820191906000526020600020905b815481529060010190602001808311610c6c57829003601f168201915b505050505081565b60008060008373ffffffffffffffffffffffffffffffffffffffff1673ffffffffffffffffffffffffffffffffffffffff168152602001908152602001600020549050919050565b600660009054906101000a900460ff1681565b600460009054906101000a900473ffffffffffffffffffffffffffffffffffffffff1681565b6000610dd5610d1f610fca565b84610dd085604051806060016040528060258152602001611b576025913960016000610d49610fca565b73ffffffffffffffffffffffffffffffffffffffff1673ffffffffffffffffffffffffffffffffffffffff16815260200190815260200160002060008a73ffffffffffffffffffffffffffffffffffffffff1673ffffffffffffffffffffffffffffffffffffffff1681526020019081526020016000205461147f9092919063ffffffff16565b610fd2565b6001905092915050565b6000610df3610dec610fca565b84846111c9565b6001905092915050565b6000610e0882610c91565b9050919050565b6000600360009054906101000a900473ffffffffffffffffffffffffffffffffffffffff16905090565b600073ffffffffffffffffffffffffffffffffffffffff163373ffffffffffffffffffffffffffffffffffffffff1614158015610ec45750600460009054906101000a900473ffffffffffffffffffffffffffffffffffffffff1673ffffffffffffffffffffffffffffffffffffffff163373ffffffffffffffffffffffffffffffffffffffff1614155b610f19576040517f08c379a0000000000000000000000000000000000000000000000000000000008152600401808060200182810382526038815260200180611b1f6038913960400191505060405180910390fd5b6000339050610f298183856111c9565b505050565b6000600160008473ffffffffffffffffffffffffffffffffffffffff1673ffffffffffffffffffffffffffffffffffffffff16815260200190815260200160002060008373ffffffffffffffffffffffffffffffffffffffff1673ffffffffffffffffffffffffffffffffffffffff16815260200190815260200160002054905092915050565b600660019054906101000a900462ffffff1681565b600033905090565b600073ffffffffffffffffffffffffffffffffffffffff168373ffffffffffffffffffffffffffffffffffffffff161415611058576040517f08c379a0000000000000000000000000000000000000000000000000000000008152600401808060200182810382526024815260200180611a806024913960400191505060405180910390fd5b600073ffffffffffffffffffffffffffffffffffffffff168273ffffffffffffffffffffffffffffffffffffffff1614156110de576040517f08c379a00000000000000000000000000000000000000000000000000000000081526004018080602001828103825260228152602001806119ca6022913960400191505060405180910390fd5b80600160008573ffffffffffffffffffffffffffffffffffffffff1673ffffffffffffffffffffffffffffffffffffffff16815260200190815260200160002060008473ffffffffffffffffffffffffffffffffffffffff1673ffffffffffffffffffffffffffffffffffffffff168152602001908152602001600020819055508173ffffffffffffffffffffffffffffffffffffffff168373ffffffffffffffffffffffffffffffffffffffff167f8c5be1e5ebec7d5bd14f71427d1e84f3dd0314c0f7b2291e5b200ac8c7c3b925836040518082815260200191505060405180910390a3505050565b600073ffffffffffffffffffffffffffffffffffffffff168373ffffffffffffffffffffffffffffffffffffffff16141561124f576040517f08c379a0000000000000000000000000000000000000000000000000000000008152600401808060200182810382526025815260200180611a5b6025913960400191505060405180910390fd5b600073ffffffffffffffffffffffffffffffffffffffff168273ffffffffffffffffffffffffffffffffffffffff1614156112d5576040517f08c379a00000000000000000000000000000000000000000000000000000000081526004018080602001828103825260238152602001806119856023913960400191505060405180910390fd5b611340816040518060600160405280602681526020016119ec602691396000808773ffffffffffffffffffffffffffffffffffffffff1673ffffffffffffffffffffffffffffffffffffffff1681526020019081526020016000205461147f9092919063ffffffff16565b6000808573ffffffffffffffffffffffffffffffffffffffff1673ffffffffffffffffffffffffffffffffffffffff168152602001908152602001600020819055506113d3816000808573ffffffffffffffffffffffffffffffffffffffff1673ffffffffffffffffffffffffffffffffffffffff168152602001908152602001600020546116f790919063ffffffff16565b6000808473ffffffffffffffffffffffffffffffffffffffff1673ffffffffffffffffffffffffffffffffffffffff168152602001908152602001600020819055508173ffffffffffffffffffffffffffffffffffffffff168373ffffffffffffffffffffffffffffffffffffffff167fddf252ad1be2c89b69c2b068fc378daa952ba7f163c4a11628f55a4df523b3ef836040518082815260200191505060405180910390a3505050565b600083831115829061152c576040517f08c379a00000000000000000000000000000000000000000000000000000000081526004018080602001828103825283818151815260200191508051906020019080838360005b838110156114f15780820151818401526020810190506114d6565b50505050905090810190601f16801561151e5780820380516001836020036101000a031916815260200191505b509250505060405180910390fd5b5060008385039050809150509392505050565b600073ffffffffffffffffffffffffffffffffffffffff168273ffffffffffffffffffffffffffffffffffffffff1614156115c5576040517f08c379a0000000000000000000000000000000000000000000000000000000008152600401808060200182810382526021815260200180611a3a6021913960400191505060405180910390fd5b611630816040518060600160405280602281526020016119a8602291396000808673ffffffffffffffffffffffffffffffffffffffff1673ffffffffffffffffffffffffffffffffffffffff1681526020019081526020016000205461147f9092919063ffffffff16565b6000808473ffffffffffffffffffffffffffffffffffffffff1673ffffffffffffffffffffffffffffffffffffffff168152602001908152602001600020819055506116878160025461193a90919063ffffffff16565b600281905550600073ffffffffffffffffffffffffffffffffffffffff168273ffffffffffffffffffffffffffffffffffffffff167fddf252ad1be2c89b69c2b068fc378daa952ba7f163c4a11628f55a4df523b3ef836040518082815260200191505060405180910390a35050565b600080828401905083811015611775576040517f08c379a000000000000000000000000000000000000000000000000000000000815260040180806020018281038252601b8152602001807f536166654d6174683a206164646974696f6e206f766572666c6f77000000000081525060200191505060405180910390fd5b8091505092915050565b600073ffffffffffffffffffffffffffffffffffffffff168273ffffffffffffffffffffffffffffffffffffffff161415611822576040517f08c379a000000000000000000000000000000000000000000000000000000000815260040180806020018281038252601f8152602001807f45524332303a206d696e7420746f20746865207a65726f20616464726573730081525060200191505060405180910390fd5b611837816002546116f790919063ffffffff16565b60028190555061188e816000808573ffffffffffffffffffffffffffffffffffffffff1673ffffffffffffffffffffffffffffffffffffffff168152602001908152602001600020546116f790919063ffffffff16565b6000808473ffffffffffffffffffffffffffffffffffffffff1673ffffffffffffffffffffffffffffffffffffffff168152602001908152602001600020819055508173ffffffffffffffffffffffffffffffffffffffff16600073ffffffffffffffffffffffffffffffffffffffff167fddf252ad1be2c89b69c2b068fc378daa952ba7f163c4a11628f55a4df523b3ef836040518082815260200191505060405180910390a35050565b600061197c83836040518060400160405280601e81526020017f536166654d6174683a207375627472616374696f6e206f766572666c6f77000081525061147f565b90509291505056fe45524332303a207472616e7366657220746f20746865207a65726f206164647265737345524332303a206275726e20616d6f756e7420657863656564732062616c616e636545524332303a20617070726f766520746f20746865207a65726f206164647265737345524332303a207472616e7366657220616d6f756e7420657863656564732062616c616e636545524332303a207472616e7366657220616d6f756e74206578636565647320616c6c6f77616e636545524332303a206275726e2066726f6d20746865207a65726f206164647265737345524332303a207472616e736665722066726f6d20746865207a65726f206164647265737345524332303a20617070726f76652066726f6d20746865207a65726f20616464726573736f6e6c792074686520627573696e6573732063616e206275726e2074686520746f6b656e207768656e20697420616363657074732074686520746f6b656e206173207061796d656e74707269636520706169642073686f756c642062652061746c6561737420746865207072696365206f6620746865206465616c73656e6465722063616e6e6f7420626520746865207a65726f2061646472657373206f722074686520636f6e747261637420697473656c6645524332303a2064656372656173656420616c6c6f77616e63652062656c6f77207a65726fa265627a7a72315820971fa02ac7e89066ec46a169487c6f815e1771e20cb75a7e2b72b964ea823dda64736f6c63430005100032627573696e6573732068617320616c7265616479207061696420746865206665654f6e6c792074686520627573696e65737320636f6e74726163742063616e20616c6c20746869732066756e6374696f6e7072696365206e6565647320746f20626520686967686572207468616e207a65726f4f6e6c792074686520627573696e65737320636f6e7472616374206f776e65722063616e20637265617465206e6577206465616c737468652076616c7565206d75737420626520626967676572206f7220657175616c20746f2074686520627573696e65737320666565a265627a7a72315820373e01e640429b5eab000ce4b64b7c1dd2aedc493d336964384f574669dc683e64736f6c634300051000326f6e6c7920746865204c6f766545636f6e6f6d792063616e20616464206e657720627573696e65737365736f6e6c7920746865204c6f766545636f6e6f6d792063616e206368616e67652074686520666565206368617267656420746f206e65772075736572735468697320637573746f6d657220697320616c726561647920726567697374657265646f6e6c7920746865204c6f766545636f6e6f6d792063616e206368616e67652074686520666565206368617267656420746f206e657720627573696e6573736573a265627a7a72315820a8865bd293670ff6e04dceaf4bfcd5d0f9693e039b5280471f2b8d0bb289a87464736f6c63430005100032",
  "source": "pragma solidity >=0.4.21 <0.6.2;\n\nimport \"./LocalBusiness.sol\";\n\ncontract LoveEconomy {\n\n // object to store local businesses that sign up for the Love Economy\n\n    struct local_business {\n        string businessName;\n        address businessContractAddress;\n        bool active;\n    }\n\n// object to store Love Economy user details\n\n    struct user {\n        string userName;\n        bool discountCodeUsed; // whether the user signed in using a discount code\n        bool active;\n    }\n\n    address[] public AllUsers; // array holding all user addresses\n\n    address[] public AllBusinesses; // array holding all business addresses\n\n    address public owner; // this will be the LoveEconomy who is the owner of all the contracts\n    bytes32 private discountCodeHashed; // this will be the discount code at the time of contract deployment\n    uint8 public userFee; // the fee will represent Wei, where the actual value recieved needs to be userFee * 10**18\n    uint8 public businessFee; // the fee that is required to be paid by the business to access the platform\n\n    uint24 public userCount; // number of users on the system\n    uint24 public businessCount; // number of local businesses\n\n    uint24 public discountCodeCount; // number of discount codes used\n\n    mapping(address => local_business) public businessAddresstoDetails; // id based lookup for businesses\n    mapping(address => user) public userAddresstoDetails; // id based look up for users\n\n    constructor(string memory _discountCode, uint8 _userFee, uint8 _businessFee) public {\n        owner = msg.sender;\n        discountCodeHashed = keccak256(abi.encodePacked(_discountCode));\n        userFee = _userFee;\n        businessFee = _businessFee;\n    }\n\n    // events\n    event businessAdded (\n        string _businessName,\n        address _businessAddress,\n        address _businessContractAddress,\n        bool _active\n    );\n\n\n    // function to add a new local business to the LoveEconomy\n    // make the function private, as we only want this contract to be able to add new businesses\n\n    function addBusiness(address _businessAddress, string memory _businessName) public {\n        require(msg.sender == owner, \"only the LoveEconomy can add new businesses\"); // can only register once viable deal is aggreed upon\n        require(businessAddresstoDetails[_businessAddress].active != true, \"business already exists\");\n\n        // Deploy new business contract\n        LocalBusiness newBusinessContract = new LocalBusiness(_businessAddress, _businessName);\n        // Store the new contract address\n        address businessContractAddress = address(newBusinessContract);\n        AllBusinesses.push(_businessAddress);\n\n        businessCount++;\n        // update the business details and add to the array\n        businessAddresstoDetails[_businessAddress] = local_business(_businessName, businessContractAddress, true);\n        emit businessAdded(_businessName, _businessAddress, businessContractAddress, true);\n    }\n\n    // new users signing up to platform\n    // discount code is a bool: whether one was used or not\n    function addDiscountCodeUser(address _userAddress, string memory _userName, bool _discountCodeUsed, bytes32 _discountCode) public {\n        require(userAddresstoDetails[_userAddress].active != true, \"This customer is already registered\");\n        require(_discountCode == discountCodeHashed, \"Not the correct Code\");\n        // check that the correct dicount code was added\n\n        discountCodeCount++;\n        userCount ++;\n        userAddresstoDetails[_userAddress] = user(_userName, _discountCodeUsed, true);\n        AllUsers.push(_userAddress);\n    }\n\n// new user sign up when they do not have a discount code and rather want to pay, need the function to be payable\n// unsure as could anyone just use someone elses address and then ether will be subtracted from that address?\n    function addUser(address _userAddress, string memory _userName) public payable {\n        require(userAddresstoDetails[_userAddress].active != true, \"This customer is already registered\");\n        require(msg.value >= userFee * 10**18, \"Not enough ether\"); // check that the correct dicount code was added\n\n        userCount ++;\n        userAddresstoDetails[_userAddress] = user(_userName, false, true);\n        AllUsers.push(_userAddress);\n    }\n\n    // Allow LoveEconomy to activate or deactivate businesses on the platform\n        // function setActiveFlag(address _businessWalletAddress, bool _active) public {\n        //     require(msg.sender == owner, \"Only LoveEconomy can change the active flag of a business.\");\n        //     businessAddresstoDetails[_businessWalletAddress].active = _active;\n        // }\n\n    // function to update the signup value, this can only be called by the LoveEconomy contract owner\n    function updateUserFee(uint8 _newFee) public {\n        require(msg.sender == owner, \"only the LoveEconomy can change the fee charged to new users\");\n        userFee = _newFee;\n    }\n\n    // function to update the signup value for businesses,\n    // this can only be called by the LoveEconomy contract owner\n    function updateBusinessFee(uint8 _newFee) public {\n        require(msg.sender == owner, \"only the LoveEconomy can change the fee charged to new businesses\");\n        businessFee = _newFee;\n    }\n\n    // function to call informations and run tests\n    function getAllBusinesses() public view returns(address[] memory){\n        return AllBusinesses;\n    }\n\n    function getAllUsers() public view returns(address[] memory){\n        return AllUsers;\n    }\n\n    function getBusinessDetails(address _businessWalletAddress) public view\n        returns (string memory businessName, address businessContractAddress, bool active) {\n\n            return(\n            businessAddresstoDetails[_businessWalletAddress].businessName,\n            businessAddresstoDetails[_businessWalletAddress].businessContractAddress,\n            businessAddresstoDetails[_businessWalletAddress].active\n            );\n\n    }\n\n    function isActive(address _businessWalletAddress) public view returns(bool active) {\n        return(businessAddresstoDetails[_businessWalletAddress].active);\n    }\n\n    // function to recieve ether from the business contracts\n    // fallback function\n    function() external payable {\n\n    }\n}",
  "sourcePath": "/Users/julikapahl30/FinTech/GitHub/LoveEconomy/contracts/LoveEconomy.sol",
  "compiler": {
    "name": "solc",
    "version": "0.5.16+commit.9c3226ce.Emscripten.clang"
  },
  "schemaVersion": "3.0.22",
  "updatedAt": "2020-01-25T15:13:19.349Z",
  "networkType": "ethereum",
  "devdoc": {
    "methods": {}
  },
  "userdoc": {
    "methods": {}
  }
}