{
  "contractName": "LoveEconomy",
  "abi": [
    {
      "inputs": [
        {
          "internalType": "uint256",
          "name": "_discountCode",
          "type": "uint256"
        },
        {
          "internalType": "uint256",
          "name": "_userFee",
          "type": "uint256"
        }
      ],
      "payable": false,
      "stateMutability": "nonpayable",
      "type": "constructor"
    },
    {
      "anonymous": false,
      "inputs": [
        {
          "indexed": false,
          "internalType": "string",
          "name": "_businessName",
          "type": "string"
        },
        {
          "indexed": false,
          "internalType": "address",
          "name": "_businessAddress",
          "type": "address"
        },
        {
          "indexed": false,
          "internalType": "address",
          "name": "_businessContractAddress",
          "type": "address"
        },
        {
          "indexed": false,
          "internalType": "bool",
          "name": "_active",
          "type": "bool"
        }
      ],
      "name": "businessAdded",
      "type": "event"
    },
    {
      "constant": true,
      "inputs": [
        {
          "internalType": "uint256",
          "name": "",
          "type": "uint256"
        }
      ],
      "name": "AllBusinesses",
      "outputs": [
        {
          "internalType": "address",
          "name": "",
          "type": "address"
        }
      ],
      "payable": false,
      "stateMutability": "view",
      "type": "function"
    },
    {
      "constant": true,
      "inputs": [
        {
          "internalType": "uint256",
          "name": "",
          "type": "uint256"
        }
      ],
      "name": "AllUsers",
      "outputs": [
        {
          "internalType": "address",
          "name": "",
          "type": "address"
        }
      ],
      "payable": false,
      "stateMutability": "view",
      "type": "function"
    },
    {
      "constant": true,
      "inputs": [
        {
          "internalType": "address",
          "name": "",
          "type": "address"
        }
      ],
      "name": "businessAddresstoDetails",
      "outputs": [
        {
          "internalType": "string",
          "name": "businessName",
          "type": "string"
        },
        {
          "internalType": "address",
          "name": "businessContractAddress",
          "type": "address"
        },
        {
          "internalType": "bool",
          "name": "active",
          "type": "bool"
        }
      ],
      "payable": false,
      "stateMutability": "view",
      "type": "function"
    },
    {
      "constant": true,
      "inputs": [],
      "name": "businessCount",
      "outputs": [
        {
          "internalType": "uint256",
          "name": "",
          "type": "uint256"
        }
      ],
      "payable": false,
      "stateMutability": "view",
      "type": "function"
    },
    {
      "constant": true,
      "inputs": [],
      "name": "discountCodeCount",
      "outputs": [
        {
          "internalType": "uint256",
          "name": "",
          "type": "uint256"
        }
      ],
      "payable": false,
      "stateMutability": "view",
      "type": "function"
    },
    {
      "constant": true,
      "inputs": [],
      "name": "owner",
      "outputs": [
        {
          "internalType": "address",
          "name": "",
          "type": "address"
        }
      ],
      "payable": false,
      "stateMutability": "view",
      "type": "function"
    },
    {
      "constant": true,
      "inputs": [
        {
          "internalType": "address",
          "name": "",
          "type": "address"
        }
      ],
      "name": "userAddresstoDetails",
      "outputs": [
        {
          "internalType": "string",
          "name": "userName",
          "type": "string"
        },
        {
          "internalType": "bool",
          "name": "discountCodeUsed",
          "type": "bool"
        },
        {
          "internalType": "bool",
          "name": "active",
          "type": "bool"
        }
      ],
      "payable": false,
      "stateMutability": "view",
      "type": "function"
    },
    {
      "constant": true,
      "inputs": [],
      "name": "userCount",
      "outputs": [
        {
          "internalType": "uint256",
          "name": "",
          "type": "uint256"
        }
      ],
      "payable": false,
      "stateMutability": "view",
      "type": "function"
    },
    {
      "constant": true,
      "inputs": [],
      "name": "userFee",
      "outputs": [
        {
          "internalType": "uint256",
          "name": "",
          "type": "uint256"
        }
      ],
      "payable": false,
      "stateMutability": "view",
      "type": "function"
    },
    {
      "constant": false,
      "inputs": [
        {
          "internalType": "address",
          "name": "_businessAddress",
          "type": "address"
        },
        {
          "internalType": "string",
          "name": "_businessName",
          "type": "string"
        }
      ],
      "name": "addBusiness",
      "outputs": [],
      "payable": false,
      "stateMutability": "nonpayable",
      "type": "function"
    },
    {
      "constant": false,
      "inputs": [
        {
          "internalType": "address",
          "name": "_userAddress",
          "type": "address"
        },
        {
          "internalType": "string",
          "name": "_userName",
          "type": "string"
        },
        {
          "internalType": "bool",
          "name": "_discountCodeUsed",
          "type": "bool"
        },
        {
          "internalType": "uint256",
          "name": "_discountCode",
          "type": "uint256"
        }
      ],
      "name": "addDiscountCodeUser",
      "outputs": [],
      "payable": false,
      "stateMutability": "nonpayable",
      "type": "function"
    },
    {
      "constant": false,
      "inputs": [
        {
          "internalType": "address",
          "name": "_userAddress",
          "type": "address"
        },
        {
          "internalType": "string",
          "name": "_userName",
          "type": "string"
        }
      ],
      "name": "addUser",
      "outputs": [],
      "payable": true,
      "stateMutability": "payable",
      "type": "function"
    },
    {
      "constant": false,
      "inputs": [
        {
          "internalType": "address",
          "name": "_businessWalletAddress",
          "type": "address"
        },
        {
          "internalType": "bool",
          "name": "_active",
          "type": "bool"
        }
      ],
      "name": "setActiveFlag",
      "outputs": [],
      "payable": false,
      "stateMutability": "nonpayable",
      "type": "function"
    },
    {
      "constant": false,
      "inputs": [
        {
          "internalType": "uint256",
          "name": "_newFee",
          "type": "uint256"
        }
      ],
      "name": "updateUserFee",
      "outputs": [],
      "payable": false,
      "stateMutability": "nonpayable",
      "type": "function"
    },
    {
      "constant": true,
      "inputs": [],
      "name": "getAllBusinesses",
      "outputs": [
        {
          "internalType": "address[]",
          "name": "",
          "type": "address[]"
        }
      ],
      "payable": false,
      "stateMutability": "view",
      "type": "function"
    },
    {
      "constant": true,
      "inputs": [
        {
          "internalType": "address",
          "name": "_businessWalletAddress",
          "type": "address"
        }
      ],
      "name": "getBusinessDetails",
      "outputs": [
        {
          "internalType": "string",
          "name": "businessName",
          "type": "string"
        },
        {
          "internalType": "address",
          "name": "businessContractAddress",
          "type": "address"
        },
        {
          "internalType": "bool",
          "name": "active",
          "type": "bool"
        }
      ],
      "payable": false,
      "stateMutability": "view",
      "type": "function"
    },
    {
      "constant": true,
      "inputs": [
        {
          "internalType": "address",
          "name": "_businessWalletAddress",
          "type": "address"
        }
      ],
      "name": "isActive",
      "outputs": [
        {
          "internalType": "bool",
          "name": "active",
          "type": "bool"
        }
      ],
      "payable": false,
      "stateMutability": "view",
      "type": "function"
    },
    {
      "constant": true,
      "inputs": [
        {
          "internalType": "address",
          "name": "_userAddress",
          "type": "address"
        }
      ],
      "name": "isUserActive",
      "outputs": [
        {
          "internalType": "bool",
          "name": "active",
          "type": "bool"
        }
      ],
      "payable": false,
      "stateMutability": "view",
      "type": "function"
    }
  ],
  "bytecode": "0x608060405234801561001057600080fd5b5060405161597f38038061597f8339818101604052604081101561003357600080fd5b81019080805190602001909291908051906020019092919050505033600260006101000a81548173ffffffffffffffffffffffffffffffffffffffff021916908373ffffffffffffffffffffffffffffffffffffffff160217905550816003819055508060048190555050506158d1806100ae6000396000f3fe608060405260043610620001225760003560e01c806396ba3ffa11620000a3578063aeccc77f116200006d578063aeccc77f146200074a578063bc9e2b6d1462000859578063da2aff2a1462000968578063e83dfd071462000996578063ed57c24414620009f75762000122565b806396ba3ffa146200058057806398c4618314620005ff5780639ee20b1514620006705780639f8a13d714620006dd5762000122565b80632df62c3d11620000f15780632df62c3d146200036a57806342a1bbd214620003e95780634b68d43114620004175780635ee4f86d14620004f85780638da5cb5b14620005265762000122565b806307973ccf146200012757806310f516c714620001555780632058ea2c146200024457806327e4dcf7146200032b575b600080fd5b3480156200013457600080fd5b506200013f62000afc565b6040518082815260200191505060405180910390f35b3480156200016257600080fd5b5062000242600480360360408110156200017b57600080fd5b81019080803573ffffffffffffffffffffffffffffffffffffffff16906020019092919080359060200190640100000000811115620001b957600080fd5b820183602082011115620001cc57600080fd5b80359060200191846001830284011164010000000083111715620001ef57600080fd5b91908080601f016020809104026020016040519081016040528093929190818152602001838380828437600081840152601f19601f82011690508083019250505050505050919291929050505062000b02565b005b3480156200025157600080fd5b5062000297600480360360208110156200026a57600080fd5b81019080803573ffffffffffffffffffffffffffffffffffffffff16906020019092919050505062000fdf565b60405180806020018415151515815260200183151515158152602001828103825285818151815260200191508051906020019080838360005b83811015620002ed578082015181840152602081019050620002d0565b50505050905090810190601f1680156200031b5780820380516001836020036101000a031916815260200191505b5094505050505060405180910390f35b3480156200033857600080fd5b5062000368600480360360208110156200035157600080fd5b8101908080359060200190929190505050620010bf565b005b3480156200037757600080fd5b50620003a7600480360360208110156200039057600080fd5b810190808035906020019092919050505062001171565b604051808273ffffffffffffffffffffffffffffffffffffffff1673ffffffffffffffffffffffffffffffffffffffff16815260200191505060405180910390f35b348015620003f657600080fd5b5062000401620011ae565b6040518082815260200191505060405180910390f35b620004f6600480360360408110156200042f57600080fd5b81019080803573ffffffffffffffffffffffffffffffffffffffff169060200190929190803590602001906401000000008111156200046d57600080fd5b8201836020820111156200048057600080fd5b80359060200191846001830284011164010000000083111715620004a357600080fd5b91908080601f016020809104026020016040519081016040528093929190818152602001838380828437600081840152601f19601f820116905080830192505050505050509192919290505050620011b4565b005b3480156200050557600080fd5b506200051062001424565b6040518082815260200191505060405180910390f35b3480156200053357600080fd5b506200053e6200142a565b604051808273ffffffffffffffffffffffffffffffffffffffff1673ffffffffffffffffffffffffffffffffffffffff16815260200191505060405180910390f35b3480156200058d57600080fd5b50620005bd60048036036020811015620005a657600080fd5b810190808035906020019092919050505062001450565b604051808273ffffffffffffffffffffffffffffffffffffffff1673ffffffffffffffffffffffffffffffffffffffff16815260200191505060405180910390f35b3480156200060c57600080fd5b50620006176200148d565b6040518080602001828103825283818151815260200191508051906020019060200280838360005b838110156200065c5780820151818401526020810190506200063f565b505050509050019250505060405180910390f35b3480156200067d57600080fd5b50620006c3600480360360208110156200069657600080fd5b81019080803573ffffffffffffffffffffffffffffffffffffffff1690602001909291905050506200151d565b604051808215151515815260200191505060405180910390f35b348015620006ea57600080fd5b5062000730600480360360208110156200070357600080fd5b81019080803573ffffffffffffffffffffffffffffffffffffffff16906020019092919050505062001576565b604051808215151515815260200191505060405180910390f35b3480156200075757600080fd5b506200079d600480360360208110156200077057600080fd5b81019080803573ffffffffffffffffffffffffffffffffffffffff169060200190929190505050620015cf565b60405180806020018473ffffffffffffffffffffffffffffffffffffffff1673ffffffffffffffffffffffffffffffffffffffff16815260200183151515158152602001828103825285818151815260200191508051906020019080838360005b838110156200081b578082015181840152602081019050620007fe565b50505050905090810190601f168015620008495780820380516001836020036101000a031916815260200191505b5094505050505060405180910390f35b3480156200086657600080fd5b50620008ac600480360360208110156200087f57600080fd5b81019080803573ffffffffffffffffffffffffffffffffffffffff169060200190929190505050620016c2565b60405180806020018473ffffffffffffffffffffffffffffffffffffffff1673ffffffffffffffffffffffffffffffffffffffff16815260200183151515158152602001828103825285818151815260200191508051906020019080838360005b838110156200092a5780820151818401526020810190506200090d565b50505050905090810190601f168015620009585780820380516001836020036101000a031916815260200191505b5094505050505060405180910390f35b3480156200097557600080fd5b506200098062001869565b6040518082815260200191505060405180910390f35b348015620009a357600080fd5b50620009f560048036036040811015620009bc57600080fd5b81019080803573ffffffffffffffffffffffffffffffffffffffff1690602001909291908035151590602001909291905050506200186f565b005b34801562000a0457600080fd5b5062000afa6004803603608081101562000a1d57600080fd5b81019080803573ffffffffffffffffffffffffffffffffffffffff1690602001909291908035906020019064010000000081111562000a5b57600080fd5b82018360208201111562000a6e57600080fd5b8035906020019184600183028401116401000000008311171562000a9157600080fd5b91908080601f016020809104026020016040519081016040528093929190818152602001838380828437600081840152601f19601f8201169050808301925050505050505091929192908035151590602001909291908035906020019092919050505062001975565b005b60055481565b600260009054906101000a900473ffffffffffffffffffffffffffffffffffffffff1673ffffffffffffffffffffffffffffffffffffffff163373ffffffffffffffffffffffffffffffffffffffff161462000baa576040517f08c379a000000000000000000000000000000000000000000000000000000000815260040180806020018281038252602b815260200180620057d9602b913960400191505060405180910390fd5b60011515600860008473ffffffffffffffffffffffffffffffffffffffff1673ffffffffffffffffffffffffffffffffffffffff16815260200190815260200160002060010160149054906101000a900460ff161515141562000c75576040517f08c379a00000000000000000000000000000000000000000000000000000000081526004018080602001828103825260178152602001807f627573696e65737320616c72656164792065786973747300000000000000000081525060200191505060405180910390fd5b6000828260405162000c879062001bed565b808373ffffffffffffffffffffffffffffffffffffffff1673ffffffffffffffffffffffffffffffffffffffff16815260200180602001828103825283818151815260200191508051906020019080838360005b8381101562000cf857808201518184015260208101905062000cdb565b50505050905090810190601f16801562000d265780820380516001836020036101000a031916815260200191505b509350505050604051809103906000f08015801562000d49573d6000803e3d6000fd5b509050600081905060018490806001815401808255809150509060018203906000526020600020016000909192909190916101000a81548173ffffffffffffffffffffffffffffffffffffffff021916908373ffffffffffffffffffffffffffffffffffffffff1602179055505060066000815480929190600101919050555060405180606001604052808481526020018273ffffffffffffffffffffffffffffffffffffffff16815260200160011515815250600860008673ffffffffffffffffffffffffffffffffffffffff1673ffffffffffffffffffffffffffffffffffffffff168152602001908152602001600020600082015181600001908051906020019062000e5a92919062001bfb565b5060208201518160010160006101000a81548173ffffffffffffffffffffffffffffffffffffffff021916908373ffffffffffffffffffffffffffffffffffffffff16021790555060408201518160010160146101000a81548160ff0219169083151502179055509050507f2c152c64df0660006b621dcae2b180b1b9d472d27fc7e58863368ef1b5053ee5838583600160405180806020018573ffffffffffffffffffffffffffffffffffffffff1673ffffffffffffffffffffffffffffffffffffffff1681526020018473ffffffffffffffffffffffffffffffffffffffff1673ffffffffffffffffffffffffffffffffffffffff16815260200183151515158152602001828103825286818151815260200191508051906020019080838360005b8381101562000f9b57808201518184015260208101905062000f7e565b50505050905090810190601f16801562000fc95780820380516001836020036101000a031916815260200191505b509550505050505060405180910390a150505050565b6009602052806000526040600020600091509050806000018054600181600116156101000203166002900480601f0160208091040260200160405190810160405280929190818152602001828054600181600116156101000203166002900480156200108f5780601f1062001063576101008083540402835291602001916200108f565b820191906000526020600020905b8154815290600101906020018083116200107157829003601f168201915b5050505050908060010160009054906101000a900460ff16908060010160019054906101000a900460ff16905083565b600260009054906101000a900473ffffffffffffffffffffffffffffffffffffffff1673ffffffffffffffffffffffffffffffffffffffff163373ffffffffffffffffffffffffffffffffffffffff161462001167576040517f08c379a000000000000000000000000000000000000000000000000000000000815260040180806020018281038252603c81526020018062005804603c913960400191505060405180910390fd5b8060048190555050565b600181815481106200117f57fe5b906000526020600020016000915054906101000a900473ffffffffffffffffffffffffffffffffffffffff1681565b60045481565b60011515600960008473ffffffffffffffffffffffffffffffffffffffff1673ffffffffffffffffffffffffffffffffffffffff16815260200190815260200160002060010160019054906101000a900460ff161515141562001263576040517f08c379a00000000000000000000000000000000000000000000000000000000081526004018080602001828103825260238152602001806200587a6023913960400191505060405180910390fd5b670de0b6b3a764000060045402341015620012e6576040517f08c379a00000000000000000000000000000000000000000000000000000000081526004018080602001828103825260108152602001807f4e6f7420656e6f7567682065746865720000000000000000000000000000000081525060200191505060405180910390fd5b600560008154809291906001019190505550604051806060016040528082815260200160001515815260200160011515815250600960008473ffffffffffffffffffffffffffffffffffffffff1673ffffffffffffffffffffffffffffffffffffffff16815260200190815260200160002060008201518160000190805190602001906200137692919062001bfb565b5060208201518160010160006101000a81548160ff02191690831515021790555060408201518160010160016101000a81548160ff02191690831515021790555090505060008290806001815401808255809150509060018203906000526020600020016000909192909190916101000a81548173ffffffffffffffffffffffffffffffffffffffff021916908373ffffffffffffffffffffffffffffffffffffffff160217905550505050565b60075481565b600260009054906101000a900473ffffffffffffffffffffffffffffffffffffffff1681565b600081815481106200145e57fe5b906000526020600020016000915054906101000a900473ffffffffffffffffffffffffffffffffffffffff1681565b606060018054806020026020016040519081016040528092919081815260200182805480156200151357602002820191906000526020600020905b8160009054906101000a900473ffffffffffffffffffffffffffffffffffffffff1673ffffffffffffffffffffffffffffffffffffffff1681526020019060010190808311620014c8575b5050505050905090565b6000600960008373ffffffffffffffffffffffffffffffffffffffff1673ffffffffffffffffffffffffffffffffffffffff16815260200190815260200160002060010160019054906101000a900460ff169050919050565b6000600860008373ffffffffffffffffffffffffffffffffffffffff1673ffffffffffffffffffffffffffffffffffffffff16815260200190815260200160002060010160149054906101000a900460ff169050919050565b6008602052806000526040600020600091509050806000018054600181600116156101000203166002900480601f0160208091040260200160405190810160405280929190818152602001828054600181600116156101000203166002900480156200167f5780601f1062001653576101008083540402835291602001916200167f565b820191906000526020600020905b8154815290600101906020018083116200166157829003601f168201915b5050505050908060010160009054906101000a900473ffffffffffffffffffffffffffffffffffffffff16908060010160149054906101000a900460ff16905083565b6060600080600860008573ffffffffffffffffffffffffffffffffffffffff1673ffffffffffffffffffffffffffffffffffffffff168152602001908152602001600020600001600860008673ffffffffffffffffffffffffffffffffffffffff1673ffffffffffffffffffffffffffffffffffffffff16815260200190815260200160002060010160009054906101000a900473ffffffffffffffffffffffffffffffffffffffff16600860008773ffffffffffffffffffffffffffffffffffffffff1673ffffffffffffffffffffffffffffffffffffffff16815260200190815260200160002060010160149054906101000a900460ff16828054600181600116156101000203166002900480601f016020809104026020016040519081016040528092919081815260200182805460018160011615610100020316600290048015620018555780601f10620018295761010080835404028352916020019162001855565b820191906000526020600020905b8154815290600101906020018083116200183757829003601f168201915b505050505092509250925092509193909250565b60065481565b600260009054906101000a900473ffffffffffffffffffffffffffffffffffffffff1673ffffffffffffffffffffffffffffffffffffffff163373ffffffffffffffffffffffffffffffffffffffff161462001917576040517f08c379a000000000000000000000000000000000000000000000000000000000815260040180806020018281038252603a81526020018062005840603a913960400191505060405180910390fd5b80600860008473ffffffffffffffffffffffffffffffffffffffff1673ffffffffffffffffffffffffffffffffffffffff16815260200190815260200160002060010160146101000a81548160ff0219169083151502179055505050565b60011515600960008673ffffffffffffffffffffffffffffffffffffffff1673ffffffffffffffffffffffffffffffffffffffff16815260200190815260200160002060010160019054906101000a900460ff161515141562001a24576040517f08c379a00000000000000000000000000000000000000000000000000000000081526004018080602001828103825260238152602001806200587a6023913960400191505060405180910390fd5b600354811462001a9c576040517f08c379a00000000000000000000000000000000000000000000000000000000081526004018080602001828103825260148152602001807f4e6f742074686520636f727265637420436f646500000000000000000000000081525060200191505060405180910390fd5b6007600081548092919060010191905055506005600081548092919060010191905055506040518060600160405280848152602001831515815260200160011515815250600960008673ffffffffffffffffffffffffffffffffffffffff1673ffffffffffffffffffffffffffffffffffffffff168152602001908152602001600020600082015181600001908051906020019062001b3d92919062001bfb565b5060208201518160010160006101000a81548160ff02191690831515021790555060408201518160010160016101000a81548160ff02191690831515021790555090505060008490806001815401808255809150509060018203906000526020600020016000909192909190916101000a81548173ffffffffffffffffffffffffffffffffffffffff021916908373ffffffffffffffffffffffffffffffffffffffff1602179055505050505050565b613b2e8062001cab83390190565b828054600181600116156101000203166002900490600052602060002090601f016020900481019282601f1062001c3e57805160ff191683800117855562001c6f565b8280016001018555821562001c6f579182015b8281111562001c6e57825182559160200191906001019062001c51565b5b50905062001c7e919062001c82565b5090565b62001ca791905b8082111562001ca357600081600090555060010162001c89565b5090565b9056fe60806040523480156200001157600080fd5b5060405162003b2e38038062003b2e833981810160405260408110156200003757600080fd5b8101908080519060200190929190805160405193929190846401000000008211156200006257600080fd5b838201915060208201858111156200007957600080fd5b82518660018202830111640100000000821117156200009757600080fd5b8083526020830192505050908051906020019080838360005b83811015620000cd578082015181840152602081019050620000b0565b50505050905090810190601f168015620000fb5780820380516001836020036101000a031916815260200191505b5060405250505033600160006101000a81548173ffffffffffffffffffffffffffffffffffffffff021916908373ffffffffffffffffffffffffffffffffffffffff160217905550816000806101000a81548173ffffffffffffffffffffffffffffffffffffffff021916908373ffffffffffffffffffffffffffffffffffffffff16021790555080600390805190602001906200019b92919062000207565b50600160009054906101000a900473ffffffffffffffffffffffffffffffffffffffff16600260006101000a81548173ffffffffffffffffffffffffffffffffffffffff021916908373ffffffffffffffffffffffffffffffffffffffff1602179055505050620002b6565b828054600181600116156101000203166002900490600052602060002090601f016020900481019282601f106200024a57805160ff19168380011785556200027b565b828001600101855582156200027b579182015b828111156200027a5782518255916020019190600101906200025d565b5b5090506200028a91906200028e565b5090565b620002b391905b80821115620002af57600081600090555060010162000295565b5090565b90565b61386880620002c66000396000f3fe608060405234801561001057600080fd5b50600436106100cf5760003560e01c80635951a7f61161008c578063ad783bac11610066578063ad783bac14610857578063baecf663146108af578063d514bbd3146108f9578063e9b2e48e14610958576100cf565b80635951a7f61461056f578063784dbe3b146105f25780638da5cb5b1461080d576100cf565b8063017f27a5146100d45780630a9089881461027a5780631d9fb309146102d657806321cd1b4014610344578063390ee7281461039c5780634a3a838314610551575b600080fd5b610238600480360360808110156100ea57600080fd5b810190808035906020019064010000000081111561010757600080fd5b82018360208201111561011957600080fd5b8035906020019184600183028401116401000000008311171561013b57600080fd5b91908080601f016020809104026020016040519081016040528093929190818152602001838380828437600081840152601f19601f8201169050808301925050505050505091929192908035906020019064010000000081111561019e57600080fd5b8201836020820111156101b057600080fd5b803590602001918460018302840111640100000000831117156101d257600080fd5b91908080601f016020809104026020016040519081016040528093929190818152602001838380828437600081840152601f19601f82011690508083019250505050505050919291929080359060200190929190803590602001909291905050506109a8565b604051808273ffffffffffffffffffffffffffffffffffffffff1673ffffffffffffffffffffffffffffffffffffffff16815260200191505060405180910390f35b6102bc6004803603602081101561029057600080fd5b81019080803573ffffffffffffffffffffffffffffffffffffffff1690602001909291905050506110c0565b604051808215151515815260200191505060405180910390f35b610302600480360360208110156102ec57600080fd5b81019080803590602001909291905050506111a3565b604051808273ffffffffffffffffffffffffffffffffffffffff1673ffffffffffffffffffffffffffffffffffffffff16815260200191505060405180910390f35b6103866004803603602081101561035a57600080fd5b81019080803573ffffffffffffffffffffffffffffffffffffffff1690602001909291905050506111df565b6040518082815260200191505060405180910390f35b6103de600480360360208110156103b257600080fd5b81019080803573ffffffffffffffffffffffffffffffffffffffff169060200190929190505050611238565b604051808060200180602001806020018881526020018781526020018681526020018515151515815260200184810384528b818151815260200191508051906020019080838360005b83811015610442578082015181840152602081019050610427565b50505050905090810190601f16801561046f5780820380516001836020036101000a031916815260200191505b5084810383528a818151815260200191508051906020019080838360005b838110156104a857808201518184015260208101905061048d565b50505050905090810190601f1680156104d55780820380516001836020036101000a031916815260200191505b50848103825289818151815260200191508051906020019080838360005b8381101561050e5780820151818401526020810190506104f3565b50505050905090810190601f16801561053b5780820380516001836020036101000a031916815260200191505b509a505050505050505050505060405180910390f35b61055961160f565b6040518082815260200191505060405180910390f35b61057761161c565b6040518080602001828103825283818151815260200191508051906020019080838360005b838110156105b757808201518184015260208101905061059c565b50505050905090810190601f1680156105e45780820380516001836020036101000a031916815260200191505b509250505060405180910390f35b6106346004803603602081101561060857600080fd5b81019080803573ffffffffffffffffffffffffffffffffffffffff1690602001909291905050506116ba565b60405180806020018a73ffffffffffffffffffffffffffffffffffffffff1673ffffffffffffffffffffffffffffffffffffffff1681526020018973ffffffffffffffffffffffffffffffffffffffff1673ffffffffffffffffffffffffffffffffffffffff16815260200180602001806020018881526020018781526020018681526020018515151515815260200184810384528d818151815260200191508051906020019080838360005b838110156106fc5780820151818401526020810190506106e1565b50505050905090810190601f1680156107295780820380516001836020036101000a031916815260200191505b5084810383528a818151815260200191508051906020019080838360005b83811015610762578082015181840152602081019050610747565b50505050905090810190601f16801561078f5780820380516001836020036101000a031916815260200191505b50848103825289818151815260200191508051906020019080838360005b838110156107c85780820151818401526020810190506107ad565b50505050905090810190601f1680156107f55780820380516001836020036101000a031916815260200191505b509c5050505050505050505050505060405180910390f35b61081561191d565b604051808273ffffffffffffffffffffffffffffffffffffffff1673ffffffffffffffffffffffffffffffffffffffff16815260200191505060405180910390f35b6108996004803603602081101561086d57600080fd5b81019080803573ffffffffffffffffffffffffffffffffffffffff169060200190929190505050611942565b6040518082815260200191505060405180910390f35b6108b761198e565b604051808273ffffffffffffffffffffffffffffffffffffffff1673ffffffffffffffffffffffffffffffffffffffff16815260200191505060405180910390f35b6109016119b4565b6040518080602001828103825283818151815260200191508051906020019060200280838360005b83811015610944578082015181840152602081019050610929565b505050509050019250505060405180910390f35b6109a66004803603604081101561096e57600080fd5b81019080803573ffffffffffffffffffffffffffffffffffffffff169060200190929190803515159060200190929190505050611a42565b005b60008060009054906101000a900473ffffffffffffffffffffffffffffffffffffffff1673ffffffffffffffffffffffffffffffffffffffff163373ffffffffffffffffffffffffffffffffffffffff1614610a4f576040517f08c379a00000000000000000000000000000000000000000000000000000000081526004018080602001828103825260358152602001806137da6035913960400191505060405180910390fd5b60011515600260009054906101000a900473ffffffffffffffffffffffffffffffffffffffff1673ffffffffffffffffffffffffffffffffffffffff16639f8a13d76000809054906101000a900473ffffffffffffffffffffffffffffffffffffffff166040518263ffffffff1660e01b8152600401808273ffffffffffffffffffffffffffffffffffffffff1673ffffffffffffffffffffffffffffffffffffffff16815260200191505060206040518083038186803b158015610b1357600080fd5b505afa158015610b27573d6000803e3d6000fd5b505050506040513d6020811015610b3d57600080fd5b8101908080519060200190929190505050151514610ba6576040517f08c379a000000000000000000000000000000000000000000000000000000000815260040180806020018281038252602581526020018061380f6025913960400191505060405180910390fd5b60008211610bff576040517f08c379a00000000000000000000000000000000000000000000000000000000081526004018080602001828103825260228152602001806137b86022913960400191505060405180910390fd5b6000604051610c0d90611a98565b604051809103906000f080158015610c29573d6000803e3d6000fd5b509050600081905060048190806001815401808255809150509060018203906000526020600020016000909192909190916101000a81548173ffffffffffffffffffffffffffffffffffffffff021916908373ffffffffffffffffffffffffffffffffffffffff1602179055505060405180610120016040528060038054600181600116156101000203166002900480601f016020809104026020016040519081016040528092919081815260200182805460018160011615610100020316600290048015610d395780601f10610d0e57610100808354040283529160200191610d39565b820191906000526020600020905b815481529060010190602001808311610d1c57829003601f168201915b505050505081526020013073ffffffffffffffffffffffffffffffffffffffff1681526020018273ffffffffffffffffffffffffffffffffffffffff1681526020018881526020018781526020018581526020016000815260200186815260200160011515815250600560008373ffffffffffffffffffffffffffffffffffffffff1673ffffffffffffffffffffffffffffffffffffffff1681526020019081526020016000206000820151816000019080519060200190610dfc929190611aa5565b5060208201518160010160006101000a81548173ffffffffffffffffffffffffffffffffffffffff021916908373ffffffffffffffffffffffffffffffffffffffff16021790555060408201518160020160006101000a81548173ffffffffffffffffffffffffffffffffffffffff021916908373ffffffffffffffffffffffffffffffffffffffff1602179055506060820151816003019080519060200190610ea7929190611aa5565b506080820151816004019080519060200190610ec4929190611aa5565b5060a0820151816005015560c0820151816006015560e082015181600701556101008201518160080160006101000a81548160ff0219169083151502179055509050507fb6a3c58fc5bc457427c885825885ef4802be518d12b779a1d9aa2ca311e6131a600333838a888a600160405180806020018873ffffffffffffffffffffffffffffffffffffffff1673ffffffffffffffffffffffffffffffffffffffff1681526020018773ffffffffffffffffffffffffffffffffffffffff1673ffffffffffffffffffffffffffffffffffffffff168152602001806020018681526020018581526020018415151515815260200183810383528a8181546001816001161561010002031660029004815260200191508054600181600116156101000203166002900480156110385780601f1061100d57610100808354040283529160200191611038565b820191906000526020600020905b81548152906001019060200180831161101b57829003601f168201915b5050838103825287818151815260200191508051906020019080838360005b83811015611072578082015181840152602081019050611057565b50505050905090810190601f16801561109f5780820380516001836020036101000a031916815260200191505b50995050505050505050505060405180910390a18092505050949350505050565b6000600260009054906101000a900473ffffffffffffffffffffffffffffffffffffffff1673ffffffffffffffffffffffffffffffffffffffff16639ee20b15836040518263ffffffff1660e01b8152600401808273ffffffffffffffffffffffffffffffffffffffff1673ffffffffffffffffffffffffffffffffffffffff16815260200191505060206040518083038186803b15801561116157600080fd5b505afa158015611175573d6000803e3d6000fd5b505050506040513d602081101561118b57600080fd5b81019080805190602001909291905050509050919050565b600481815481106111b057fe5b906000526020600020016000915054906101000a900473ffffffffffffffffffffffffffffffffffffffff1681565b600080600560008473ffffffffffffffffffffffffffffffffffffffff1673ffffffffffffffffffffffffffffffffffffffff168152602001908152602001600020600601549050808060010191505080915050919050565b6060806060600080600080600560008973ffffffffffffffffffffffffffffffffffffffff1673ffffffffffffffffffffffffffffffffffffffff168152602001908152602001600020600001600560008a73ffffffffffffffffffffffffffffffffffffffff1673ffffffffffffffffffffffffffffffffffffffff168152602001908152602001600020600301600560008b73ffffffffffffffffffffffffffffffffffffffff1673ffffffffffffffffffffffffffffffffffffffff168152602001908152602001600020600401600560008c73ffffffffffffffffffffffffffffffffffffffff1673ffffffffffffffffffffffffffffffffffffffff16815260200190815260200160002060050154600560008d73ffffffffffffffffffffffffffffffffffffffff1673ffffffffffffffffffffffffffffffffffffffff16815260200190815260200160002060060154600560008e73ffffffffffffffffffffffffffffffffffffffff1673ffffffffffffffffffffffffffffffffffffffff16815260200190815260200160002060070154600560008f73ffffffffffffffffffffffffffffffffffffffff1673ffffffffffffffffffffffffffffffffffffffff16815260200190815260200160002060080160009054906101000a900460ff16868054600181600116156101000203166002900480601f0160208091040260200160405190810160405280929190818152602001828054600181600116156101000203166002900480156114b75780601f1061148c576101008083540402835291602001916114b7565b820191906000526020600020905b81548152906001019060200180831161149a57829003601f168201915b50505050509650858054600181600116156101000203166002900480601f0160208091040260200160405190810160405280929190818152602001828054600181600116156101000203166002900480156115535780601f1061152857610100808354040283529160200191611553565b820191906000526020600020905b81548152906001019060200180831161153657829003601f168201915b50505050509550848054600181600116156101000203166002900480601f0160208091040260200160405190810160405280929190818152602001828054600181600116156101000203166002900480156115ef5780601f106115c4576101008083540402835291602001916115ef565b820191906000526020600020905b8154815290600101906020018083116115d257829003601f168201915b505050505094509650965096509650965096509650919395979092949650565b6000600480549050905090565b60038054600181600116156101000203166002900480601f0160208091040260200160405190810160405280929190818152602001828054600181600116156101000203166002900480156116b25780601f10611687576101008083540402835291602001916116b2565b820191906000526020600020905b81548152906001019060200180831161169557829003601f168201915b505050505081565b6005602052806000526040600020600091509050806000018054600181600116156101000203166002900480601f0160208091040260200160405190810160405280929190818152602001828054600181600116156101000203166002900480156117665780601f1061173b57610100808354040283529160200191611766565b820191906000526020600020905b81548152906001019060200180831161174957829003601f168201915b5050505050908060010160009054906101000a900473ffffffffffffffffffffffffffffffffffffffff16908060020160009054906101000a900473ffffffffffffffffffffffffffffffffffffffff1690806003018054600181600116156101000203166002900480601f0160208091040260200160405190810160405280929190818152602001828054600181600116156101000203166002900480156118505780601f1061182557610100808354040283529160200191611850565b820191906000526020600020905b81548152906001019060200180831161183357829003601f168201915b505050505090806004018054600181600116156101000203166002900480601f0160208091040260200160405190810160405280929190818152602001828054600181600116156101000203166002900480156118ee5780601f106118c3576101008083540402835291602001916118ee565b820191906000526020600020905b8154815290600101906020018083116118d157829003601f168201915b5050505050908060050154908060060154908060070154908060080160009054906101000a900460ff16905089565b6000809054906101000a900473ffffffffffffffffffffffffffffffffffffffff1681565b6000600560008373ffffffffffffffffffffffffffffffffffffffff1673ffffffffffffffffffffffffffffffffffffffff168152602001908152602001600020600501549050919050565b600160009054906101000a900473ffffffffffffffffffffffffffffffffffffffff1681565b60606004805480602002602001604051908101604052809291908181526020018280548015611a3857602002820191906000526020600020905b8160009054906101000a900473ffffffffffffffffffffffffffffffffffffffff1673ffffffffffffffffffffffffffffffffffffffff16815260200190600101908083116119ee575b5050505050905090565b801515600560008473ffffffffffffffffffffffffffffffffffffffff1673ffffffffffffffffffffffffffffffffffffffff16815260200190815260200160002060080160009054906101000a905050505050565b611c6d80611b4b83390190565b828054600181600116156101000203166002900490600052602060002090601f016020900481019282601f10611ae657805160ff1916838001178555611b14565b82800160010185558215611b14579182015b82811115611b13578251825591602001919060010190611af8565b5b509050611b219190611b25565b5090565b611b4791905b80821115611b43576000816000905550600101611b2b565b5090565b9056fe608060405234801561001057600080fd5b5033600360006101000a81548173ffffffffffffffffffffffffffffffffffffffff021916908373ffffffffffffffffffffffffffffffffffffffff160217905550611c0c806100616000396000f3fe6080604052600436106100c25760003560e01c806370a082311161007f578063a9059cbb11610059578063a9059cbb14610439578063d421ebbb146104ac578063dd4549b714610503578063dd62ed3e14610551576100c2565b806370a08231146103135780638a77f6be14610378578063a457c2d7146103c6576100c2565b8063095ea7b3146100c757806318160ddd1461013a57806323b872dd146101655780632d182a1d146101f85780633474e3b51461024f57806339509351146102a0575b600080fd5b3480156100d357600080fd5b50610120600480360360408110156100ea57600080fd5b81019080803573ffffffffffffffffffffffffffffffffffffffff169060200190929190803590602001909291905050506105d6565b604051808215151515815260200191505060405180910390f35b34801561014657600080fd5b5061014f6105f4565b6040518082815260200191505060405180910390f35b34801561017157600080fd5b506101de6004803603606081101561018857600080fd5b81019080803573ffffffffffffffffffffffffffffffffffffffff169060200190929190803573ffffffffffffffffffffffffffffffffffffffff169060200190929190803590602001909291905050506105fe565b604051808215151515815260200191505060405180910390f35b34801561020457600080fd5b5061020d6106d7565b604051808273ffffffffffffffffffffffffffffffffffffffff1673ffffffffffffffffffffffffffffffffffffffff16815260200191505060405180910390f35b34801561025b57600080fd5b5061029e6004803603602081101561027257600080fd5b81019080803573ffffffffffffffffffffffffffffffffffffffff1690602001909291905050506106fd565b005b3480156102ac57600080fd5b506102f9600480360360408110156102c357600080fd5b81019080803573ffffffffffffffffffffffffffffffffffffffff169060200190929190803590602001909291905050506107b1565b604051808215151515815260200191505060405180910390f35b34801561031f57600080fd5b506103626004803603602081101561033657600080fd5b81019080803573ffffffffffffffffffffffffffffffffffffffff169060200190929190505050610864565b6040518082815260200191505060405180910390f35b6103c46004803603604081101561038e57600080fd5b81019080803573ffffffffffffffffffffffffffffffffffffffff169060200190929190803590602001909291905050506108ac565b005b3480156103d257600080fd5b5061041f600480360360408110156103e957600080fd5b81019080803573ffffffffffffffffffffffffffffffffffffffff16906020019092919080359060200190929190505050610bfd565b604051808215151515815260200191505060405180910390f35b34801561044557600080fd5b506104926004803603604081101561045c57600080fd5b81019080803573ffffffffffffffffffffffffffffffffffffffff16906020019092919080359060200190929190505050610cca565b604051808215151515815260200191505060405180910390f35b3480156104b857600080fd5b506104c1610ce8565b604051808273ffffffffffffffffffffffffffffffffffffffff1673ffffffffffffffffffffffffffffffffffffffff16815260200191505060405180910390f35b61054f6004803603604081101561051957600080fd5b8101908080359060200190929190803573ffffffffffffffffffffffffffffffffffffffff169060200190929190505050610d12565b005b34801561055d57600080fd5b506105c06004803603604081101561057457600080fd5b81019080803573ffffffffffffffffffffffffffffffffffffffff169060200190929190803573ffffffffffffffffffffffffffffffffffffffff169060200190929190505050610f20565b6040518082815260200191505060405180910390f35b60006105ea6105e3610fa7565b8484610faf565b6001905092915050565b6000600254905090565b600061060b8484846111a6565b6106cc84610617610fa7565b6106c785604051806060016040528060288152602001611a6e60289139600160008b73ffffffffffffffffffffffffffffffffffffffff1673ffffffffffffffffffffffffffffffffffffffff168152602001908152602001600020600061067d610fa7565b73ffffffffffffffffffffffffffffffffffffffff1673ffffffffffffffffffffffffffffffffffffffff1681526020019081526020016000205461145c9092919063ffffffff16565b610faf565b600190509392505050565b600360009054906101000a900473ffffffffffffffffffffffffffffffffffffffff1681565b600360009054906101000a900473ffffffffffffffffffffffffffffffffffffffff1673ffffffffffffffffffffffffffffffffffffffff163373ffffffffffffffffffffffffffffffffffffffff16146107a3576040517f08c379a0000000000000000000000000000000000000000000000000000000008152600401808060200182810382526049815260200180611b006049913960600191505060405180910390fd5b6107ae81600161151c565b50565b600061085a6107be610fa7565b8461085585600160006107cf610fa7565b73ffffffffffffffffffffffffffffffffffffffff1673ffffffffffffffffffffffffffffffffffffffff16815260200190815260200160002060008973ffffffffffffffffffffffffffffffffffffffff1673ffffffffffffffffffffffffffffffffffffffff168152602001908152602001600020546116d490919063ffffffff16565b610faf565b6001905092915050565b60008060008373ffffffffffffffffffffffffffffffffffffffff1673ffffffffffffffffffffffffffffffffffffffff168152602001908152602001600020549050919050565b60011515600460009054906101000a900473ffffffffffffffffffffffffffffffffffffffff1673ffffffffffffffffffffffffffffffffffffffff16630a908988336040518263ffffffff1660e01b8152600401808273ffffffffffffffffffffffffffffffffffffffff1673ffffffffffffffffffffffffffffffffffffffff16815260200191505060206040518083038186803b15801561094f57600080fd5b505afa158015610963573d6000803e3d6000fd5b505050506040513d602081101561097957600080fd5b81019080805190602001909291905050501515146109e2576040517f08c379a00000000000000000000000000000000000000000000000000000000081526004018080602001828103825260458152602001806119c96045913960600191505060405180910390fd5b600460009054906101000a900473ffffffffffffffffffffffffffffffffffffffff1673ffffffffffffffffffffffffffffffffffffffff1663ad783bac306040518263ffffffff1660e01b8152600401808273ffffffffffffffffffffffffffffffffffffffff1673ffffffffffffffffffffffffffffffffffffffff16815260200191505060206040518083038186803b158015610a8157600080fd5b505afa158015610a95573d6000803e3d6000fd5b505050506040513d6020811015610aab57600080fd5b8101908080519060200190929190505050341015610b14576040517f08c379a0000000000000000000000000000000000000000000000000000000008152600401808060200182810382526032815260200180611b496032913960400191505060405180910390fd5b600460009054906101000a900473ffffffffffffffffffffffffffffffffffffffff1673ffffffffffffffffffffffffffffffffffffffff166321cd1b40306040518263ffffffff1660e01b8152600401808273ffffffffffffffffffffffffffffffffffffffff1673ffffffffffffffffffffffffffffffffffffffff16815260200191505060206040518083038186803b158015610bb357600080fd5b505afa158015610bc7573d6000803e3d6000fd5b505050506040513d6020811015610bdd57600080fd5b810190808051906020019092919050505050610bf9828261175c565b5050565b6000610cc0610c0a610fa7565b84610cbb85604051806060016040528060258152602001611bb36025913960016000610c34610fa7565b73ffffffffffffffffffffffffffffffffffffffff1673ffffffffffffffffffffffffffffffffffffffff16815260200190815260200160002060008a73ffffffffffffffffffffffffffffffffffffffff1673ffffffffffffffffffffffffffffffffffffffff1681526020019081526020016000205461145c9092919063ffffffff16565b610faf565b6001905092915050565b6000610cde610cd7610fa7565b84846111a6565b6001905092915050565b6000600360009054906101000a900473ffffffffffffffffffffffffffffffffffffffff16905090565b600073ffffffffffffffffffffffffffffffffffffffff163373ffffffffffffffffffffffffffffffffffffffff1614158015610d7b57503073ffffffffffffffffffffffffffffffffffffffff163373ffffffffffffffffffffffffffffffffffffffff1614155b610dd0576040517f08c379a0000000000000000000000000000000000000000000000000000000008152600401808060200182810382526038815260200180611b7b6038913960400191505060405180910390fd5b670de0b6b3a7640000600460009054906101000a900473ffffffffffffffffffffffffffffffffffffffff1673ffffffffffffffffffffffffffffffffffffffff1663ad783bac306040518263ffffffff1660e01b8152600401808273ffffffffffffffffffffffffffffffffffffffff1673ffffffffffffffffffffffffffffffffffffffff16815260200191505060206040518083038186803b158015610e7857600080fd5b505afa158015610e8c573d6000803e3d6000fd5b505050506040513d6020811015610ea257600080fd5b8101908080519060200190929190505050023414610f0b576040517f08c379a000000000000000000000000000000000000000000000000000000000815260040180806020018281038252603a815260200180611a34603a913960400191505060405180910390fd5b6000339050610f1b8183856111a6565b505050565b6000600160008473ffffffffffffffffffffffffffffffffffffffff1673ffffffffffffffffffffffffffffffffffffffff16815260200190815260200160002060008373ffffffffffffffffffffffffffffffffffffffff1673ffffffffffffffffffffffffffffffffffffffff16815260200190815260200160002054905092915050565b600033905090565b600073ffffffffffffffffffffffffffffffffffffffff168373ffffffffffffffffffffffffffffffffffffffff161415611035576040517f08c379a0000000000000000000000000000000000000000000000000000000008152600401808060200182810382526024815260200180611adc6024913960400191505060405180910390fd5b600073ffffffffffffffffffffffffffffffffffffffff168273ffffffffffffffffffffffffffffffffffffffff1614156110bb576040517f08c379a00000000000000000000000000000000000000000000000000000000081526004018080602001828103825260228152602001806119a76022913960400191505060405180910390fd5b80600160008573ffffffffffffffffffffffffffffffffffffffff1673ffffffffffffffffffffffffffffffffffffffff16815260200190815260200160002060008473ffffffffffffffffffffffffffffffffffffffff1673ffffffffffffffffffffffffffffffffffffffff168152602001908152602001600020819055508173ffffffffffffffffffffffffffffffffffffffff168373ffffffffffffffffffffffffffffffffffffffff167f8c5be1e5ebec7d5bd14f71427d1e84f3dd0314c0f7b2291e5b200ac8c7c3b925836040518082815260200191505060405180910390a3505050565b600073ffffffffffffffffffffffffffffffffffffffff168373ffffffffffffffffffffffffffffffffffffffff16141561122c576040517f08c379a0000000000000000000000000000000000000000000000000000000008152600401808060200182810382526025815260200180611ab76025913960400191505060405180910390fd5b600073ffffffffffffffffffffffffffffffffffffffff168273ffffffffffffffffffffffffffffffffffffffff1614156112b2576040517f08c379a00000000000000000000000000000000000000000000000000000000081526004018080602001828103825260238152602001806119626023913960400191505060405180910390fd5b61131d81604051806060016040528060268152602001611a0e602691396000808773ffffffffffffffffffffffffffffffffffffffff1673ffffffffffffffffffffffffffffffffffffffff1681526020019081526020016000205461145c9092919063ffffffff16565b6000808573ffffffffffffffffffffffffffffffffffffffff1673ffffffffffffffffffffffffffffffffffffffff168152602001908152602001600020819055506113b0816000808573ffffffffffffffffffffffffffffffffffffffff1673ffffffffffffffffffffffffffffffffffffffff168152602001908152602001600020546116d490919063ffffffff16565b6000808473ffffffffffffffffffffffffffffffffffffffff1673ffffffffffffffffffffffffffffffffffffffff168152602001908152602001600020819055508173ffffffffffffffffffffffffffffffffffffffff168373ffffffffffffffffffffffffffffffffffffffff167fddf252ad1be2c89b69c2b068fc378daa952ba7f163c4a11628f55a4df523b3ef836040518082815260200191505060405180910390a3505050565b6000838311158290611509576040517f08c379a00000000000000000000000000000000000000000000000000000000081526004018080602001828103825283818151815260200191508051906020019080838360005b838110156114ce5780820151818401526020810190506114b3565b50505050905090810190601f1680156114fb5780820380516001836020036101000a031916815260200191505b509250505060405180910390fd5b5060008385039050809150509392505050565b600073ffffffffffffffffffffffffffffffffffffffff168273ffffffffffffffffffffffffffffffffffffffff1614156115a2576040517f08c379a0000000000000000000000000000000000000000000000000000000008152600401808060200182810382526021815260200180611a966021913960400191505060405180910390fd5b61160d81604051806060016040528060228152602001611985602291396000808673ffffffffffffffffffffffffffffffffffffffff1673ffffffffffffffffffffffffffffffffffffffff1681526020019081526020016000205461145c9092919063ffffffff16565b6000808473ffffffffffffffffffffffffffffffffffffffff1673ffffffffffffffffffffffffffffffffffffffff168152602001908152602001600020819055506116648160025461191790919063ffffffff16565b600281905550600073ffffffffffffffffffffffffffffffffffffffff168273ffffffffffffffffffffffffffffffffffffffff167fddf252ad1be2c89b69c2b068fc378daa952ba7f163c4a11628f55a4df523b3ef836040518082815260200191505060405180910390a35050565b600080828401905083811015611752576040517f08c379a000000000000000000000000000000000000000000000000000000000815260040180806020018281038252601b8152602001807f536166654d6174683a206164646974696f6e206f766572666c6f77000000000081525060200191505060405180910390fd5b8091505092915050565b600073ffffffffffffffffffffffffffffffffffffffff168273ffffffffffffffffffffffffffffffffffffffff1614156117ff576040517f08c379a000000000000000000000000000000000000000000000000000000000815260040180806020018281038252601f8152602001807f45524332303a206d696e7420746f20746865207a65726f20616464726573730081525060200191505060405180910390fd5b611814816002546116d490919063ffffffff16565b60028190555061186b816000808573ffffffffffffffffffffffffffffffffffffffff1673ffffffffffffffffffffffffffffffffffffffff168152602001908152602001600020546116d490919063ffffffff16565b6000808473ffffffffffffffffffffffffffffffffffffffff1673ffffffffffffffffffffffffffffffffffffffff168152602001908152602001600020819055508173ffffffffffffffffffffffffffffffffffffffff16600073ffffffffffffffffffffffffffffffffffffffff167fddf252ad1be2c89b69c2b068fc378daa952ba7f163c4a11628f55a4df523b3ef836040518082815260200191505060405180910390a35050565b600061195983836040518060400160405280601e81526020017f536166654d6174683a207375627472616374696f6e206f766572666c6f77000081525061145c565b90509291505056fe45524332303a207472616e7366657220746f20746865207a65726f206164647265737345524332303a206275726e20616d6f756e7420657863656564732062616c616e636545524332303a20617070726f766520746f20746865207a65726f206164647265737374686520757365722070757263686173696e67206120746f6b656e206d75737420626520616e20616374697665207573657220696e20746865204c6f766545636f6e6f6d7945524332303a207472616e7366657220616d6f756e7420657863656564732062616c616e636570726963652070616964206d75737420626520626967676572206f7220657175616c20746f207072696365206f66207468652070726f6475637445524332303a207472616e7366657220616d6f756e74206578636565647320616c6c6f77616e636545524332303a206275726e2066726f6d20746865207a65726f206164647265737345524332303a207472616e736665722066726f6d20746865207a65726f206164647265737345524332303a20617070726f76652066726f6d20746865207a65726f20616464726573736f6e6c792074686520627573696e6573732063616e206275726e2074686520746f6b656e207768656e20697420616363657074732074686520746f6b656e206173207061796d656e74707269636520706169642073686f756c642062652061746c6561737420746865207072696365206f6620746865206465616c73656e6465722063616e6e6f7420626520746865207a65726f2061646472657373206f722074686520636f6e747261637420697473656c6645524332303a2064656372656173656420616c6c6f77616e63652062656c6f77207a65726fa265627a7a72315820b2e0a6da774c50a28367bddd622d9741f7f4531f0076dd6f17a91bf6779ad51164736f6c634300050c00327072696365206e6565647320746f20626520686967686572207468616e207a65726f4f6e6c792074686520627573696e65737320636f6e7472616374206f776e65722063616e20637265617465206e6577206465616c7374686520627573696e657373206d757374206265206163746976652063757272656e746c79a265627a7a72315820f746bb6e85279faec5c2017ba2615960c3d668c69f959ee4c6d622d013f9bbef64736f6c634300050c00326f6e6c7920746865204c6f766545636f6e6f6d792063616e20616464206e657720627573696e65737365736f6e6c7920746865204c6f766545636f6e6f6d792063616e206368616e67652074686520666565206368617267656420746f206e65772075736572734f6e6c79204c6f766545636f6e6f6d792063616e206368616e6765207468652061637469766520666c6167206f66206120627573696e6573732e5468697320637573746f6d657220697320616c72656164792072656769737465726564a265627a7a7231582076768d3f2cc38cf83de762bbcbdf11517cc4ab379906155b24fb8137efa400a464736f6c634300050c0032",
  "source": "pragma solidity >=0.4.21 <0.6.0;\n\nimport \"./LocalBusiness.sol\";\n\ncontract LoveEconomy {\n\n // create object to store local businesses that sign up for the Love Economy\n\n    struct local_business {\n        string businessName;\n        address businessContractAddress; // not sure whether I need this yet\n        bool active;\n    }\n\n// add a smart contract that has the details of the deals for the business? maybe the price, two-for-one or discount, expiration date?\n\n// object to store Love Economy user details\n    struct user {\n        string userName;\n        bool discountCodeUsed; // whether the user signed in using a discount code\n        bool active;\n    }\n\n    address[] public AllUsers;\n\n    address[] public AllBusinesses;\n\n    address public owner; // this will be the LoveEconomy who is the owner of all the contracts\n    uint private discountCode; // this will be the discount code at the time of contract deployment -> should be set to private and dynamic\n    uint public userFee; // the fee will represent Wei, where the actual value recieved needs to be userFee * 10**18\n\n    uint public userCount; // number of users on the system\n    uint public businessCount; // number of local businesses\n\n    uint public discountCodeCount; // number of discount codes used\n\n    mapping(address => local_business) public businessAddresstoDetails; // id based lookup for businesses\n    mapping(address => user) public userAddresstoDetails; // id based look up for users\n\n\n\n    constructor(uint _discountCode, uint _userFee) public {\n        owner = msg.sender;\n        discountCode = _discountCode;\n        userFee = _userFee;\n    }\n\n    // events\n    event businessAdded (\n        string _businessName,\n        address _businessAddress,\n        address _businessContractAddress,\n        bool _active\n    );\n\n\n    // function to add a new local business to the LoveEconomy\n    // make the function private, as we only want this contract to be able to add new businesses\n\n    function addBusiness(address _businessAddress, string memory _businessName) public {\n        require(msg.sender == owner, \"only the LoveEconomy can add new businesses\"); // can only register once viable deal is aggreed upon\n        require(businessAddresstoDetails[_businessAddress].active != true, \"business already exists\");\n\n        // Deploy new business contract\n        LocalBusiness newBusinessContract = new LocalBusiness(_businessAddress, _businessName);\n        // Store the new contract address\n        address businessContractAddress = address(newBusinessContract);\n        AllBusinesses.push(_businessAddress);\n\n\n        businessCount++;\n        // update the business details and add to the array\n        businessAddresstoDetails[_businessAddress] = local_business(_businessName, businessContractAddress, true);\n        emit businessAdded(_businessName, _businessAddress, businessContractAddress, true);\n    }\n\n    // new users signing up to platform\n    // discount code is a bool: whether one was used or not\n    function addDiscountCodeUser(address _userAddress, string memory _userName, bool _discountCodeUsed, uint _discountCode) public {\n        require(userAddresstoDetails[_userAddress].active != true, \"This customer is already registered\");\n        require(_discountCode == discountCode, \"Not the correct Code\"); // check that the correct dicount code was added\n        //require(msg.sender == _userAddress, \"only the active user can add themselves to the LoveEconomy\");\n\n        discountCodeCount++;\n\n        userCount ++;\n        userAddresstoDetails[_userAddress] = user(_userName, _discountCodeUsed, true);\n        AllUsers.push(_userAddress);\n    }\n\n// new user sign up when they do not have a discount code and rather want to pay, need the function to be payable\n// unsure as could anyone just use someone elses address and then ether will be subtracted from that address?\n    function addUser(address _userAddress, string memory _userName) public payable {\n        require(userAddresstoDetails[_userAddress].active != true, \"This customer is already registered\");\n        require(msg.value >= userFee * 10**18, \"Not enough ether\"); // check that the correct dicount code was added\n        //require(msg.sender == _userAddress, \"only the active user can add themselves to the LoveEconomy\");\n\n        userCount ++;\n        userAddresstoDetails[_userAddress] = user(_userName, false, true);\n        AllUsers.push(_userAddress);\n    }\n\n    // Allow LoveEconomy to activate or deactivate businesses on the platform\n    function setActiveFlag(address _businessWalletAddress, bool _active) public {\n        require(msg.sender == owner, \"Only LoveEconomy can change the active flag of a business.\");\n        businessAddresstoDetails[_businessWalletAddress].active = _active;\n    }\n\n    // function to update the signup value, this can only be called by the LoveEconomy contract owner\n    function updateUserFee(uint _newFee) public {\n        require(msg.sender == owner, \"only the LoveEconomy can change the fee charged to new users\");\n        userFee = _newFee;\n    }\n\n    function getAllBusinesses() public view returns(address[] memory){\n        return AllBusinesses;\n    }\n\n    function getBusinessDetails(address _businessWalletAddress) public view\n        returns (string memory businessName, address businessContractAddress, bool active) {\n\n            return(\n            businessAddresstoDetails[_businessWalletAddress].businessName,\n            businessAddresstoDetails[_businessWalletAddress].businessContractAddress,\n            businessAddresstoDetails[_businessWalletAddress].active\n            );\n\n        }\n\n// function used by the business contract to create a require statement that the business has to be active before creating a new product\n    function isActive(address _businessWalletAddress) public view returns (bool active) {\n\n        return(businessAddresstoDetails[_businessWalletAddress].active);\n    }\n    /// be able to add new discount codes by love economy?\n\n    function isUserActive(address _userAddress) public view returns(bool active) {\n        return(userAddresstoDetails[_userAddress].active);\n    }\n}",
  "sourcePath": "/Users/julikapahl30/FinTech/GitHub/LoveEconomy/contracts/LoveEconomy.sol",
  "compiler": {
    "name": "solc",
    "version": "0.5.12+commit.7709ece9.Emscripten.clang"
  },
  "schemaVersion": "3.0.19",
  "updatedAt": "2019-12-23T11:17:46.589Z",
  "networkType": "ethereum",
  "devdoc": {
    "methods": {}
  },
  "userdoc": {
    "methods": {
      "isUserActive(address)": {
        "notice": "be able to add new discount codes by love economy?"
      }
    }
  }
}